{
	"contracts/Crowdfunding.sol": {
		"Crowdfunding": {
			"abi": [
				{
					"inputs": [
						{
							"internalType": "uint256",
							"name": "_goal",
							"type": "uint256"
						},
						{
							"internalType": "uint256",
							"name": "_duration",
							"type": "uint256"
						}
					],
					"stateMutability": "nonpayable",
					"type": "constructor"
				},
				{
					"anonymous": false,
					"inputs": [
						{
							"indexed": false,
							"internalType": "address",
							"name": "contributor",
							"type": "address"
						},
						{
							"indexed": false,
							"internalType": "uint256",
							"name": "amount",
							"type": "uint256"
						}
					],
					"name": "ContributionReceived",
					"type": "event"
				},
				{
					"anonymous": false,
					"inputs": [
						{
							"indexed": false,
							"internalType": "address",
							"name": "owner",
							"type": "address"
						},
						{
							"indexed": false,
							"internalType": "uint256",
							"name": "amount",
							"type": "uint256"
						}
					],
					"name": "FundsWithdrawn",
					"type": "event"
				},
				{
					"anonymous": false,
					"inputs": [
						{
							"indexed": false,
							"internalType": "address",
							"name": "contributor",
							"type": "address"
						},
						{
							"indexed": false,
							"internalType": "uint256",
							"name": "amount",
							"type": "uint256"
						}
					],
					"name": "RefundIssued",
					"type": "event"
				},
				{
					"inputs": [],
					"name": "contribute",
					"outputs": [],
					"stateMutability": "payable",
					"type": "function"
				},
				{
					"inputs": [
						{
							"internalType": "address",
							"name": "",
							"type": "address"
						}
					],
					"name": "contributions",
					"outputs": [
						{
							"internalType": "uint256",
							"name": "",
							"type": "uint256"
						}
					],
					"stateMutability": "view",
					"type": "function"
				},
				{
					"inputs": [],
					"name": "deadline",
					"outputs": [
						{
							"internalType": "uint256",
							"name": "",
							"type": "uint256"
						}
					],
					"stateMutability": "view",
					"type": "function"
				},
				{
					"inputs": [],
					"name": "getProgress",
					"outputs": [
						{
							"internalType": "uint256",
							"name": "",
							"type": "uint256"
						}
					],
					"stateMutability": "view",
					"type": "function"
				},
				{
					"inputs": [],
					"name": "getTimeLeft",
					"outputs": [
						{
							"internalType": "uint256",
							"name": "",
							"type": "uint256"
						}
					],
					"stateMutability": "view",
					"type": "function"
				},
				{
					"inputs": [],
					"name": "goal",
					"outputs": [
						{
							"internalType": "uint256",
							"name": "",
							"type": "uint256"
						}
					],
					"stateMutability": "view",
					"type": "function"
				},
				{
					"inputs": [],
					"name": "owner",
					"outputs": [
						{
							"internalType": "address",
							"name": "",
							"type": "address"
						}
					],
					"stateMutability": "view",
					"type": "function"
				},
				{
					"inputs": [],
					"name": "refund",
					"outputs": [],
					"stateMutability": "nonpayable",
					"type": "function"
				},
				{
					"inputs": [],
					"name": "totalRaised",
					"outputs": [
						{
							"internalType": "uint256",
							"name": "",
							"type": "uint256"
						}
					],
					"stateMutability": "view",
					"type": "function"
				},
				{
					"inputs": [],
					"name": "withdrawFunds",
					"outputs": [],
					"stateMutability": "nonpayable",
					"type": "function"
				},
				{
					"inputs": [],
					"name": "withdrawn",
					"outputs": [
						{
							"internalType": "bool",
							"name": "",
							"type": "bool"
						}
					],
					"stateMutability": "view",
					"type": "function"
				}
			],
			"devdoc": {
				"kind": "dev",
				"methods": {},
				"version": 1
			},
			"evm": {
				"assembly": "    /* \"contracts/Crowdfunding.sol\":458:7658  contract Crowdfunding {... */\n  mstore(0x40, 0x80)\n    /* \"contracts/Crowdfunding.sol\":2769:3294  constructor(uint _goal, uint _duration) {... */\n  callvalue\n  dup1\n  iszero\n  tag_1\n  jumpi\n  revert(0x00, 0x00)\ntag_1:\n  pop\n  mload(0x40)\n  sub(codesize, bytecodeSize)\n  dup1\n  bytecodeSize\n  dup4\n  codecopy\n  dup2\n  dup2\n  add\n  0x40\n  mstore\n  dup2\n  add\n  swap1\n  tag_2\n  swap2\n  swap1\n  tag_3\n  jump\t// in\ntag_2:\n    /* \"contracts/Crowdfunding.sol\":2828:2838  msg.sender */\n  caller\n    /* \"contracts/Crowdfunding.sol\":2820:2825  owner */\n  0x00\n  0x00\n    /* \"contracts/Crowdfunding.sol\":2820:2838  owner = msg.sender */\n  0x0100\n  exp\n  dup2\n  sload\n  dup2\n  0xffffffffffffffffffffffffffffffffffffffff\n  mul\n  not\n  and\n  swap1\n  dup4\n  0xffffffffffffffffffffffffffffffffffffffff\n  and\n  mul\n  or\n  swap1\n  sstore\n  pop\n    /* \"contracts/Crowdfunding.sol\":2939:2944  _goal */\n  dup2\n    /* \"contracts/Crowdfunding.sol\":2932:2936  goal */\n  0x01\n    /* \"contracts/Crowdfunding.sol\":2932:2944  goal = _goal */\n  dup2\n  swap1\n  sstore\n  pop\n    /* \"contracts/Crowdfunding.sol\":3191:3200  _duration */\n  dup1\n    /* \"contracts/Crowdfunding.sol\":3173:3188  block.timestamp */\n  timestamp\n    /* \"contracts/Crowdfunding.sol\":3173:3200  block.timestamp + _duration */\n  tag_6\n  swap2\n  swap1\n  tag_7\n  jump\t// in\ntag_6:\n    /* \"contracts/Crowdfunding.sol\":3162:3170  deadline */\n  0x02\n    /* \"contracts/Crowdfunding.sol\":3162:3200  deadline = block.timestamp + _duration */\n  dup2\n  swap1\n  sstore\n  pop\n    /* \"contracts/Crowdfunding.sol\":3226:3231  false */\n  0x00\n    /* \"contracts/Crowdfunding.sol\":3214:3223  withdrawn */\n  0x04\n  0x00\n    /* \"contracts/Crowdfunding.sol\":3214:3231  withdrawn = false */\n  0x0100\n  exp\n  dup2\n  sload\n  dup2\n  0xff\n  mul\n  not\n  and\n  swap1\n  dup4\n  iszero\n  iszero\n  mul\n  or\n  swap1\n  sstore\n  pop\n    /* \"contracts/Crowdfunding.sol\":2769:3294  constructor(uint _goal, uint _duration) {... */\n  pop\n  pop\n    /* \"contracts/Crowdfunding.sol\":458:7658  contract Crowdfunding {... */\n  jump(tag_8)\n    /* \"#utility.yul\":88:205   */\ntag_10:\n    /* \"#utility.yul\":197:198   */\n  0x00\n    /* \"#utility.yul\":194:195   */\n  0x00\n    /* \"#utility.yul\":187:199   */\n  revert\n    /* \"#utility.yul\":334:411   */\ntag_12:\n    /* \"#utility.yul\":371:378   */\n  0x00\n    /* \"#utility.yul\":400:405   */\n  dup2\n    /* \"#utility.yul\":389:405   */\n  swap1\n  pop\n    /* \"#utility.yul\":334:411   */\n  swap2\n  swap1\n  pop\n  jump\t// out\n    /* \"#utility.yul\":417:539   */\ntag_13:\n    /* \"#utility.yul\":490:514   */\n  tag_22\n    /* \"#utility.yul\":508:513   */\n  dup2\n    /* \"#utility.yul\":490:514   */\n  tag_12\n  jump\t// in\ntag_22:\n    /* \"#utility.yul\":483:488   */\n  dup2\n    /* \"#utility.yul\":480:515   */\n  eq\n    /* \"#utility.yul\":470:533   */\n  tag_23\n  jumpi\n    /* \"#utility.yul\":529:530   */\n  0x00\n    /* \"#utility.yul\":526:527   */\n  0x00\n    /* \"#utility.yul\":519:531   */\n  revert\n    /* \"#utility.yul\":470:533   */\ntag_23:\n    /* \"#utility.yul\":417:539   */\n  pop\n  jump\t// out\n    /* \"#utility.yul\":545:688   */\ntag_14:\n    /* \"#utility.yul\":602:607   */\n  0x00\n    /* \"#utility.yul\":633:639   */\n  dup2\n    /* \"#utility.yul\":627:640   */\n  mload\n    /* \"#utility.yul\":618:640   */\n  swap1\n  pop\n    /* \"#utility.yul\":649:682   */\n  tag_25\n    /* \"#utility.yul\":676:681   */\n  dup2\n    /* \"#utility.yul\":649:682   */\n  tag_13\n  jump\t// in\ntag_25:\n    /* \"#utility.yul\":545:688   */\n  swap3\n  swap2\n  pop\n  pop\n  jump\t// out\n    /* \"#utility.yul\":694:1201   */\ntag_3:\n    /* \"#utility.yul\":773:779   */\n  0x00\n    /* \"#utility.yul\":781:787   */\n  0x00\n    /* \"#utility.yul\":830:832   */\n  0x40\n    /* \"#utility.yul\":818:827   */\n  dup4\n    /* \"#utility.yul\":809:816   */\n  dup6\n    /* \"#utility.yul\":805:828   */\n  sub\n    /* \"#utility.yul\":801:833   */\n  slt\n    /* \"#utility.yul\":798:917   */\n  iszero\n  tag_27\n  jumpi\n    /* \"#utility.yul\":836:915   */\n  tag_28\n  tag_10\n  jump\t// in\ntag_28:\n    /* \"#utility.yul\":798:917   */\ntag_27:\n    /* \"#utility.yul\":956:957   */\n  0x00\n    /* \"#utility.yul\":981:1045   */\n  tag_29\n    /* \"#utility.yul\":1037:1044   */\n  dup6\n    /* \"#utility.yul\":1028:1034   */\n  dup3\n    /* \"#utility.yul\":1017:1026   */\n  dup7\n    /* \"#utility.yul\":1013:1035   */\n  add\n    /* \"#utility.yul\":981:1045   */\n  tag_14\n  jump\t// in\ntag_29:\n    /* \"#utility.yul\":971:1045   */\n  swap3\n  pop\n    /* \"#utility.yul\":927:1055   */\n  pop\n    /* \"#utility.yul\":1094:1096   */\n  0x20\n    /* \"#utility.yul\":1120:1184   */\n  tag_30\n    /* \"#utility.yul\":1176:1183   */\n  dup6\n    /* \"#utility.yul\":1167:1173   */\n  dup3\n    /* \"#utility.yul\":1156:1165   */\n  dup7\n    /* \"#utility.yul\":1152:1174   */\n  add\n    /* \"#utility.yul\":1120:1184   */\n  tag_14\n  jump\t// in\ntag_30:\n    /* \"#utility.yul\":1110:1184   */\n  swap2\n  pop\n    /* \"#utility.yul\":1065:1194   */\n  pop\n    /* \"#utility.yul\":694:1201   */\n  swap3\n  pop\n  swap3\n  swap1\n  pop\n  jump\t// out\n    /* \"#utility.yul\":1207:1387   */\ntag_15:\n    /* \"#utility.yul\":1255:1332   */\n  0x4e487b7100000000000000000000000000000000000000000000000000000000\n    /* \"#utility.yul\":1252:1253   */\n  0x00\n    /* \"#utility.yul\":1245:1333   */\n  mstore\n    /* \"#utility.yul\":1352:1356   */\n  0x11\n    /* \"#utility.yul\":1349:1350   */\n  0x04\n    /* \"#utility.yul\":1342:1357   */\n  mstore\n    /* \"#utility.yul\":1376:1380   */\n  0x24\n    /* \"#utility.yul\":1373:1374   */\n  0x00\n    /* \"#utility.yul\":1366:1381   */\n  revert\n    /* \"#utility.yul\":1393:1584   */\ntag_7:\n    /* \"#utility.yul\":1433:1436   */\n  0x00\n    /* \"#utility.yul\":1452:1472   */\n  tag_33\n    /* \"#utility.yul\":1470:1471   */\n  dup3\n    /* \"#utility.yul\":1452:1472   */\n  tag_12\n  jump\t// in\ntag_33:\n    /* \"#utility.yul\":1447:1472   */\n  swap2\n  pop\n    /* \"#utility.yul\":1486:1506   */\n  tag_34\n    /* \"#utility.yul\":1504:1505   */\n  dup4\n    /* \"#utility.yul\":1486:1506   */\n  tag_12\n  jump\t// in\ntag_34:\n    /* \"#utility.yul\":1481:1506   */\n  swap3\n  pop\n    /* \"#utility.yul\":1529:1530   */\n  dup3\n    /* \"#utility.yul\":1526:1527   */\n  dup3\n    /* \"#utility.yul\":1522:1531   */\n  add\n    /* \"#utility.yul\":1515:1531   */\n  swap1\n  pop\n    /* \"#utility.yul\":1550:1553   */\n  dup1\n    /* \"#utility.yul\":1547:1548   */\n  dup3\n    /* \"#utility.yul\":1544:1554   */\n  gt\n    /* \"#utility.yul\":1541:1577   */\n  iszero\n  tag_35\n  jumpi\n    /* \"#utility.yul\":1557:1575   */\n  tag_36\n  tag_15\n  jump\t// in\ntag_36:\n    /* \"#utility.yul\":1541:1577   */\ntag_35:\n    /* \"#utility.yul\":1393:1584   */\n  swap3\n  swap2\n  pop\n  pop\n  jump\t// out\n    /* \"contracts/Crowdfunding.sol\":458:7658  contract Crowdfunding {... */\ntag_8:\n  dataSize(sub_0)\n  dup1\n  dataOffset(sub_0)\n  0x00\n  codecopy\n  0x00\n  return\nstop\n\nsub_0: assembly {\n        /* \"contracts/Crowdfunding.sol\":458:7658  contract Crowdfunding {... */\n      mstore(0x40, 0x80)\n      jumpi(tag_1, lt(calldatasize, 0x04))\n      shr(0xe0, calldataload(0x00))\n      dup1\n      0x8da5cb5b\n      gt\n      tag_13\n      jumpi\n      dup1\n      0x8da5cb5b\n      eq\n      tag_7\n      jumpi\n      dup1\n      0x939c4456\n      eq\n      tag_8\n      jumpi\n      dup1\n      0xc5c4744c\n      eq\n      tag_9\n      jumpi\n      dup1\n      0xc7e284b8\n      eq\n      tag_10\n      jumpi\n      dup1\n      0xc80ec522\n      eq\n      tag_11\n      jumpi\n      dup1\n      0xd7bb99ba\n      eq\n      tag_12\n      jumpi\n      jump(tag_1)\n    tag_13:\n      dup1\n      0x24600fc3\n      eq\n      tag_2\n      jumpi\n      dup1\n      0x29dcb0cf\n      eq\n      tag_3\n      jumpi\n      dup1\n      0x40193883\n      eq\n      tag_4\n      jumpi\n      dup1\n      0x42e94c90\n      eq\n      tag_5\n      jumpi\n      dup1\n      0x590e1ae3\n      eq\n      tag_6\n      jumpi\n    tag_1:\n      revert(0x00, 0x00)\n        /* \"contracts/Crowdfunding.sol\":4493:5704  function withdrawFunds() public {... */\n    tag_2:\n      callvalue\n      dup1\n      iszero\n      tag_14\n      jumpi\n      revert(0x00, 0x00)\n    tag_14:\n      pop\n      tag_15\n      tag_16\n      jump\t// in\n    tag_15:\n      stop\n        /* \"contracts/Crowdfunding.sol\":1084:1104  uint public deadline */\n    tag_3:\n      callvalue\n      dup1\n      iszero\n      tag_17\n      jumpi\n      revert(0x00, 0x00)\n    tag_17:\n      pop\n      tag_18\n      tag_19\n      jump\t// in\n    tag_18:\n      mload(0x40)\n      tag_20\n      swap2\n      swap1\n      tag_21\n      jump\t// in\n    tag_20:\n      mload(0x40)\n      dup1\n      swap2\n      sub\n      swap1\n      return\n        /* \"contracts/Crowdfunding.sol\":901:917  uint public goal */\n    tag_4:\n      callvalue\n      dup1\n      iszero\n      tag_22\n      jumpi\n      revert(0x00, 0x00)\n    tag_22:\n      pop\n      tag_23\n      tag_24\n      jump\t// in\n    tag_23:\n      mload(0x40)\n      tag_25\n      swap2\n      swap1\n      tag_21\n      jump\t// in\n    tag_25:\n      mload(0x40)\n      dup1\n      swap2\n      sub\n      swap1\n      return\n        /* \"contracts/Crowdfunding.sol\":1648:1693  mapping(address => uint) public contributions */\n    tag_5:\n      callvalue\n      dup1\n      iszero\n      tag_26\n      jumpi\n      revert(0x00, 0x00)\n    tag_26:\n      pop\n      tag_27\n      0x04\n      dup1\n      calldatasize\n      sub\n      dup2\n      add\n      swap1\n      tag_28\n      swap2\n      swap1\n      tag_29\n      jump\t// in\n    tag_28:\n      tag_30\n      jump\t// in\n    tag_27:\n      mload(0x40)\n      tag_31\n      swap2\n      swap1\n      tag_21\n      jump\t// in\n    tag_31:\n      mload(0x40)\n      dup1\n      swap2\n      sub\n      swap1\n      return\n        /* \"contracts/Crowdfunding.sol\":5854:6814  function refund() public {... */\n    tag_6:\n      callvalue\n      dup1\n      iszero\n      tag_32\n      jumpi\n      revert(0x00, 0x00)\n    tag_32:\n      pop\n      tag_33\n      tag_34\n      jump\t// in\n    tag_33:\n      stop\n        /* \"contracts/Crowdfunding.sol\":663:683  address public owner */\n    tag_7:\n      callvalue\n      dup1\n      iszero\n      tag_35\n      jumpi\n      revert(0x00, 0x00)\n    tag_35:\n      pop\n      tag_36\n      tag_37\n      jump\t// in\n    tag_36:\n      mload(0x40)\n      tag_38\n      swap2\n      swap1\n      tag_39\n      jump\t// in\n    tag_38:\n      mload(0x40)\n      dup1\n      swap2\n      sub\n      swap1\n      return\n        /* \"contracts/Crowdfunding.sol\":7350:7655  function getProgress() public view returns (uint) {... */\n    tag_8:\n      callvalue\n      dup1\n      iszero\n      tag_40\n      jumpi\n      revert(0x00, 0x00)\n    tag_40:\n      pop\n      tag_41\n      tag_42\n      jump\t// in\n    tag_41:\n      mload(0x40)\n      tag_43\n      swap2\n      swap1\n      tag_21\n      jump\t// in\n    tag_43:\n      mload(0x40)\n      dup1\n      swap2\n      sub\n      swap1\n      return\n        /* \"contracts/Crowdfunding.sol\":1228:1251  uint public totalRaised */\n    tag_9:\n      callvalue\n      dup1\n      iszero\n      tag_44\n      jumpi\n      revert(0x00, 0x00)\n    tag_44:\n      pop\n      tag_45\n      tag_46\n      jump\t// in\n    tag_45:\n      mload(0x40)\n      tag_47\n      swap2\n      swap1\n      tag_21\n      jump\t// in\n    tag_47:\n      mload(0x40)\n      dup1\n      swap2\n      sub\n      swap1\n      return\n        /* \"contracts/Crowdfunding.sol\":6999:7295  function getTimeLeft() public view returns (uint) {... */\n    tag_10:\n      callvalue\n      dup1\n      iszero\n      tag_48\n      jumpi\n      revert(0x00, 0x00)\n    tag_48:\n      pop\n      tag_49\n      tag_50\n      jump\t// in\n    tag_49:\n      mload(0x40)\n      tag_51\n      swap2\n      swap1\n      tag_21\n      jump\t// in\n    tag_51:\n      mload(0x40)\n      dup1\n      swap2\n      sub\n      swap1\n      return\n        /* \"contracts/Crowdfunding.sol\":1367:1388  bool public withdrawn */\n    tag_11:\n      callvalue\n      dup1\n      iszero\n      tag_52\n      jumpi\n      revert(0x00, 0x00)\n    tag_52:\n      pop\n      tag_53\n      tag_54\n      jump\t// in\n    tag_53:\n      mload(0x40)\n      tag_55\n      swap2\n      swap1\n      tag_56\n      jump\t// in\n    tag_55:\n      mload(0x40)\n      dup1\n      swap2\n      sub\n      swap1\n      return\n        /* \"contracts/Crowdfunding.sol\":3498:4360  function contribute() public payable {... */\n    tag_12:\n      tag_57\n      tag_58\n      jump\t// in\n    tag_57:\n      stop\n        /* \"contracts/Crowdfunding.sol\":4493:5704  function withdrawFunds() public {... */\n    tag_16:\n        /* \"contracts/Crowdfunding.sol\":4558:4563  owner */\n      0x00\n      0x00\n      swap1\n      sload\n      swap1\n      0x0100\n      exp\n      swap1\n      div\n      0xffffffffffffffffffffffffffffffffffffffff\n      and\n        /* \"contracts/Crowdfunding.sol\":4544:4563  msg.sender == owner */\n      0xffffffffffffffffffffffffffffffffffffffff\n      and\n        /* \"contracts/Crowdfunding.sol\":4544:4554  msg.sender */\n      caller\n        /* \"contracts/Crowdfunding.sol\":4544:4563  msg.sender == owner */\n      0xffffffffffffffffffffffffffffffffffffffff\n      and\n      eq\n        /* \"contracts/Crowdfunding.sol\":4536:4578  require(msg.sender == owner, \"Only owner\") */\n      tag_60\n      jumpi\n      mload(0x40)\n      0x08c379a000000000000000000000000000000000000000000000000000000000\n      dup2\n      mstore\n      0x04\n      add\n      tag_61\n      swap1\n      tag_62\n      jump\t// in\n    tag_61:\n      mload(0x40)\n      dup1\n      swap2\n      sub\n      swap1\n      revert\n    tag_60:\n        /* \"contracts/Crowdfunding.sol\":4670:4678  deadline */\n      sload(0x02)\n        /* \"contracts/Crowdfunding.sol\":4651:4666  block.timestamp */\n      timestamp\n        /* \"contracts/Crowdfunding.sol\":4651:4678  block.timestamp >= deadline */\n      lt\n      iszero\n        /* \"contracts/Crowdfunding.sol\":4643:4692  require(block.timestamp >= deadline, \"Not ended\") */\n      tag_63\n      jumpi\n      mload(0x40)\n      0x08c379a000000000000000000000000000000000000000000000000000000000\n      dup2\n      mstore\n      0x04\n      add\n      tag_64\n      swap1\n      tag_65\n      jump\t// in\n    tag_64:\n      mload(0x40)\n      dup1\n      swap2\n      sub\n      swap1\n      revert\n    tag_63:\n        /* \"contracts/Crowdfunding.sol\":4785:4789  goal */\n      sload(0x01)\n        /* \"contracts/Crowdfunding.sol\":4770:4781  totalRaised */\n      sload(0x03)\n        /* \"contracts/Crowdfunding.sol\":4770:4789  totalRaised >= goal */\n      lt\n      iszero\n        /* \"contracts/Crowdfunding.sol\":4762:4806  require(totalRaised >= goal, \"Goal not met\") */\n      tag_66\n      jumpi\n      mload(0x40)\n      0x08c379a000000000000000000000000000000000000000000000000000000000\n      dup2\n      mstore\n      0x04\n      add\n      tag_67\n      swap1\n      tag_68\n      jump\t// in\n    tag_67:\n      mload(0x40)\n      dup1\n      swap2\n      sub\n      swap1\n      revert\n    tag_66:\n        /* \"contracts/Crowdfunding.sol\":4888:4897  withdrawn */\n      0x04\n      0x00\n      swap1\n      sload\n      swap1\n      0x0100\n      exp\n      swap1\n      div\n      0xff\n      and\n        /* \"contracts/Crowdfunding.sol\":4887:4897  !withdrawn */\n      iszero\n        /* \"contracts/Crowdfunding.sol\":4879:4919  require(!withdrawn, \"Already withdrawn\") */\n      tag_69\n      jumpi\n      mload(0x40)\n      0x08c379a000000000000000000000000000000000000000000000000000000000\n      dup2\n      mstore\n      0x04\n      add\n      tag_70\n      swap1\n      tag_71\n      jump\t// in\n    tag_70:\n      mload(0x40)\n      dup1\n      swap2\n      sub\n      swap1\n      revert\n    tag_69:\n        /* \"contracts/Crowdfunding.sol\":5074:5078  true */\n      0x01\n        /* \"contracts/Crowdfunding.sol\":5062:5071  withdrawn */\n      0x04\n      0x00\n        /* \"contracts/Crowdfunding.sol\":5062:5078  withdrawn = true */\n      0x0100\n      exp\n      dup2\n      sload\n      dup2\n      0xff\n      mul\n      not\n      and\n      swap1\n      dup4\n      iszero\n      iszero\n      mul\n      or\n      swap1\n      sstore\n      pop\n        /* \"contracts/Crowdfunding.sol\":5367:5379  bool success */\n      0x00\n        /* \"contracts/Crowdfunding.sol\":5385:5390  owner */\n      0x00\n      0x00\n      swap1\n      sload\n      swap1\n      0x0100\n      exp\n      swap1\n      div\n      0xffffffffffffffffffffffffffffffffffffffff\n      and\n        /* \"contracts/Crowdfunding.sol\":5385:5395  owner.call */\n      0xffffffffffffffffffffffffffffffffffffffff\n      and\n        /* \"contracts/Crowdfunding.sol\":5403:5414  totalRaised */\n      sload(0x03)\n        /* \"contracts/Crowdfunding.sol\":5385:5419  owner.call{value: totalRaised}(\"\") */\n      mload(0x40)\n      tag_72\n      swap1\n      tag_73\n      jump\t// in\n    tag_72:\n      0x00\n      mload(0x40)\n      dup1\n      dup4\n      sub\n      dup2\n      dup6\n      dup8\n      gas\n      call\n      swap3\n      pop\n      pop\n      pop\n      returndatasize\n      dup1\n      0x00\n      dup2\n      eq\n      tag_76\n      jumpi\n      mload(0x40)\n      swap2\n      pop\n      and(add(returndatasize, 0x3f), not(0x1f))\n      dup3\n      add\n      0x40\n      mstore\n      returndatasize\n      dup3\n      mstore\n      returndatasize\n      0x00\n      0x20\n      dup5\n      add\n      returndatacopy\n      jump(tag_75)\n    tag_76:\n      0x60\n      swap2\n      pop\n    tag_75:\n      pop\n        /* \"contracts/Crowdfunding.sol\":5366:5419  (bool success, ) = owner.call{value: totalRaised}(\"\") */\n      pop\n      swap1\n      pop\n        /* \"contracts/Crowdfunding.sol\":5572:5579  success */\n      dup1\n        /* \"contracts/Crowdfunding.sol\":5564:5599  require(success, \"Transfer failed\") */\n      tag_77\n      jumpi\n      mload(0x40)\n      0x08c379a000000000000000000000000000000000000000000000000000000000\n      dup2\n      mstore\n      0x04\n      add\n      tag_78\n      swap1\n      tag_79\n      jump\t// in\n    tag_78:\n      mload(0x40)\n      dup1\n      swap2\n      sub\n      swap1\n      revert\n    tag_77:\n        /* \"contracts/Crowdfunding.sol\":5662:5696  FundsWithdrawn(owner, totalRaised) */\n      0xeaff4b37086828766ad3268786972c0cd24259d4c87a80f9d3963a3c3d999b0d\n        /* \"contracts/Crowdfunding.sol\":5677:5682  owner */\n      0x00\n      0x00\n      swap1\n      sload\n      swap1\n      0x0100\n      exp\n      swap1\n      div\n      0xffffffffffffffffffffffffffffffffffffffff\n      and\n        /* \"contracts/Crowdfunding.sol\":5684:5695  totalRaised */\n      sload(0x03)\n        /* \"contracts/Crowdfunding.sol\":5662:5696  FundsWithdrawn(owner, totalRaised) */\n      mload(0x40)\n      tag_80\n      swap3\n      swap2\n      swap1\n      tag_81\n      jump\t// in\n    tag_80:\n      mload(0x40)\n      dup1\n      swap2\n      sub\n      swap1\n      log1\n        /* \"contracts/Crowdfunding.sol\":4525:5704  {... */\n      pop\n        /* \"contracts/Crowdfunding.sol\":4493:5704  function withdrawFunds() public {... */\n      jump\t// out\n        /* \"contracts/Crowdfunding.sol\":1084:1104  uint public deadline */\n    tag_19:\n      sload(0x02)\n      dup2\n      jump\t// out\n        /* \"contracts/Crowdfunding.sol\":901:917  uint public goal */\n    tag_24:\n      sload(0x01)\n      dup2\n      jump\t// out\n        /* \"contracts/Crowdfunding.sol\":1648:1693  mapping(address => uint) public contributions */\n    tag_30:\n      mstore(0x20, 0x05)\n      dup1\n      0x00\n      mstore\n      keccak256(0x00, 0x40)\n      0x00\n      swap2\n      pop\n      swap1\n      pop\n      sload\n      dup2\n      jump\t// out\n        /* \"contracts/Crowdfunding.sol\":5854:6814  function refund() public {... */\n    tag_34:\n        /* \"contracts/Crowdfunding.sol\":5917:5925  deadline */\n      sload(0x02)\n        /* \"contracts/Crowdfunding.sol\":5898:5913  block.timestamp */\n      timestamp\n        /* \"contracts/Crowdfunding.sol\":5898:5925  block.timestamp >= deadline */\n      lt\n      iszero\n        /* \"contracts/Crowdfunding.sol\":5890:5939  require(block.timestamp >= deadline, \"Not ended\") */\n      tag_83\n      jumpi\n      mload(0x40)\n      0x08c379a000000000000000000000000000000000000000000000000000000000\n      dup2\n      mstore\n      0x04\n      add\n      tag_84\n      swap1\n      tag_65\n      jump\t// in\n    tag_84:\n      mload(0x40)\n      dup1\n      swap2\n      sub\n      swap1\n      revert\n    tag_83:\n        /* \"contracts/Crowdfunding.sol\":5993:5997  goal */\n      sload(0x01)\n        /* \"contracts/Crowdfunding.sol\":5979:5990  totalRaised */\n      sload(0x03)\n        /* \"contracts/Crowdfunding.sol\":5979:5997  totalRaised < goal */\n      lt\n        /* \"contracts/Crowdfunding.sol\":5971:6014  require(totalRaised < goal, \"Goal was met\") */\n      tag_85\n      jumpi\n      mload(0x40)\n      0x08c379a000000000000000000000000000000000000000000000000000000000\n      dup2\n      mstore\n      0x04\n      add\n      tag_86\n      swap1\n      tag_87\n      jump\t// in\n    tag_86:\n      mload(0x40)\n      dup1\n      swap2\n      sub\n      swap1\n      revert\n    tag_85:\n        /* \"contracts/Crowdfunding.sol\":6106:6107  0 */\n      0x00\n        /* \"contracts/Crowdfunding.sol\":6078:6091  contributions */\n      0x05\n        /* \"contracts/Crowdfunding.sol\":6078:6103  contributions[msg.sender] */\n      0x00\n        /* \"contracts/Crowdfunding.sol\":6092:6102  msg.sender */\n      caller\n        /* \"contracts/Crowdfunding.sol\":6078:6103  contributions[msg.sender] */\n      0xffffffffffffffffffffffffffffffffffffffff\n      and\n      0xffffffffffffffffffffffffffffffffffffffff\n      and\n      dup2\n      mstore\n      0x20\n      add\n      swap1\n      dup2\n      mstore\n      0x20\n      add\n      0x00\n      keccak256\n      sload\n        /* \"contracts/Crowdfunding.sol\":6078:6107  contributions[msg.sender] > 0 */\n      gt\n        /* \"contracts/Crowdfunding.sol\":6070:6127  require(contributions[msg.sender] > 0, \"No contribution\") */\n      tag_88\n      jumpi\n      mload(0x40)\n      0x08c379a000000000000000000000000000000000000000000000000000000000\n      dup2\n      mstore\n      0x04\n      add\n      tag_89\n      swap1\n      tag_90\n      jump\t// in\n    tag_89:\n      mload(0x40)\n      dup1\n      swap2\n      sub\n      swap1\n      revert\n    tag_88:\n        /* \"contracts/Crowdfunding.sol\":6274:6285  uint amount */\n      0x00\n        /* \"contracts/Crowdfunding.sol\":6288:6301  contributions */\n      0x05\n        /* \"contracts/Crowdfunding.sol\":6288:6313  contributions[msg.sender] */\n      0x00\n        /* \"contracts/Crowdfunding.sol\":6302:6312  msg.sender */\n      caller\n        /* \"contracts/Crowdfunding.sol\":6288:6313  contributions[msg.sender] */\n      0xffffffffffffffffffffffffffffffffffffffff\n      and\n      0xffffffffffffffffffffffffffffffffffffffff\n      and\n      dup2\n      mstore\n      0x20\n      add\n      swap1\n      dup2\n      mstore\n      0x20\n      add\n      0x00\n      keccak256\n      sload\n        /* \"contracts/Crowdfunding.sol\":6274:6313  uint amount = contributions[msg.sender] */\n      swap1\n      pop\n        /* \"contracts/Crowdfunding.sol\":6514:6515  0 */\n      0x00\n        /* \"contracts/Crowdfunding.sol\":6486:6499  contributions */\n      0x05\n        /* \"contracts/Crowdfunding.sol\":6486:6511  contributions[msg.sender] */\n      0x00\n        /* \"contracts/Crowdfunding.sol\":6500:6510  msg.sender */\n      caller\n        /* \"contracts/Crowdfunding.sol\":6486:6511  contributions[msg.sender] */\n      0xffffffffffffffffffffffffffffffffffffffff\n      and\n      0xffffffffffffffffffffffffffffffffffffffff\n      and\n      dup2\n      mstore\n      0x20\n      add\n      swap1\n      dup2\n      mstore\n      0x20\n      add\n      0x00\n      keccak256\n        /* \"contracts/Crowdfunding.sol\":6486:6515  contributions[msg.sender] = 0 */\n      dup2\n      swap1\n      sstore\n      pop\n        /* \"contracts/Crowdfunding.sol\":6614:6626  bool success */\n      0x00\n        /* \"contracts/Crowdfunding.sol\":6632:6642  msg.sender */\n      caller\n        /* \"contracts/Crowdfunding.sol\":6632:6647  msg.sender.call */\n      0xffffffffffffffffffffffffffffffffffffffff\n      and\n        /* \"contracts/Crowdfunding.sol\":6655:6661  amount */\n      dup3\n        /* \"contracts/Crowdfunding.sol\":6632:6666  msg.sender.call{value: amount}(\"\") */\n      mload(0x40)\n      tag_91\n      swap1\n      tag_73\n      jump\t// in\n    tag_91:\n      0x00\n      mload(0x40)\n      dup1\n      dup4\n      sub\n      dup2\n      dup6\n      dup8\n      gas\n      call\n      swap3\n      pop\n      pop\n      pop\n      returndatasize\n      dup1\n      0x00\n      dup2\n      eq\n      tag_94\n      jumpi\n      mload(0x40)\n      swap2\n      pop\n      and(add(returndatasize, 0x3f), not(0x1f))\n      dup3\n      add\n      0x40\n      mstore\n      returndatasize\n      dup3\n      mstore\n      returndatasize\n      0x00\n      0x20\n      dup5\n      add\n      returndatacopy\n      jump(tag_93)\n    tag_94:\n      0x60\n      swap2\n      pop\n    tag_93:\n      pop\n        /* \"contracts/Crowdfunding.sol\":6613:6666  (bool success, ) = msg.sender.call{value: amount}(\"\") */\n      pop\n      swap1\n      pop\n        /* \"contracts/Crowdfunding.sol\":6685:6692  success */\n      dup1\n        /* \"contracts/Crowdfunding.sol\":6677:6710  require(success, \"Refund failed\") */\n      tag_95\n      jumpi\n      mload(0x40)\n      0x08c379a000000000000000000000000000000000000000000000000000000000\n      dup2\n      mstore\n      0x04\n      add\n      tag_96\n      swap1\n      tag_97\n      jump\t// in\n    tag_96:\n      mload(0x40)\n      dup1\n      swap2\n      sub\n      swap1\n      revert\n    tag_95:\n        /* \"contracts/Crowdfunding.sol\":6774:6806  RefundIssued(msg.sender, amount) */\n      0xa171b6942063c6f2800ce40a780edce37baa2b618571b11eedd1e69e626e7d76\n        /* \"contracts/Crowdfunding.sol\":6787:6797  msg.sender */\n      caller\n        /* \"contracts/Crowdfunding.sol\":6799:6805  amount */\n      dup4\n        /* \"contracts/Crowdfunding.sol\":6774:6806  RefundIssued(msg.sender, amount) */\n      mload(0x40)\n      tag_98\n      swap3\n      swap2\n      swap1\n      tag_81\n      jump\t// in\n    tag_98:\n      mload(0x40)\n      dup1\n      swap2\n      sub\n      swap1\n      log1\n        /* \"contracts/Crowdfunding.sol\":5879:6814  {... */\n      pop\n      pop\n        /* \"contracts/Crowdfunding.sol\":5854:6814  function refund() public {... */\n      jump\t// out\n        /* \"contracts/Crowdfunding.sol\":663:683  address public owner */\n    tag_37:\n      0x00\n      0x00\n      swap1\n      sload\n      swap1\n      0x0100\n      exp\n      swap1\n      div\n      0xffffffffffffffffffffffffffffffffffffffff\n      and\n      dup2\n      jump\t// out\n        /* \"contracts/Crowdfunding.sol\":7350:7655  function getProgress() public view returns (uint) {... */\n    tag_42:\n        /* \"contracts/Crowdfunding.sol\":7394:7398  uint */\n      0x00\n        /* \"contracts/Crowdfunding.sol\":7643:7647  goal */\n      sload(0x01)\n        /* \"contracts/Crowdfunding.sol\":7636:7639  100 */\n      0x64\n        /* \"contracts/Crowdfunding.sol\":7622:7633  totalRaised */\n      sload(0x03)\n        /* \"contracts/Crowdfunding.sol\":7622:7639  totalRaised * 100 */\n      tag_100\n      swap2\n      swap1\n      tag_101\n      jump\t// in\n    tag_100:\n        /* \"contracts/Crowdfunding.sol\":7621:7647  (totalRaised * 100) / goal */\n      tag_102\n      swap2\n      swap1\n      tag_103\n      jump\t// in\n    tag_102:\n        /* \"contracts/Crowdfunding.sol\":7614:7647  return (totalRaised * 100) / goal */\n      swap1\n      pop\n        /* \"contracts/Crowdfunding.sol\":7350:7655  function getProgress() public view returns (uint) {... */\n      swap1\n      jump\t// out\n        /* \"contracts/Crowdfunding.sol\":1228:1251  uint public totalRaised */\n    tag_46:\n      sload(0x03)\n      dup2\n      jump\t// out\n        /* \"contracts/Crowdfunding.sol\":6999:7295  function getTimeLeft() public view returns (uint) {... */\n    tag_50:\n        /* \"contracts/Crowdfunding.sol\":7043:7047  uint */\n      0x00\n        /* \"contracts/Crowdfunding.sol\":7083:7091  deadline */\n      sload(0x02)\n        /* \"contracts/Crowdfunding.sol\":7064:7079  block.timestamp */\n      timestamp\n        /* \"contracts/Crowdfunding.sol\":7064:7091  block.timestamp >= deadline */\n      lt\n        /* \"contracts/Crowdfunding.sol\":7060:7171  if (block.timestamp >= deadline) {... */\n      tag_105\n      jumpi\n        /* \"contracts/Crowdfunding.sol\":7115:7116  0 */\n      0x00\n        /* \"contracts/Crowdfunding.sol\":7108:7116  return 0 */\n      swap1\n      pop\n      jump(tag_104)\n        /* \"contracts/Crowdfunding.sol\":7060:7171  if (block.timestamp >= deadline) {... */\n    tag_105:\n        /* \"contracts/Crowdfunding.sol\":7271:7286  block.timestamp */\n      timestamp\n        /* \"contracts/Crowdfunding.sol\":7260:7268  deadline */\n      sload(0x02)\n        /* \"contracts/Crowdfunding.sol\":7260:7286  deadline - block.timestamp */\n      tag_106\n      swap2\n      swap1\n      tag_107\n      jump\t// in\n    tag_106:\n        /* \"contracts/Crowdfunding.sol\":7253:7286  return deadline - block.timestamp */\n      swap1\n      pop\n        /* \"contracts/Crowdfunding.sol\":6999:7295  function getTimeLeft() public view returns (uint) {... */\n    tag_104:\n      swap1\n      jump\t// out\n        /* \"contracts/Crowdfunding.sol\":1367:1388  bool public withdrawn */\n    tag_54:\n      0x04\n      0x00\n      swap1\n      sload\n      swap1\n      0x0100\n      exp\n      swap1\n      div\n      0xff\n      and\n      dup2\n      jump\t// out\n        /* \"contracts/Crowdfunding.sol\":3498:4360  function contribute() public payable {... */\n    tag_58:\n        /* \"contracts/Crowdfunding.sol\":3705:3713  deadline */\n      sload(0x02)\n        /* \"contracts/Crowdfunding.sol\":3687:3702  block.timestamp */\n      timestamp\n        /* \"contracts/Crowdfunding.sol\":3687:3713  block.timestamp < deadline */\n      lt\n        /* \"contracts/Crowdfunding.sol\":3679:3732  require(block.timestamp < deadline, \"Campaign ended\") */\n      tag_109\n      jumpi\n      mload(0x40)\n      0x08c379a000000000000000000000000000000000000000000000000000000000\n      dup2\n      mstore\n      0x04\n      add\n      tag_110\n      swap1\n      tag_111\n      jump\t// in\n    tag_110:\n      mload(0x40)\n      dup1\n      swap2\n      sub\n      swap1\n      revert\n    tag_109:\n        /* \"contracts/Crowdfunding.sol\":3817:3818  0 */\n      0x00\n        /* \"contracts/Crowdfunding.sol\":3805:3814  msg.value */\n      callvalue\n        /* \"contracts/Crowdfunding.sol\":3805:3818  msg.value > 0 */\n      gt\n        /* \"contracts/Crowdfunding.sol\":3797:3836  require(msg.value > 0, \"Must send ETH\") */\n      tag_112\n      jumpi\n      mload(0x40)\n      0x08c379a000000000000000000000000000000000000000000000000000000000\n      dup2\n      mstore\n      0x04\n      add\n      tag_113\n      swap1\n      tag_114\n      jump\t// in\n    tag_113:\n      mload(0x40)\n      dup1\n      swap2\n      sub\n      swap1\n      revert\n    tag_112:\n        /* \"contracts/Crowdfunding.sol\":4066:4075  msg.value */\n      callvalue\n        /* \"contracts/Crowdfunding.sol\":4037:4050  contributions */\n      0x05\n        /* \"contracts/Crowdfunding.sol\":4037:4062  contributions[msg.sender] */\n      0x00\n        /* \"contracts/Crowdfunding.sol\":4051:4061  msg.sender */\n      caller\n        /* \"contracts/Crowdfunding.sol\":4037:4062  contributions[msg.sender] */\n      0xffffffffffffffffffffffffffffffffffffffff\n      and\n      0xffffffffffffffffffffffffffffffffffffffff\n      and\n      dup2\n      mstore\n      0x20\n      add\n      swap1\n      dup2\n      mstore\n      0x20\n      add\n      0x00\n      keccak256\n      0x00\n        /* \"contracts/Crowdfunding.sol\":4037:4075  contributions[msg.sender] += msg.value */\n      dup3\n      dup3\n      sload\n      tag_115\n      swap2\n      swap1\n      tag_116\n      jump\t// in\n    tag_115:\n      swap3\n      pop\n      pop\n      dup2\n      swap1\n      sstore\n      pop\n        /* \"contracts/Crowdfunding.sol\":4170:4179  msg.value */\n      callvalue\n        /* \"contracts/Crowdfunding.sol\":4155:4166  totalRaised */\n      0x03\n      0x00\n        /* \"contracts/Crowdfunding.sol\":4155:4179  totalRaised += msg.value */\n      dup3\n      dup3\n      sload\n      tag_117\n      swap2\n      swap1\n      tag_116\n      jump\t// in\n    tag_117:\n      swap3\n      pop\n      pop\n      dup2\n      swap1\n      sstore\n      pop\n        /* \"contracts/Crowdfunding.sol\":4309:4352  ContributionReceived(msg.sender, msg.value) */\n      0x1bb460ccaaf70fbacfec17a376f8acbd278c1405590ffcc8ebe4b88daf4f64ad\n        /* \"contracts/Crowdfunding.sol\":4330:4340  msg.sender */\n      caller\n        /* \"contracts/Crowdfunding.sol\":4342:4351  msg.value */\n      callvalue\n        /* \"contracts/Crowdfunding.sol\":4309:4352  ContributionReceived(msg.sender, msg.value) */\n      mload(0x40)\n      tag_118\n      swap3\n      swap2\n      swap1\n      tag_81\n      jump\t// in\n    tag_118:\n      mload(0x40)\n      dup1\n      swap2\n      sub\n      swap1\n      log1\n        /* \"contracts/Crowdfunding.sol\":3498:4360  function contribute() public payable {... */\n      jump\t// out\n        /* \"#utility.yul\":7:84   */\n    tag_119:\n        /* \"#utility.yul\":44:51   */\n      0x00\n        /* \"#utility.yul\":73:78   */\n      dup2\n        /* \"#utility.yul\":62:78   */\n      swap1\n      pop\n        /* \"#utility.yul\":7:84   */\n      swap2\n      swap1\n      pop\n      jump\t// out\n        /* \"#utility.yul\":90:208   */\n    tag_120:\n        /* \"#utility.yul\":177:201   */\n      tag_160\n        /* \"#utility.yul\":195:200   */\n      dup2\n        /* \"#utility.yul\":177:201   */\n      tag_119\n      jump\t// in\n    tag_160:\n        /* \"#utility.yul\":172:175   */\n      dup3\n        /* \"#utility.yul\":165:202   */\n      mstore\n        /* \"#utility.yul\":90:208   */\n      pop\n      pop\n      jump\t// out\n        /* \"#utility.yul\":214:436   */\n    tag_21:\n        /* \"#utility.yul\":307:311   */\n      0x00\n        /* \"#utility.yul\":345:347   */\n      0x20\n        /* \"#utility.yul\":334:343   */\n      dup3\n        /* \"#utility.yul\":330:348   */\n      add\n        /* \"#utility.yul\":322:348   */\n      swap1\n      pop\n        /* \"#utility.yul\":358:429   */\n      tag_162\n        /* \"#utility.yul\":426:427   */\n      0x00\n        /* \"#utility.yul\":415:424   */\n      dup4\n        /* \"#utility.yul\":411:428   */\n      add\n        /* \"#utility.yul\":402:408   */\n      dup5\n        /* \"#utility.yul\":358:429   */\n      tag_120\n      jump\t// in\n    tag_162:\n        /* \"#utility.yul\":214:436   */\n      swap3\n      swap2\n      pop\n      pop\n      jump\t// out\n        /* \"#utility.yul\":523:640   */\n    tag_122:\n        /* \"#utility.yul\":632:633   */\n      0x00\n        /* \"#utility.yul\":629:630   */\n      0x00\n        /* \"#utility.yul\":622:634   */\n      revert\n        /* \"#utility.yul\":769:895   */\n    tag_124:\n        /* \"#utility.yul\":806:813   */\n      0x00\n        /* \"#utility.yul\":846:888   */\n      0xffffffffffffffffffffffffffffffffffffffff\n        /* \"#utility.yul\":839:844   */\n      dup3\n        /* \"#utility.yul\":835:889   */\n      and\n        /* \"#utility.yul\":824:889   */\n      swap1\n      pop\n        /* \"#utility.yul\":769:895   */\n      swap2\n      swap1\n      pop\n      jump\t// out\n        /* \"#utility.yul\":901:997   */\n    tag_125:\n        /* \"#utility.yul\":938:945   */\n      0x00\n        /* \"#utility.yul\":967:991   */\n      tag_168\n        /* \"#utility.yul\":985:990   */\n      dup3\n        /* \"#utility.yul\":967:991   */\n      tag_124\n      jump\t// in\n    tag_168:\n        /* \"#utility.yul\":956:991   */\n      swap1\n      pop\n        /* \"#utility.yul\":901:997   */\n      swap2\n      swap1\n      pop\n      jump\t// out\n        /* \"#utility.yul\":1003:1125   */\n    tag_126:\n        /* \"#utility.yul\":1076:1100   */\n      tag_170\n        /* \"#utility.yul\":1094:1099   */\n      dup2\n        /* \"#utility.yul\":1076:1100   */\n      tag_125\n      jump\t// in\n    tag_170:\n        /* \"#utility.yul\":1069:1074   */\n      dup2\n        /* \"#utility.yul\":1066:1101   */\n      eq\n        /* \"#utility.yul\":1056:1119   */\n      tag_171\n      jumpi\n        /* \"#utility.yul\":1115:1116   */\n      0x00\n        /* \"#utility.yul\":1112:1113   */\n      0x00\n        /* \"#utility.yul\":1105:1117   */\n      revert\n        /* \"#utility.yul\":1056:1119   */\n    tag_171:\n        /* \"#utility.yul\":1003:1125   */\n      pop\n      jump\t// out\n        /* \"#utility.yul\":1131:1270   */\n    tag_127:\n        /* \"#utility.yul\":1177:1182   */\n      0x00\n        /* \"#utility.yul\":1215:1221   */\n      dup2\n        /* \"#utility.yul\":1202:1222   */\n      calldataload\n        /* \"#utility.yul\":1193:1222   */\n      swap1\n      pop\n        /* \"#utility.yul\":1231:1264   */\n      tag_173\n        /* \"#utility.yul\":1258:1263   */\n      dup2\n        /* \"#utility.yul\":1231:1264   */\n      tag_126\n      jump\t// in\n    tag_173:\n        /* \"#utility.yul\":1131:1270   */\n      swap3\n      swap2\n      pop\n      pop\n      jump\t// out\n        /* \"#utility.yul\":1276:1605   */\n    tag_29:\n        /* \"#utility.yul\":1335:1341   */\n      0x00\n        /* \"#utility.yul\":1384:1386   */\n      0x20\n        /* \"#utility.yul\":1372:1381   */\n      dup3\n        /* \"#utility.yul\":1363:1370   */\n      dup5\n        /* \"#utility.yul\":1359:1382   */\n      sub\n        /* \"#utility.yul\":1355:1387   */\n      slt\n        /* \"#utility.yul\":1352:1471   */\n      iszero\n      tag_175\n      jumpi\n        /* \"#utility.yul\":1390:1469   */\n      tag_176\n      tag_122\n      jump\t// in\n    tag_176:\n        /* \"#utility.yul\":1352:1471   */\n    tag_175:\n        /* \"#utility.yul\":1510:1511   */\n      0x00\n        /* \"#utility.yul\":1535:1588   */\n      tag_177\n        /* \"#utility.yul\":1580:1587   */\n      dup5\n        /* \"#utility.yul\":1571:1577   */\n      dup3\n        /* \"#utility.yul\":1560:1569   */\n      dup6\n        /* \"#utility.yul\":1556:1578   */\n      add\n        /* \"#utility.yul\":1535:1588   */\n      tag_127\n      jump\t// in\n    tag_177:\n        /* \"#utility.yul\":1525:1588   */\n      swap2\n      pop\n        /* \"#utility.yul\":1481:1598   */\n      pop\n        /* \"#utility.yul\":1276:1605   */\n      swap3\n      swap2\n      pop\n      pop\n      jump\t// out\n        /* \"#utility.yul\":1611:1729   */\n    tag_128:\n        /* \"#utility.yul\":1698:1722   */\n      tag_179\n        /* \"#utility.yul\":1716:1721   */\n      dup2\n        /* \"#utility.yul\":1698:1722   */\n      tag_125\n      jump\t// in\n    tag_179:\n        /* \"#utility.yul\":1693:1696   */\n      dup3\n        /* \"#utility.yul\":1686:1723   */\n      mstore\n        /* \"#utility.yul\":1611:1729   */\n      pop\n      pop\n      jump\t// out\n        /* \"#utility.yul\":1735:1957   */\n    tag_39:\n        /* \"#utility.yul\":1828:1832   */\n      0x00\n        /* \"#utility.yul\":1866:1868   */\n      0x20\n        /* \"#utility.yul\":1855:1864   */\n      dup3\n        /* \"#utility.yul\":1851:1869   */\n      add\n        /* \"#utility.yul\":1843:1869   */\n      swap1\n      pop\n        /* \"#utility.yul\":1879:1950   */\n      tag_181\n        /* \"#utility.yul\":1947:1948   */\n      0x00\n        /* \"#utility.yul\":1936:1945   */\n      dup4\n        /* \"#utility.yul\":1932:1949   */\n      add\n        /* \"#utility.yul\":1923:1929   */\n      dup5\n        /* \"#utility.yul\":1879:1950   */\n      tag_128\n      jump\t// in\n    tag_181:\n        /* \"#utility.yul\":1735:1957   */\n      swap3\n      swap2\n      pop\n      pop\n      jump\t// out\n        /* \"#utility.yul\":1963:2053   */\n    tag_129:\n        /* \"#utility.yul\":1997:2004   */\n      0x00\n        /* \"#utility.yul\":2040:2045   */\n      dup2\n        /* \"#utility.yul\":2033:2046   */\n      iszero\n        /* \"#utility.yul\":2026:2047   */\n      iszero\n        /* \"#utility.yul\":2015:2047   */\n      swap1\n      pop\n        /* \"#utility.yul\":1963:2053   */\n      swap2\n      swap1\n      pop\n      jump\t// out\n        /* \"#utility.yul\":2059:2168   */\n    tag_130:\n        /* \"#utility.yul\":2140:2161   */\n      tag_184\n        /* \"#utility.yul\":2155:2160   */\n      dup2\n        /* \"#utility.yul\":2140:2161   */\n      tag_129\n      jump\t// in\n    tag_184:\n        /* \"#utility.yul\":2135:2138   */\n      dup3\n        /* \"#utility.yul\":2128:2162   */\n      mstore\n        /* \"#utility.yul\":2059:2168   */\n      pop\n      pop\n      jump\t// out\n        /* \"#utility.yul\":2174:2384   */\n    tag_56:\n        /* \"#utility.yul\":2261:2265   */\n      0x00\n        /* \"#utility.yul\":2299:2301   */\n      0x20\n        /* \"#utility.yul\":2288:2297   */\n      dup3\n        /* \"#utility.yul\":2284:2302   */\n      add\n        /* \"#utility.yul\":2276:2302   */\n      swap1\n      pop\n        /* \"#utility.yul\":2312:2377   */\n      tag_186\n        /* \"#utility.yul\":2374:2375   */\n      0x00\n        /* \"#utility.yul\":2363:2372   */\n      dup4\n        /* \"#utility.yul\":2359:2376   */\n      add\n        /* \"#utility.yul\":2350:2356   */\n      dup5\n        /* \"#utility.yul\":2312:2377   */\n      tag_130\n      jump\t// in\n    tag_186:\n        /* \"#utility.yul\":2174:2384   */\n      swap3\n      swap2\n      pop\n      pop\n      jump\t// out\n        /* \"#utility.yul\":2390:2559   */\n    tag_131:\n        /* \"#utility.yul\":2474:2485   */\n      0x00\n        /* \"#utility.yul\":2508:2514   */\n      dup3\n        /* \"#utility.yul\":2503:2506   */\n      dup3\n        /* \"#utility.yul\":2496:2515   */\n      mstore\n        /* \"#utility.yul\":2548:2552   */\n      0x20\n        /* \"#utility.yul\":2543:2546   */\n      dup3\n        /* \"#utility.yul\":2539:2553   */\n      add\n        /* \"#utility.yul\":2524:2553   */\n      swap1\n      pop\n        /* \"#utility.yul\":2390:2559   */\n      swap3\n      swap2\n      pop\n      pop\n      jump\t// out\n        /* \"#utility.yul\":2565:2725   */\n    tag_132:\n        /* \"#utility.yul\":2705:2717   */\n      0x4f6e6c79206f776e657200000000000000000000000000000000000000000000\n        /* \"#utility.yul\":2701:2702   */\n      0x00\n        /* \"#utility.yul\":2693:2699   */\n      dup3\n        /* \"#utility.yul\":2689:2703   */\n      add\n        /* \"#utility.yul\":2682:2718   */\n      mstore\n        /* \"#utility.yul\":2565:2725   */\n      pop\n      jump\t// out\n        /* \"#utility.yul\":2731:3097   */\n    tag_133:\n        /* \"#utility.yul\":2873:2876   */\n      0x00\n        /* \"#utility.yul\":2894:2961   */\n      tag_190\n        /* \"#utility.yul\":2958:2960   */\n      0x0a\n        /* \"#utility.yul\":2953:2956   */\n      dup4\n        /* \"#utility.yul\":2894:2961   */\n      tag_131\n      jump\t// in\n    tag_190:\n        /* \"#utility.yul\":2887:2961   */\n      swap2\n      pop\n        /* \"#utility.yul\":2970:3063   */\n      tag_191\n        /* \"#utility.yul\":3059:3062   */\n      dup3\n        /* \"#utility.yul\":2970:3063   */\n      tag_132\n      jump\t// in\n    tag_191:\n        /* \"#utility.yul\":3088:3090   */\n      0x20\n        /* \"#utility.yul\":3083:3086   */\n      dup3\n        /* \"#utility.yul\":3079:3091   */\n      add\n        /* \"#utility.yul\":3072:3091   */\n      swap1\n      pop\n        /* \"#utility.yul\":2731:3097   */\n      swap2\n      swap1\n      pop\n      jump\t// out\n        /* \"#utility.yul\":3103:3522   */\n    tag_62:\n        /* \"#utility.yul\":3269:3273   */\n      0x00\n        /* \"#utility.yul\":3307:3309   */\n      0x20\n        /* \"#utility.yul\":3296:3305   */\n      dup3\n        /* \"#utility.yul\":3292:3310   */\n      add\n        /* \"#utility.yul\":3284:3310   */\n      swap1\n      pop\n        /* \"#utility.yul\":3356:3365   */\n      dup2\n        /* \"#utility.yul\":3350:3354   */\n      dup2\n        /* \"#utility.yul\":3346:3366   */\n      sub\n        /* \"#utility.yul\":3342:3343   */\n      0x00\n        /* \"#utility.yul\":3331:3340   */\n      dup4\n        /* \"#utility.yul\":3327:3344   */\n      add\n        /* \"#utility.yul\":3320:3367   */\n      mstore\n        /* \"#utility.yul\":3384:3515   */\n      tag_193\n        /* \"#utility.yul\":3510:3514   */\n      dup2\n        /* \"#utility.yul\":3384:3515   */\n      tag_133\n      jump\t// in\n    tag_193:\n        /* \"#utility.yul\":3376:3515   */\n      swap1\n      pop\n        /* \"#utility.yul\":3103:3522   */\n      swap2\n      swap1\n      pop\n      jump\t// out\n        /* \"#utility.yul\":3528:3687   */\n    tag_134:\n        /* \"#utility.yul\":3668:3679   */\n      0x4e6f7420656e6465640000000000000000000000000000000000000000000000\n        /* \"#utility.yul\":3664:3665   */\n      0x00\n        /* \"#utility.yul\":3656:3662   */\n      dup3\n        /* \"#utility.yul\":3652:3666   */\n      add\n        /* \"#utility.yul\":3645:3680   */\n      mstore\n        /* \"#utility.yul\":3528:3687   */\n      pop\n      jump\t// out\n        /* \"#utility.yul\":3693:4058   */\n    tag_135:\n        /* \"#utility.yul\":3835:3838   */\n      0x00\n        /* \"#utility.yul\":3856:3922   */\n      tag_196\n        /* \"#utility.yul\":3920:3921   */\n      0x09\n        /* \"#utility.yul\":3915:3918   */\n      dup4\n        /* \"#utility.yul\":3856:3922   */\n      tag_131\n      jump\t// in\n    tag_196:\n        /* \"#utility.yul\":3849:3922   */\n      swap2\n      pop\n        /* \"#utility.yul\":3931:4024   */\n      tag_197\n        /* \"#utility.yul\":4020:4023   */\n      dup3\n        /* \"#utility.yul\":3931:4024   */\n      tag_134\n      jump\t// in\n    tag_197:\n        /* \"#utility.yul\":4049:4051   */\n      0x20\n        /* \"#utility.yul\":4044:4047   */\n      dup3\n        /* \"#utility.yul\":4040:4052   */\n      add\n        /* \"#utility.yul\":4033:4052   */\n      swap1\n      pop\n        /* \"#utility.yul\":3693:4058   */\n      swap2\n      swap1\n      pop\n      jump\t// out\n        /* \"#utility.yul\":4064:4483   */\n    tag_65:\n        /* \"#utility.yul\":4230:4234   */\n      0x00\n        /* \"#utility.yul\":4268:4270   */\n      0x20\n        /* \"#utility.yul\":4257:4266   */\n      dup3\n        /* \"#utility.yul\":4253:4271   */\n      add\n        /* \"#utility.yul\":4245:4271   */\n      swap1\n      pop\n        /* \"#utility.yul\":4317:4326   */\n      dup2\n        /* \"#utility.yul\":4311:4315   */\n      dup2\n        /* \"#utility.yul\":4307:4327   */\n      sub\n        /* \"#utility.yul\":4303:4304   */\n      0x00\n        /* \"#utility.yul\":4292:4301   */\n      dup4\n        /* \"#utility.yul\":4288:4305   */\n      add\n        /* \"#utility.yul\":4281:4328   */\n      mstore\n        /* \"#utility.yul\":4345:4476   */\n      tag_199\n        /* \"#utility.yul\":4471:4475   */\n      dup2\n        /* \"#utility.yul\":4345:4476   */\n      tag_135\n      jump\t// in\n    tag_199:\n        /* \"#utility.yul\":4337:4476   */\n      swap1\n      pop\n        /* \"#utility.yul\":4064:4483   */\n      swap2\n      swap1\n      pop\n      jump\t// out\n        /* \"#utility.yul\":4489:4651   */\n    tag_136:\n        /* \"#utility.yul\":4629:4643   */\n      0x476f616c206e6f74206d65740000000000000000000000000000000000000000\n        /* \"#utility.yul\":4625:4626   */\n      0x00\n        /* \"#utility.yul\":4617:4623   */\n      dup3\n        /* \"#utility.yul\":4613:4627   */\n      add\n        /* \"#utility.yul\":4606:4644   */\n      mstore\n        /* \"#utility.yul\":4489:4651   */\n      pop\n      jump\t// out\n        /* \"#utility.yul\":4657:5023   */\n    tag_137:\n        /* \"#utility.yul\":4799:4802   */\n      0x00\n        /* \"#utility.yul\":4820:4887   */\n      tag_202\n        /* \"#utility.yul\":4884:4886   */\n      0x0c\n        /* \"#utility.yul\":4879:4882   */\n      dup4\n        /* \"#utility.yul\":4820:4887   */\n      tag_131\n      jump\t// in\n    tag_202:\n        /* \"#utility.yul\":4813:4887   */\n      swap2\n      pop\n        /* \"#utility.yul\":4896:4989   */\n      tag_203\n        /* \"#utility.yul\":4985:4988   */\n      dup3\n        /* \"#utility.yul\":4896:4989   */\n      tag_136\n      jump\t// in\n    tag_203:\n        /* \"#utility.yul\":5014:5016   */\n      0x20\n        /* \"#utility.yul\":5009:5012   */\n      dup3\n        /* \"#utility.yul\":5005:5017   */\n      add\n        /* \"#utility.yul\":4998:5017   */\n      swap1\n      pop\n        /* \"#utility.yul\":4657:5023   */\n      swap2\n      swap1\n      pop\n      jump\t// out\n        /* \"#utility.yul\":5029:5448   */\n    tag_68:\n        /* \"#utility.yul\":5195:5199   */\n      0x00\n        /* \"#utility.yul\":5233:5235   */\n      0x20\n        /* \"#utility.yul\":5222:5231   */\n      dup3\n        /* \"#utility.yul\":5218:5236   */\n      add\n        /* \"#utility.yul\":5210:5236   */\n      swap1\n      pop\n        /* \"#utility.yul\":5282:5291   */\n      dup2\n        /* \"#utility.yul\":5276:5280   */\n      dup2\n        /* \"#utility.yul\":5272:5292   */\n      sub\n        /* \"#utility.yul\":5268:5269   */\n      0x00\n        /* \"#utility.yul\":5257:5266   */\n      dup4\n        /* \"#utility.yul\":5253:5270   */\n      add\n        /* \"#utility.yul\":5246:5293   */\n      mstore\n        /* \"#utility.yul\":5310:5441   */\n      tag_205\n        /* \"#utility.yul\":5436:5440   */\n      dup2\n        /* \"#utility.yul\":5310:5441   */\n      tag_137\n      jump\t// in\n    tag_205:\n        /* \"#utility.yul\":5302:5441   */\n      swap1\n      pop\n        /* \"#utility.yul\":5029:5448   */\n      swap2\n      swap1\n      pop\n      jump\t// out\n        /* \"#utility.yul\":5454:5621   */\n    tag_138:\n        /* \"#utility.yul\":5594:5613   */\n      0x416c72656164792077697468647261776e000000000000000000000000000000\n        /* \"#utility.yul\":5590:5591   */\n      0x00\n        /* \"#utility.yul\":5582:5588   */\n      dup3\n        /* \"#utility.yul\":5578:5592   */\n      add\n        /* \"#utility.yul\":5571:5614   */\n      mstore\n        /* \"#utility.yul\":5454:5621   */\n      pop\n      jump\t// out\n        /* \"#utility.yul\":5627:5993   */\n    tag_139:\n        /* \"#utility.yul\":5769:5772   */\n      0x00\n        /* \"#utility.yul\":5790:5857   */\n      tag_208\n        /* \"#utility.yul\":5854:5856   */\n      0x11\n        /* \"#utility.yul\":5849:5852   */\n      dup4\n        /* \"#utility.yul\":5790:5857   */\n      tag_131\n      jump\t// in\n    tag_208:\n        /* \"#utility.yul\":5783:5857   */\n      swap2\n      pop\n        /* \"#utility.yul\":5866:5959   */\n      tag_209\n        /* \"#utility.yul\":5955:5958   */\n      dup3\n        /* \"#utility.yul\":5866:5959   */\n      tag_138\n      jump\t// in\n    tag_209:\n        /* \"#utility.yul\":5984:5986   */\n      0x20\n        /* \"#utility.yul\":5979:5982   */\n      dup3\n        /* \"#utility.yul\":5975:5987   */\n      add\n        /* \"#utility.yul\":5968:5987   */\n      swap1\n      pop\n        /* \"#utility.yul\":5627:5993   */\n      swap2\n      swap1\n      pop\n      jump\t// out\n        /* \"#utility.yul\":5999:6418   */\n    tag_71:\n        /* \"#utility.yul\":6165:6169   */\n      0x00\n        /* \"#utility.yul\":6203:6205   */\n      0x20\n        /* \"#utility.yul\":6192:6201   */\n      dup3\n        /* \"#utility.yul\":6188:6206   */\n      add\n        /* \"#utility.yul\":6180:6206   */\n      swap1\n      pop\n        /* \"#utility.yul\":6252:6261   */\n      dup2\n        /* \"#utility.yul\":6246:6250   */\n      dup2\n        /* \"#utility.yul\":6242:6262   */\n      sub\n        /* \"#utility.yul\":6238:6239   */\n      0x00\n        /* \"#utility.yul\":6227:6236   */\n      dup4\n        /* \"#utility.yul\":6223:6240   */\n      add\n        /* \"#utility.yul\":6216:6263   */\n      mstore\n        /* \"#utility.yul\":6280:6411   */\n      tag_211\n        /* \"#utility.yul\":6406:6410   */\n      dup2\n        /* \"#utility.yul\":6280:6411   */\n      tag_139\n      jump\t// in\n    tag_211:\n        /* \"#utility.yul\":6272:6411   */\n      swap1\n      pop\n        /* \"#utility.yul\":5999:6418   */\n      swap2\n      swap1\n      pop\n      jump\t// out\n        /* \"#utility.yul\":6424:6571   */\n    tag_140:\n        /* \"#utility.yul\":6525:6536   */\n      0x00\n        /* \"#utility.yul\":6562:6565   */\n      dup2\n        /* \"#utility.yul\":6547:6565   */\n      swap1\n      pop\n        /* \"#utility.yul\":6424:6571   */\n      swap3\n      swap2\n      pop\n      pop\n      jump\t// out\n        /* \"#utility.yul\":6577:6691   */\n    tag_141:\n      pop\n      jump\t// out\n        /* \"#utility.yul\":6697:7095   */\n    tag_142:\n        /* \"#utility.yul\":6856:6859   */\n      0x00\n        /* \"#utility.yul\":6877:6960   */\n      tag_215\n        /* \"#utility.yul\":6958:6959   */\n      0x00\n        /* \"#utility.yul\":6953:6956   */\n      dup4\n        /* \"#utility.yul\":6877:6960   */\n      tag_140\n      jump\t// in\n    tag_215:\n        /* \"#utility.yul\":6870:6960   */\n      swap2\n      pop\n        /* \"#utility.yul\":6969:7062   */\n      tag_216\n        /* \"#utility.yul\":7058:7061   */\n      dup3\n        /* \"#utility.yul\":6969:7062   */\n      tag_141\n      jump\t// in\n    tag_216:\n        /* \"#utility.yul\":7087:7088   */\n      0x00\n        /* \"#utility.yul\":7082:7085   */\n      dup3\n        /* \"#utility.yul\":7078:7089   */\n      add\n        /* \"#utility.yul\":7071:7089   */\n      swap1\n      pop\n        /* \"#utility.yul\":6697:7095   */\n      swap2\n      swap1\n      pop\n      jump\t// out\n        /* \"#utility.yul\":7101:7480   */\n    tag_73:\n        /* \"#utility.yul\":7285:7288   */\n      0x00\n        /* \"#utility.yul\":7307:7454   */\n      tag_218\n        /* \"#utility.yul\":7450:7453   */\n      dup3\n        /* \"#utility.yul\":7307:7454   */\n      tag_142\n      jump\t// in\n    tag_218:\n        /* \"#utility.yul\":7300:7454   */\n      swap2\n      pop\n        /* \"#utility.yul\":7471:7474   */\n      dup2\n        /* \"#utility.yul\":7464:7474   */\n      swap1\n      pop\n        /* \"#utility.yul\":7101:7480   */\n      swap2\n      swap1\n      pop\n      jump\t// out\n        /* \"#utility.yul\":7486:7651   */\n    tag_143:\n        /* \"#utility.yul\":7626:7643   */\n      0x5472616e73666572206661696c65640000000000000000000000000000000000\n        /* \"#utility.yul\":7622:7623   */\n      0x00\n        /* \"#utility.yul\":7614:7620   */\n      dup3\n        /* \"#utility.yul\":7610:7624   */\n      add\n        /* \"#utility.yul\":7603:7644   */\n      mstore\n        /* \"#utility.yul\":7486:7651   */\n      pop\n      jump\t// out\n        /* \"#utility.yul\":7657:8023   */\n    tag_144:\n        /* \"#utility.yul\":7799:7802   */\n      0x00\n        /* \"#utility.yul\":7820:7887   */\n      tag_221\n        /* \"#utility.yul\":7884:7886   */\n      0x0f\n        /* \"#utility.yul\":7879:7882   */\n      dup4\n        /* \"#utility.yul\":7820:7887   */\n      tag_131\n      jump\t// in\n    tag_221:\n        /* \"#utility.yul\":7813:7887   */\n      swap2\n      pop\n        /* \"#utility.yul\":7896:7989   */\n      tag_222\n        /* \"#utility.yul\":7985:7988   */\n      dup3\n        /* \"#utility.yul\":7896:7989   */\n      tag_143\n      jump\t// in\n    tag_222:\n        /* \"#utility.yul\":8014:8016   */\n      0x20\n        /* \"#utility.yul\":8009:8012   */\n      dup3\n        /* \"#utility.yul\":8005:8017   */\n      add\n        /* \"#utility.yul\":7998:8017   */\n      swap1\n      pop\n        /* \"#utility.yul\":7657:8023   */\n      swap2\n      swap1\n      pop\n      jump\t// out\n        /* \"#utility.yul\":8029:8448   */\n    tag_79:\n        /* \"#utility.yul\":8195:8199   */\n      0x00\n        /* \"#utility.yul\":8233:8235   */\n      0x20\n        /* \"#utility.yul\":8222:8231   */\n      dup3\n        /* \"#utility.yul\":8218:8236   */\n      add\n        /* \"#utility.yul\":8210:8236   */\n      swap1\n      pop\n        /* \"#utility.yul\":8282:8291   */\n      dup2\n        /* \"#utility.yul\":8276:8280   */\n      dup2\n        /* \"#utility.yul\":8272:8292   */\n      sub\n        /* \"#utility.yul\":8268:8269   */\n      0x00\n        /* \"#utility.yul\":8257:8266   */\n      dup4\n        /* \"#utility.yul\":8253:8270   */\n      add\n        /* \"#utility.yul\":8246:8293   */\n      mstore\n        /* \"#utility.yul\":8310:8441   */\n      tag_224\n        /* \"#utility.yul\":8436:8440   */\n      dup2\n        /* \"#utility.yul\":8310:8441   */\n      tag_144\n      jump\t// in\n    tag_224:\n        /* \"#utility.yul\":8302:8441   */\n      swap1\n      pop\n        /* \"#utility.yul\":8029:8448   */\n      swap2\n      swap1\n      pop\n      jump\t// out\n        /* \"#utility.yul\":8454:8786   */\n    tag_81:\n        /* \"#utility.yul\":8575:8579   */\n      0x00\n        /* \"#utility.yul\":8613:8615   */\n      0x40\n        /* \"#utility.yul\":8602:8611   */\n      dup3\n        /* \"#utility.yul\":8598:8616   */\n      add\n        /* \"#utility.yul\":8590:8616   */\n      swap1\n      pop\n        /* \"#utility.yul\":8626:8697   */\n      tag_226\n        /* \"#utility.yul\":8694:8695   */\n      0x00\n        /* \"#utility.yul\":8683:8692   */\n      dup4\n        /* \"#utility.yul\":8679:8696   */\n      add\n        /* \"#utility.yul\":8670:8676   */\n      dup6\n        /* \"#utility.yul\":8626:8697   */\n      tag_128\n      jump\t// in\n    tag_226:\n        /* \"#utility.yul\":8707:8779   */\n      tag_227\n        /* \"#utility.yul\":8775:8777   */\n      0x20\n        /* \"#utility.yul\":8764:8773   */\n      dup4\n        /* \"#utility.yul\":8760:8778   */\n      add\n        /* \"#utility.yul\":8751:8757   */\n      dup5\n        /* \"#utility.yul\":8707:8779   */\n      tag_120\n      jump\t// in\n    tag_227:\n        /* \"#utility.yul\":8454:8786   */\n      swap4\n      swap3\n      pop\n      pop\n      pop\n      jump\t// out\n        /* \"#utility.yul\":8792:8954   */\n    tag_145:\n        /* \"#utility.yul\":8932:8946   */\n      0x476f616c20776173206d65740000000000000000000000000000000000000000\n        /* \"#utility.yul\":8928:8929   */\n      0x00\n        /* \"#utility.yul\":8920:8926   */\n      dup3\n        /* \"#utility.yul\":8916:8930   */\n      add\n        /* \"#utility.yul\":8909:8947   */\n      mstore\n        /* \"#utility.yul\":8792:8954   */\n      pop\n      jump\t// out\n        /* \"#utility.yul\":8960:9326   */\n    tag_146:\n        /* \"#utility.yul\":9102:9105   */\n      0x00\n        /* \"#utility.yul\":9123:9190   */\n      tag_230\n        /* \"#utility.yul\":9187:9189   */\n      0x0c\n        /* \"#utility.yul\":9182:9185   */\n      dup4\n        /* \"#utility.yul\":9123:9190   */\n      tag_131\n      jump\t// in\n    tag_230:\n        /* \"#utility.yul\":9116:9190   */\n      swap2\n      pop\n        /* \"#utility.yul\":9199:9292   */\n      tag_231\n        /* \"#utility.yul\":9288:9291   */\n      dup3\n        /* \"#utility.yul\":9199:9292   */\n      tag_145\n      jump\t// in\n    tag_231:\n        /* \"#utility.yul\":9317:9319   */\n      0x20\n        /* \"#utility.yul\":9312:9315   */\n      dup3\n        /* \"#utility.yul\":9308:9320   */\n      add\n        /* \"#utility.yul\":9301:9320   */\n      swap1\n      pop\n        /* \"#utility.yul\":8960:9326   */\n      swap2\n      swap1\n      pop\n      jump\t// out\n        /* \"#utility.yul\":9332:9751   */\n    tag_87:\n        /* \"#utility.yul\":9498:9502   */\n      0x00\n        /* \"#utility.yul\":9536:9538   */\n      0x20\n        /* \"#utility.yul\":9525:9534   */\n      dup3\n        /* \"#utility.yul\":9521:9539   */\n      add\n        /* \"#utility.yul\":9513:9539   */\n      swap1\n      pop\n        /* \"#utility.yul\":9585:9594   */\n      dup2\n        /* \"#utility.yul\":9579:9583   */\n      dup2\n        /* \"#utility.yul\":9575:9595   */\n      sub\n        /* \"#utility.yul\":9571:9572   */\n      0x00\n        /* \"#utility.yul\":9560:9569   */\n      dup4\n        /* \"#utility.yul\":9556:9573   */\n      add\n        /* \"#utility.yul\":9549:9596   */\n      mstore\n        /* \"#utility.yul\":9613:9744   */\n      tag_233\n        /* \"#utility.yul\":9739:9743   */\n      dup2\n        /* \"#utility.yul\":9613:9744   */\n      tag_146\n      jump\t// in\n    tag_233:\n        /* \"#utility.yul\":9605:9744   */\n      swap1\n      pop\n        /* \"#utility.yul\":9332:9751   */\n      swap2\n      swap1\n      pop\n      jump\t// out\n        /* \"#utility.yul\":9757:9922   */\n    tag_147:\n        /* \"#utility.yul\":9897:9914   */\n      0x4e6f20636f6e747269627574696f6e0000000000000000000000000000000000\n        /* \"#utility.yul\":9893:9894   */\n      0x00\n        /* \"#utility.yul\":9885:9891   */\n      dup3\n        /* \"#utility.yul\":9881:9895   */\n      add\n        /* \"#utility.yul\":9874:9915   */\n      mstore\n        /* \"#utility.yul\":9757:9922   */\n      pop\n      jump\t// out\n        /* \"#utility.yul\":9928:10294   */\n    tag_148:\n        /* \"#utility.yul\":10070:10073   */\n      0x00\n        /* \"#utility.yul\":10091:10158   */\n      tag_236\n        /* \"#utility.yul\":10155:10157   */\n      0x0f\n        /* \"#utility.yul\":10150:10153   */\n      dup4\n        /* \"#utility.yul\":10091:10158   */\n      tag_131\n      jump\t// in\n    tag_236:\n        /* \"#utility.yul\":10084:10158   */\n      swap2\n      pop\n        /* \"#utility.yul\":10167:10260   */\n      tag_237\n        /* \"#utility.yul\":10256:10259   */\n      dup3\n        /* \"#utility.yul\":10167:10260   */\n      tag_147\n      jump\t// in\n    tag_237:\n        /* \"#utility.yul\":10285:10287   */\n      0x20\n        /* \"#utility.yul\":10280:10283   */\n      dup3\n        /* \"#utility.yul\":10276:10288   */\n      add\n        /* \"#utility.yul\":10269:10288   */\n      swap1\n      pop\n        /* \"#utility.yul\":9928:10294   */\n      swap2\n      swap1\n      pop\n      jump\t// out\n        /* \"#utility.yul\":10300:10719   */\n    tag_90:\n        /* \"#utility.yul\":10466:10470   */\n      0x00\n        /* \"#utility.yul\":10504:10506   */\n      0x20\n        /* \"#utility.yul\":10493:10502   */\n      dup3\n        /* \"#utility.yul\":10489:10507   */\n      add\n        /* \"#utility.yul\":10481:10507   */\n      swap1\n      pop\n        /* \"#utility.yul\":10553:10562   */\n      dup2\n        /* \"#utility.yul\":10547:10551   */\n      dup2\n        /* \"#utility.yul\":10543:10563   */\n      sub\n        /* \"#utility.yul\":10539:10540   */\n      0x00\n        /* \"#utility.yul\":10528:10537   */\n      dup4\n        /* \"#utility.yul\":10524:10541   */\n      add\n        /* \"#utility.yul\":10517:10564   */\n      mstore\n        /* \"#utility.yul\":10581:10712   */\n      tag_239\n        /* \"#utility.yul\":10707:10711   */\n      dup2\n        /* \"#utility.yul\":10581:10712   */\n      tag_148\n      jump\t// in\n    tag_239:\n        /* \"#utility.yul\":10573:10712   */\n      swap1\n      pop\n        /* \"#utility.yul\":10300:10719   */\n      swap2\n      swap1\n      pop\n      jump\t// out\n        /* \"#utility.yul\":10725:10888   */\n    tag_149:\n        /* \"#utility.yul\":10865:10880   */\n      0x526566756e64206661696c656400000000000000000000000000000000000000\n        /* \"#utility.yul\":10861:10862   */\n      0x00\n        /* \"#utility.yul\":10853:10859   */\n      dup3\n        /* \"#utility.yul\":10849:10863   */\n      add\n        /* \"#utility.yul\":10842:10881   */\n      mstore\n        /* \"#utility.yul\":10725:10888   */\n      pop\n      jump\t// out\n        /* \"#utility.yul\":10894:11260   */\n    tag_150:\n        /* \"#utility.yul\":11036:11039   */\n      0x00\n        /* \"#utility.yul\":11057:11124   */\n      tag_242\n        /* \"#utility.yul\":11121:11123   */\n      0x0d\n        /* \"#utility.yul\":11116:11119   */\n      dup4\n        /* \"#utility.yul\":11057:11124   */\n      tag_131\n      jump\t// in\n    tag_242:\n        /* \"#utility.yul\":11050:11124   */\n      swap2\n      pop\n        /* \"#utility.yul\":11133:11226   */\n      tag_243\n        /* \"#utility.yul\":11222:11225   */\n      dup3\n        /* \"#utility.yul\":11133:11226   */\n      tag_149\n      jump\t// in\n    tag_243:\n        /* \"#utility.yul\":11251:11253   */\n      0x20\n        /* \"#utility.yul\":11246:11249   */\n      dup3\n        /* \"#utility.yul\":11242:11254   */\n      add\n        /* \"#utility.yul\":11235:11254   */\n      swap1\n      pop\n        /* \"#utility.yul\":10894:11260   */\n      swap2\n      swap1\n      pop\n      jump\t// out\n        /* \"#utility.yul\":11266:11685   */\n    tag_97:\n        /* \"#utility.yul\":11432:11436   */\n      0x00\n        /* \"#utility.yul\":11470:11472   */\n      0x20\n        /* \"#utility.yul\":11459:11468   */\n      dup3\n        /* \"#utility.yul\":11455:11473   */\n      add\n        /* \"#utility.yul\":11447:11473   */\n      swap1\n      pop\n        /* \"#utility.yul\":11519:11528   */\n      dup2\n        /* \"#utility.yul\":11513:11517   */\n      dup2\n        /* \"#utility.yul\":11509:11529   */\n      sub\n        /* \"#utility.yul\":11505:11506   */\n      0x00\n        /* \"#utility.yul\":11494:11503   */\n      dup4\n        /* \"#utility.yul\":11490:11507   */\n      add\n        /* \"#utility.yul\":11483:11530   */\n      mstore\n        /* \"#utility.yul\":11547:11678   */\n      tag_245\n        /* \"#utility.yul\":11673:11677   */\n      dup2\n        /* \"#utility.yul\":11547:11678   */\n      tag_150\n      jump\t// in\n    tag_245:\n        /* \"#utility.yul\":11539:11678   */\n      swap1\n      pop\n        /* \"#utility.yul\":11266:11685   */\n      swap2\n      swap1\n      pop\n      jump\t// out\n        /* \"#utility.yul\":11691:11871   */\n    tag_151:\n        /* \"#utility.yul\":11739:11816   */\n      0x4e487b7100000000000000000000000000000000000000000000000000000000\n        /* \"#utility.yul\":11736:11737   */\n      0x00\n        /* \"#utility.yul\":11729:11817   */\n      mstore\n        /* \"#utility.yul\":11836:11840   */\n      0x11\n        /* \"#utility.yul\":11833:11834   */\n      0x04\n        /* \"#utility.yul\":11826:11841   */\n      mstore\n        /* \"#utility.yul\":11860:11864   */\n      0x24\n        /* \"#utility.yul\":11857:11858   */\n      0x00\n        /* \"#utility.yul\":11850:11865   */\n      revert\n        /* \"#utility.yul\":11877:12287   */\n    tag_101:\n        /* \"#utility.yul\":11917:11924   */\n      0x00\n        /* \"#utility.yul\":11940:11960   */\n      tag_248\n        /* \"#utility.yul\":11958:11959   */\n      dup3\n        /* \"#utility.yul\":11940:11960   */\n      tag_119\n      jump\t// in\n    tag_248:\n        /* \"#utility.yul\":11935:11960   */\n      swap2\n      pop\n        /* \"#utility.yul\":11974:11994   */\n      tag_249\n        /* \"#utility.yul\":11992:11993   */\n      dup4\n        /* \"#utility.yul\":11974:11994   */\n      tag_119\n      jump\t// in\n    tag_249:\n        /* \"#utility.yul\":11969:11994   */\n      swap3\n      pop\n        /* \"#utility.yul\":12029:12030   */\n      dup3\n        /* \"#utility.yul\":12026:12027   */\n      dup3\n        /* \"#utility.yul\":12022:12031   */\n      mul\n        /* \"#utility.yul\":12051:12081   */\n      tag_250\n        /* \"#utility.yul\":12069:12080   */\n      dup2\n        /* \"#utility.yul\":12051:12081   */\n      tag_119\n      jump\t// in\n    tag_250:\n        /* \"#utility.yul\":12040:12081   */\n      swap2\n      pop\n        /* \"#utility.yul\":12230:12231   */\n      dup3\n        /* \"#utility.yul\":12221:12228   */\n      dup3\n        /* \"#utility.yul\":12217:12232   */\n      div\n        /* \"#utility.yul\":12214:12215   */\n      dup5\n        /* \"#utility.yul\":12211:12233   */\n      eq\n        /* \"#utility.yul\":12191:12192   */\n      dup4\n        /* \"#utility.yul\":12184:12193   */\n      iszero\n        /* \"#utility.yul\":12164:12247   */\n      or\n        /* \"#utility.yul\":12141:12280   */\n      tag_251\n      jumpi\n        /* \"#utility.yul\":12260:12278   */\n      tag_252\n      tag_151\n      jump\t// in\n    tag_252:\n        /* \"#utility.yul\":12141:12280   */\n    tag_251:\n        /* \"#utility.yul\":11925:12287   */\n      pop\n        /* \"#utility.yul\":11877:12287   */\n      swap3\n      swap2\n      pop\n      pop\n      jump\t// out\n        /* \"#utility.yul\":12293:12473   */\n    tag_152:\n        /* \"#utility.yul\":12341:12418   */\n      0x4e487b7100000000000000000000000000000000000000000000000000000000\n        /* \"#utility.yul\":12338:12339   */\n      0x00\n        /* \"#utility.yul\":12331:12419   */\n      mstore\n        /* \"#utility.yul\":12438:12442   */\n      0x12\n        /* \"#utility.yul\":12435:12436   */\n      0x04\n        /* \"#utility.yul\":12428:12443   */\n      mstore\n        /* \"#utility.yul\":12462:12466   */\n      0x24\n        /* \"#utility.yul\":12459:12460   */\n      0x00\n        /* \"#utility.yul\":12452:12467   */\n      revert\n        /* \"#utility.yul\":12479:12664   */\n    tag_103:\n        /* \"#utility.yul\":12519:12520   */\n      0x00\n        /* \"#utility.yul\":12536:12556   */\n      tag_255\n        /* \"#utility.yul\":12554:12555   */\n      dup3\n        /* \"#utility.yul\":12536:12556   */\n      tag_119\n      jump\t// in\n    tag_255:\n        /* \"#utility.yul\":12531:12556   */\n      swap2\n      pop\n        /* \"#utility.yul\":12570:12590   */\n      tag_256\n        /* \"#utility.yul\":12588:12589   */\n      dup4\n        /* \"#utility.yul\":12570:12590   */\n      tag_119\n      jump\t// in\n    tag_256:\n        /* \"#utility.yul\":12565:12590   */\n      swap3\n      pop\n        /* \"#utility.yul\":12609:12610   */\n      dup3\n        /* \"#utility.yul\":12599:12634   */\n      tag_257\n      jumpi\n        /* \"#utility.yul\":12614:12632   */\n      tag_258\n      tag_152\n      jump\t// in\n    tag_258:\n        /* \"#utility.yul\":12599:12634   */\n    tag_257:\n        /* \"#utility.yul\":12656:12657   */\n      dup3\n        /* \"#utility.yul\":12653:12654   */\n      dup3\n        /* \"#utility.yul\":12649:12658   */\n      div\n        /* \"#utility.yul\":12644:12658   */\n      swap1\n      pop\n        /* \"#utility.yul\":12479:12664   */\n      swap3\n      swap2\n      pop\n      pop\n      jump\t// out\n        /* \"#utility.yul\":12670:12864   */\n    tag_107:\n        /* \"#utility.yul\":12710:12714   */\n      0x00\n        /* \"#utility.yul\":12730:12750   */\n      tag_260\n        /* \"#utility.yul\":12748:12749   */\n      dup3\n        /* \"#utility.yul\":12730:12750   */\n      tag_119\n      jump\t// in\n    tag_260:\n        /* \"#utility.yul\":12725:12750   */\n      swap2\n      pop\n        /* \"#utility.yul\":12764:12784   */\n      tag_261\n        /* \"#utility.yul\":12782:12783   */\n      dup4\n        /* \"#utility.yul\":12764:12784   */\n      tag_119\n      jump\t// in\n    tag_261:\n        /* \"#utility.yul\":12759:12784   */\n      swap3\n      pop\n        /* \"#utility.yul\":12808:12809   */\n      dup3\n        /* \"#utility.yul\":12805:12806   */\n      dup3\n        /* \"#utility.yul\":12801:12810   */\n      sub\n        /* \"#utility.yul\":12793:12810   */\n      swap1\n      pop\n        /* \"#utility.yul\":12832:12833   */\n      dup2\n        /* \"#utility.yul\":12826:12830   */\n      dup2\n        /* \"#utility.yul\":12823:12834   */\n      gt\n        /* \"#utility.yul\":12820:12857   */\n      iszero\n      tag_262\n      jumpi\n        /* \"#utility.yul\":12837:12855   */\n      tag_263\n      tag_151\n      jump\t// in\n    tag_263:\n        /* \"#utility.yul\":12820:12857   */\n    tag_262:\n        /* \"#utility.yul\":12670:12864   */\n      swap3\n      swap2\n      pop\n      pop\n      jump\t// out\n        /* \"#utility.yul\":12870:13034   */\n    tag_153:\n        /* \"#utility.yul\":13010:13026   */\n      0x43616d706169676e20656e646564000000000000000000000000000000000000\n        /* \"#utility.yul\":13006:13007   */\n      0x00\n        /* \"#utility.yul\":12998:13004   */\n      dup3\n        /* \"#utility.yul\":12994:13008   */\n      add\n        /* \"#utility.yul\":12987:13027   */\n      mstore\n        /* \"#utility.yul\":12870:13034   */\n      pop\n      jump\t// out\n        /* \"#utility.yul\":13040:13406   */\n    tag_154:\n        /* \"#utility.yul\":13182:13185   */\n      0x00\n        /* \"#utility.yul\":13203:13270   */\n      tag_266\n        /* \"#utility.yul\":13267:13269   */\n      0x0e\n        /* \"#utility.yul\":13262:13265   */\n      dup4\n        /* \"#utility.yul\":13203:13270   */\n      tag_131\n      jump\t// in\n    tag_266:\n        /* \"#utility.yul\":13196:13270   */\n      swap2\n      pop\n        /* \"#utility.yul\":13279:13372   */\n      tag_267\n        /* \"#utility.yul\":13368:13371   */\n      dup3\n        /* \"#utility.yul\":13279:13372   */\n      tag_153\n      jump\t// in\n    tag_267:\n        /* \"#utility.yul\":13397:13399   */\n      0x20\n        /* \"#utility.yul\":13392:13395   */\n      dup3\n        /* \"#utility.yul\":13388:13400   */\n      add\n        /* \"#utility.yul\":13381:13400   */\n      swap1\n      pop\n        /* \"#utility.yul\":13040:13406   */\n      swap2\n      swap1\n      pop\n      jump\t// out\n        /* \"#utility.yul\":13412:13831   */\n    tag_111:\n        /* \"#utility.yul\":13578:13582   */\n      0x00\n        /* \"#utility.yul\":13616:13618   */\n      0x20\n        /* \"#utility.yul\":13605:13614   */\n      dup3\n        /* \"#utility.yul\":13601:13619   */\n      add\n        /* \"#utility.yul\":13593:13619   */\n      swap1\n      pop\n        /* \"#utility.yul\":13665:13674   */\n      dup2\n        /* \"#utility.yul\":13659:13663   */\n      dup2\n        /* \"#utility.yul\":13655:13675   */\n      sub\n        /* \"#utility.yul\":13651:13652   */\n      0x00\n        /* \"#utility.yul\":13640:13649   */\n      dup4\n        /* \"#utility.yul\":13636:13653   */\n      add\n        /* \"#utility.yul\":13629:13676   */\n      mstore\n        /* \"#utility.yul\":13693:13824   */\n      tag_269\n        /* \"#utility.yul\":13819:13823   */\n      dup2\n        /* \"#utility.yul\":13693:13824   */\n      tag_154\n      jump\t// in\n    tag_269:\n        /* \"#utility.yul\":13685:13824   */\n      swap1\n      pop\n        /* \"#utility.yul\":13412:13831   */\n      swap2\n      swap1\n      pop\n      jump\t// out\n        /* \"#utility.yul\":13837:14000   */\n    tag_155:\n        /* \"#utility.yul\":13977:13992   */\n      0x4d7573742073656e642045544800000000000000000000000000000000000000\n        /* \"#utility.yul\":13973:13974   */\n      0x00\n        /* \"#utility.yul\":13965:13971   */\n      dup3\n        /* \"#utility.yul\":13961:13975   */\n      add\n        /* \"#utility.yul\":13954:13993   */\n      mstore\n        /* \"#utility.yul\":13837:14000   */\n      pop\n      jump\t// out\n        /* \"#utility.yul\":14006:14372   */\n    tag_156:\n        /* \"#utility.yul\":14148:14151   */\n      0x00\n        /* \"#utility.yul\":14169:14236   */\n      tag_272\n        /* \"#utility.yul\":14233:14235   */\n      0x0d\n        /* \"#utility.yul\":14228:14231   */\n      dup4\n        /* \"#utility.yul\":14169:14236   */\n      tag_131\n      jump\t// in\n    tag_272:\n        /* \"#utility.yul\":14162:14236   */\n      swap2\n      pop\n        /* \"#utility.yul\":14245:14338   */\n      tag_273\n        /* \"#utility.yul\":14334:14337   */\n      dup3\n        /* \"#utility.yul\":14245:14338   */\n      tag_155\n      jump\t// in\n    tag_273:\n        /* \"#utility.yul\":14363:14365   */\n      0x20\n        /* \"#utility.yul\":14358:14361   */\n      dup3\n        /* \"#utility.yul\":14354:14366   */\n      add\n        /* \"#utility.yul\":14347:14366   */\n      swap1\n      pop\n        /* \"#utility.yul\":14006:14372   */\n      swap2\n      swap1\n      pop\n      jump\t// out\n        /* \"#utility.yul\":14378:14797   */\n    tag_114:\n        /* \"#utility.yul\":14544:14548   */\n      0x00\n        /* \"#utility.yul\":14582:14584   */\n      0x20\n        /* \"#utility.yul\":14571:14580   */\n      dup3\n        /* \"#utility.yul\":14567:14585   */\n      add\n        /* \"#utility.yul\":14559:14585   */\n      swap1\n      pop\n        /* \"#utility.yul\":14631:14640   */\n      dup2\n        /* \"#utility.yul\":14625:14629   */\n      dup2\n        /* \"#utility.yul\":14621:14641   */\n      sub\n        /* \"#utility.yul\":14617:14618   */\n      0x00\n        /* \"#utility.yul\":14606:14615   */\n      dup4\n        /* \"#utility.yul\":14602:14619   */\n      add\n        /* \"#utility.yul\":14595:14642   */\n      mstore\n        /* \"#utility.yul\":14659:14790   */\n      tag_275\n        /* \"#utility.yul\":14785:14789   */\n      dup2\n        /* \"#utility.yul\":14659:14790   */\n      tag_156\n      jump\t// in\n    tag_275:\n        /* \"#utility.yul\":14651:14790   */\n      swap1\n      pop\n        /* \"#utility.yul\":14378:14797   */\n      swap2\n      swap1\n      pop\n      jump\t// out\n        /* \"#utility.yul\":14803:14994   */\n    tag_116:\n        /* \"#utility.yul\":14843:14846   */\n      0x00\n        /* \"#utility.yul\":14862:14882   */\n      tag_277\n        /* \"#utility.yul\":14880:14881   */\n      dup3\n        /* \"#utility.yul\":14862:14882   */\n      tag_119\n      jump\t// in\n    tag_277:\n        /* \"#utility.yul\":14857:14882   */\n      swap2\n      pop\n        /* \"#utility.yul\":14896:14916   */\n      tag_278\n        /* \"#utility.yul\":14914:14915   */\n      dup4\n        /* \"#utility.yul\":14896:14916   */\n      tag_119\n      jump\t// in\n    tag_278:\n        /* \"#utility.yul\":14891:14916   */\n      swap3\n      pop\n        /* \"#utility.yul\":14939:14940   */\n      dup3\n        /* \"#utility.yul\":14936:14937   */\n      dup3\n        /* \"#utility.yul\":14932:14941   */\n      add\n        /* \"#utility.yul\":14925:14941   */\n      swap1\n      pop\n        /* \"#utility.yul\":14960:14963   */\n      dup1\n        /* \"#utility.yul\":14957:14958   */\n      dup3\n        /* \"#utility.yul\":14954:14964   */\n      gt\n        /* \"#utility.yul\":14951:14987   */\n      iszero\n      tag_279\n      jumpi\n        /* \"#utility.yul\":14967:14985   */\n      tag_280\n      tag_151\n      jump\t// in\n    tag_280:\n        /* \"#utility.yul\":14951:14987   */\n    tag_279:\n        /* \"#utility.yul\":14803:14994   */\n      swap3\n      swap2\n      pop\n      pop\n      jump\t// out\n\n    auxdata: 0xa2646970667358221220105670093fa47d6ab7f30d9575fc412c9c84b05744e0eb347f31f426e7efa87564736f6c634300081e0033\n}\n",
				"bytecode": {
					"linkReferences": {},
					"object": "608060405234801561000f575f5ffd5b506040516111b43803806111b4833981810160405281019061003191906100e0565b335f5f6101000a81548173ffffffffffffffffffffffffffffffffffffffff021916908373ffffffffffffffffffffffffffffffffffffffff160217905550816001819055508042610083919061014b565b6002819055505f60045f6101000a81548160ff021916908315150217905550505061017e565b5f5ffd5b5f819050919050565b6100bf816100ad565b81146100c9575f5ffd5b50565b5f815190506100da816100b6565b92915050565b5f5f604083850312156100f6576100f56100a9565b5b5f610103858286016100cc565b9250506020610114858286016100cc565b9150509250929050565b7f4e487b71000000000000000000000000000000000000000000000000000000005f52601160045260245ffd5b5f610155826100ad565b9150610160836100ad565b92508282019050808211156101785761017761011e565b5b92915050565b6110298061018b5f395ff3fe60806040526004361061009b575f3560e01c80638da5cb5b116100635780638da5cb5b1461015b578063939c445614610185578063c5c4744c146101af578063c7e284b8146101d9578063c80ec52214610203578063d7bb99ba1461022d5761009b565b806324600fc31461009f57806329dcb0cf146100b557806340193883146100df57806342e94c9014610109578063590e1ae314610145575b5f5ffd5b3480156100aa575f5ffd5b506100b3610237565b005b3480156100c0575f5ffd5b506100c96104e2565b6040516100d6919061093d565b60405180910390f35b3480156100ea575f5ffd5b506100f36104e8565b604051610100919061093d565b60405180910390f35b348015610114575f5ffd5b5061012f600480360381019061012a91906109b4565b6104ee565b60405161013c919061093d565b60405180910390f35b348015610150575f5ffd5b50610159610503565b005b348015610166575f5ffd5b5061016f610775565b60405161017c91906109ee565b60405180910390f35b348015610190575f5ffd5b50610199610799565b6040516101a6919061093d565b60405180910390f35b3480156101ba575f5ffd5b506101c36107bb565b6040516101d0919061093d565b60405180910390f35b3480156101e4575f5ffd5b506101ed6107c1565b6040516101fa919061093d565b60405180910390f35b34801561020e575f5ffd5b506102176107e7565b6040516102249190610a21565b60405180910390f35b6102356107f9565b005b5f5f9054906101000a900473ffffffffffffffffffffffffffffffffffffffff1673ffffffffffffffffffffffffffffffffffffffff163373ffffffffffffffffffffffffffffffffffffffff16146102c5576040517f08c379a00000000000000000000000000000000000000000000000000000000081526004016102bc90610a94565b60405180910390fd5b60025442101561030a576040517f08c379a000000000000000000000000000000000000000000000000000000000815260040161030190610afc565b60405180910390fd5b6001546003541015610351576040517f08c379a000000000000000000000000000000000000000000000000000000000815260040161034890610b64565b60405180910390fd5b60045f9054906101000a900460ff16156103a0576040517f08c379a000000000000000000000000000000000000000000000000000000000815260040161039790610bcc565b60405180910390fd5b600160045f6101000a81548160ff0219169083151502179055505f5f5f9054906101000a900473ffffffffffffffffffffffffffffffffffffffff1673ffffffffffffffffffffffffffffffffffffffff1660035460405161040190610c17565b5f6040518083038185875af1925050503d805f811461043b576040519150601f19603f3d011682016040523d82523d5f602084013e610440565b606091505b5050905080610484576040517f08c379a000000000000000000000000000000000000000000000000000000000815260040161047b90610c75565b60405180910390fd5b7feaff4b37086828766ad3268786972c0cd24259d4c87a80f9d3963a3c3d999b0d5f5f9054906101000a900473ffffffffffffffffffffffffffffffffffffffff166003546040516104d7929190610c93565b60405180910390a150565b60025481565b60015481565b6005602052805f5260405f205f915090505481565b600254421015610548576040517f08c379a000000000000000000000000000000000000000000000000000000000815260040161053f90610afc565b60405180910390fd5b6001546003541061058e576040517f08c379a000000000000000000000000000000000000000000000000000000000815260040161058590610d04565b60405180910390fd5b5f60055f3373ffffffffffffffffffffffffffffffffffffffff1673ffffffffffffffffffffffffffffffffffffffff1681526020019081526020015f20541161060d576040517f08c379a000000000000000000000000000000000000000000000000000000000815260040161060490610d6c565b60405180910390fd5b5f60055f3373ffffffffffffffffffffffffffffffffffffffff1673ffffffffffffffffffffffffffffffffffffffff1681526020019081526020015f205490505f60055f3373ffffffffffffffffffffffffffffffffffffffff1673ffffffffffffffffffffffffffffffffffffffff1681526020019081526020015f20819055505f3373ffffffffffffffffffffffffffffffffffffffff16826040516106b590610c17565b5f6040518083038185875af1925050503d805f81146106ef576040519150601f19603f3d011682016040523d82523d5f602084013e6106f4565b606091505b5050905080610738576040517f08c379a000000000000000000000000000000000000000000000000000000000815260040161072f90610dd4565b60405180910390fd5b7fa171b6942063c6f2800ce40a780edce37baa2b618571b11eedd1e69e626e7d763383604051610769929190610c93565b60405180910390a15050565b5f5f9054906101000a900473ffffffffffffffffffffffffffffffffffffffff1681565b5f60015460646003546107ac9190610e1f565b6107b69190610e8d565b905090565b60035481565b5f60025442106107d3575f90506107e4565b426002546107e19190610ebd565b90505b90565b60045f9054906101000a900460ff1681565b600254421061083d576040517f08c379a000000000000000000000000000000000000000000000000000000000815260040161083490610f3a565b60405180910390fd5b5f341161087f576040517f08c379a000000000000000000000000000000000000000000000000000000000815260040161087690610fa2565b60405180910390fd5b3460055f3373ffffffffffffffffffffffffffffffffffffffff1673ffffffffffffffffffffffffffffffffffffffff1681526020019081526020015f205f8282546108cb9190610fc0565b925050819055503460035f8282546108e39190610fc0565b925050819055507f1bb460ccaaf70fbacfec17a376f8acbd278c1405590ffcc8ebe4b88daf4f64ad333460405161091b929190610c93565b60405180910390a1565b5f819050919050565b61093781610925565b82525050565b5f6020820190506109505f83018461092e565b92915050565b5f5ffd5b5f73ffffffffffffffffffffffffffffffffffffffff82169050919050565b5f6109838261095a565b9050919050565b61099381610979565b811461099d575f5ffd5b50565b5f813590506109ae8161098a565b92915050565b5f602082840312156109c9576109c8610956565b5b5f6109d6848285016109a0565b91505092915050565b6109e881610979565b82525050565b5f602082019050610a015f8301846109df565b92915050565b5f8115159050919050565b610a1b81610a07565b82525050565b5f602082019050610a345f830184610a12565b92915050565b5f82825260208201905092915050565b7f4f6e6c79206f776e6572000000000000000000000000000000000000000000005f82015250565b5f610a7e600a83610a3a565b9150610a8982610a4a565b602082019050919050565b5f6020820190508181035f830152610aab81610a72565b9050919050565b7f4e6f7420656e64656400000000000000000000000000000000000000000000005f82015250565b5f610ae6600983610a3a565b9150610af182610ab2565b602082019050919050565b5f6020820190508181035f830152610b1381610ada565b9050919050565b7f476f616c206e6f74206d657400000000000000000000000000000000000000005f82015250565b5f610b4e600c83610a3a565b9150610b5982610b1a565b602082019050919050565b5f6020820190508181035f830152610b7b81610b42565b9050919050565b7f416c72656164792077697468647261776e0000000000000000000000000000005f82015250565b5f610bb6601183610a3a565b9150610bc182610b82565b602082019050919050565b5f6020820190508181035f830152610be381610baa565b9050919050565b5f81905092915050565b50565b5f610c025f83610bea565b9150610c0d82610bf4565b5f82019050919050565b5f610c2182610bf7565b9150819050919050565b7f5472616e73666572206661696c656400000000000000000000000000000000005f82015250565b5f610c5f600f83610a3a565b9150610c6a82610c2b565b602082019050919050565b5f6020820190508181035f830152610c8c81610c53565b9050919050565b5f604082019050610ca65f8301856109df565b610cb3602083018461092e565b9392505050565b7f476f616c20776173206d657400000000000000000000000000000000000000005f82015250565b5f610cee600c83610a3a565b9150610cf982610cba565b602082019050919050565b5f6020820190508181035f830152610d1b81610ce2565b9050919050565b7f4e6f20636f6e747269627574696f6e00000000000000000000000000000000005f82015250565b5f610d56600f83610a3a565b9150610d6182610d22565b602082019050919050565b5f6020820190508181035f830152610d8381610d4a565b9050919050565b7f526566756e64206661696c6564000000000000000000000000000000000000005f82015250565b5f610dbe600d83610a3a565b9150610dc982610d8a565b602082019050919050565b5f6020820190508181035f830152610deb81610db2565b9050919050565b7f4e487b71000000000000000000000000000000000000000000000000000000005f52601160045260245ffd5b5f610e2982610925565b9150610e3483610925565b9250828202610e4281610925565b91508282048414831517610e5957610e58610df2565b5b5092915050565b7f4e487b71000000000000000000000000000000000000000000000000000000005f52601260045260245ffd5b5f610e9782610925565b9150610ea283610925565b925082610eb257610eb1610e60565b5b828204905092915050565b5f610ec782610925565b9150610ed283610925565b9250828203905081811115610eea57610ee9610df2565b5b92915050565b7f43616d706169676e20656e6465640000000000000000000000000000000000005f82015250565b5f610f24600e83610a3a565b9150610f2f82610ef0565b602082019050919050565b5f6020820190508181035f830152610f5181610f18565b9050919050565b7f4d7573742073656e6420455448000000000000000000000000000000000000005f82015250565b5f610f8c600d83610a3a565b9150610f9782610f58565b602082019050919050565b5f6020820190508181035f830152610fb981610f80565b9050919050565b5f610fca82610925565b9150610fd583610925565b9250828201905080821115610fed57610fec610df2565b5b9291505056fea2646970667358221220105670093fa47d6ab7f30d9575fc412c9c84b05744e0eb347f31f426e7efa87564736f6c634300081e0033",
					"opcodes": "PUSH1 0x80 PUSH1 0x40 MSTORE CALLVALUE DUP1 ISZERO PUSH2 0xF JUMPI PUSH0 PUSH0 REVERT JUMPDEST POP PUSH1 0x40 MLOAD PUSH2 0x11B4 CODESIZE SUB DUP1 PUSH2 0x11B4 DUP4 CODECOPY DUP2 DUP2 ADD PUSH1 0x40 MSTORE DUP2 ADD SWAP1 PUSH2 0x31 SWAP2 SWAP1 PUSH2 0xE0 JUMP JUMPDEST CALLER PUSH0 PUSH0 PUSH2 0x100 EXP DUP2 SLOAD DUP2 PUSH20 0xFFFFFFFFFFFFFFFFFFFFFFFFFFFFFFFFFFFFFFFF MUL NOT AND SWAP1 DUP4 PUSH20 0xFFFFFFFFFFFFFFFFFFFFFFFFFFFFFFFFFFFFFFFF AND MUL OR SWAP1 SSTORE POP DUP2 PUSH1 0x1 DUP2 SWAP1 SSTORE POP DUP1 TIMESTAMP PUSH2 0x83 SWAP2 SWAP1 PUSH2 0x14B JUMP JUMPDEST PUSH1 0x2 DUP2 SWAP1 SSTORE POP PUSH0 PUSH1 0x4 PUSH0 PUSH2 0x100 EXP DUP2 SLOAD DUP2 PUSH1 0xFF MUL NOT AND SWAP1 DUP4 ISZERO ISZERO MUL OR SWAP1 SSTORE POP POP POP PUSH2 0x17E JUMP JUMPDEST PUSH0 PUSH0 REVERT JUMPDEST PUSH0 DUP2 SWAP1 POP SWAP2 SWAP1 POP JUMP JUMPDEST PUSH2 0xBF DUP2 PUSH2 0xAD JUMP JUMPDEST DUP2 EQ PUSH2 0xC9 JUMPI PUSH0 PUSH0 REVERT JUMPDEST POP JUMP JUMPDEST PUSH0 DUP2 MLOAD SWAP1 POP PUSH2 0xDA DUP2 PUSH2 0xB6 JUMP JUMPDEST SWAP3 SWAP2 POP POP JUMP JUMPDEST PUSH0 PUSH0 PUSH1 0x40 DUP4 DUP6 SUB SLT ISZERO PUSH2 0xF6 JUMPI PUSH2 0xF5 PUSH2 0xA9 JUMP JUMPDEST JUMPDEST PUSH0 PUSH2 0x103 DUP6 DUP3 DUP7 ADD PUSH2 0xCC JUMP JUMPDEST SWAP3 POP POP PUSH1 0x20 PUSH2 0x114 DUP6 DUP3 DUP7 ADD PUSH2 0xCC JUMP JUMPDEST SWAP2 POP POP SWAP3 POP SWAP3 SWAP1 POP JUMP JUMPDEST PUSH32 0x4E487B7100000000000000000000000000000000000000000000000000000000 PUSH0 MSTORE PUSH1 0x11 PUSH1 0x4 MSTORE PUSH1 0x24 PUSH0 REVERT JUMPDEST PUSH0 PUSH2 0x155 DUP3 PUSH2 0xAD JUMP JUMPDEST SWAP2 POP PUSH2 0x160 DUP4 PUSH2 0xAD JUMP JUMPDEST SWAP3 POP DUP3 DUP3 ADD SWAP1 POP DUP1 DUP3 GT ISZERO PUSH2 0x178 JUMPI PUSH2 0x177 PUSH2 0x11E JUMP JUMPDEST JUMPDEST SWAP3 SWAP2 POP POP JUMP JUMPDEST PUSH2 0x1029 DUP1 PUSH2 0x18B PUSH0 CODECOPY PUSH0 RETURN INVALID PUSH1 0x80 PUSH1 0x40 MSTORE PUSH1 0x4 CALLDATASIZE LT PUSH2 0x9B JUMPI PUSH0 CALLDATALOAD PUSH1 0xE0 SHR DUP1 PUSH4 0x8DA5CB5B GT PUSH2 0x63 JUMPI DUP1 PUSH4 0x8DA5CB5B EQ PUSH2 0x15B JUMPI DUP1 PUSH4 0x939C4456 EQ PUSH2 0x185 JUMPI DUP1 PUSH4 0xC5C4744C EQ PUSH2 0x1AF JUMPI DUP1 PUSH4 0xC7E284B8 EQ PUSH2 0x1D9 JUMPI DUP1 PUSH4 0xC80EC522 EQ PUSH2 0x203 JUMPI DUP1 PUSH4 0xD7BB99BA EQ PUSH2 0x22D JUMPI PUSH2 0x9B JUMP JUMPDEST DUP1 PUSH4 0x24600FC3 EQ PUSH2 0x9F JUMPI DUP1 PUSH4 0x29DCB0CF EQ PUSH2 0xB5 JUMPI DUP1 PUSH4 0x40193883 EQ PUSH2 0xDF JUMPI DUP1 PUSH4 0x42E94C90 EQ PUSH2 0x109 JUMPI DUP1 PUSH4 0x590E1AE3 EQ PUSH2 0x145 JUMPI JUMPDEST PUSH0 PUSH0 REVERT JUMPDEST CALLVALUE DUP1 ISZERO PUSH2 0xAA JUMPI PUSH0 PUSH0 REVERT JUMPDEST POP PUSH2 0xB3 PUSH2 0x237 JUMP JUMPDEST STOP JUMPDEST CALLVALUE DUP1 ISZERO PUSH2 0xC0 JUMPI PUSH0 PUSH0 REVERT JUMPDEST POP PUSH2 0xC9 PUSH2 0x4E2 JUMP JUMPDEST PUSH1 0x40 MLOAD PUSH2 0xD6 SWAP2 SWAP1 PUSH2 0x93D JUMP JUMPDEST PUSH1 0x40 MLOAD DUP1 SWAP2 SUB SWAP1 RETURN JUMPDEST CALLVALUE DUP1 ISZERO PUSH2 0xEA JUMPI PUSH0 PUSH0 REVERT JUMPDEST POP PUSH2 0xF3 PUSH2 0x4E8 JUMP JUMPDEST PUSH1 0x40 MLOAD PUSH2 0x100 SWAP2 SWAP1 PUSH2 0x93D JUMP JUMPDEST PUSH1 0x40 MLOAD DUP1 SWAP2 SUB SWAP1 RETURN JUMPDEST CALLVALUE DUP1 ISZERO PUSH2 0x114 JUMPI PUSH0 PUSH0 REVERT JUMPDEST POP PUSH2 0x12F PUSH1 0x4 DUP1 CALLDATASIZE SUB DUP2 ADD SWAP1 PUSH2 0x12A SWAP2 SWAP1 PUSH2 0x9B4 JUMP JUMPDEST PUSH2 0x4EE JUMP JUMPDEST PUSH1 0x40 MLOAD PUSH2 0x13C SWAP2 SWAP1 PUSH2 0x93D JUMP JUMPDEST PUSH1 0x40 MLOAD DUP1 SWAP2 SUB SWAP1 RETURN JUMPDEST CALLVALUE DUP1 ISZERO PUSH2 0x150 JUMPI PUSH0 PUSH0 REVERT JUMPDEST POP PUSH2 0x159 PUSH2 0x503 JUMP JUMPDEST STOP JUMPDEST CALLVALUE DUP1 ISZERO PUSH2 0x166 JUMPI PUSH0 PUSH0 REVERT JUMPDEST POP PUSH2 0x16F PUSH2 0x775 JUMP JUMPDEST PUSH1 0x40 MLOAD PUSH2 0x17C SWAP2 SWAP1 PUSH2 0x9EE JUMP JUMPDEST PUSH1 0x40 MLOAD DUP1 SWAP2 SUB SWAP1 RETURN JUMPDEST CALLVALUE DUP1 ISZERO PUSH2 0x190 JUMPI PUSH0 PUSH0 REVERT JUMPDEST POP PUSH2 0x199 PUSH2 0x799 JUMP JUMPDEST PUSH1 0x40 MLOAD PUSH2 0x1A6 SWAP2 SWAP1 PUSH2 0x93D JUMP JUMPDEST PUSH1 0x40 MLOAD DUP1 SWAP2 SUB SWAP1 RETURN JUMPDEST CALLVALUE DUP1 ISZERO PUSH2 0x1BA JUMPI PUSH0 PUSH0 REVERT JUMPDEST POP PUSH2 0x1C3 PUSH2 0x7BB JUMP JUMPDEST PUSH1 0x40 MLOAD PUSH2 0x1D0 SWAP2 SWAP1 PUSH2 0x93D JUMP JUMPDEST PUSH1 0x40 MLOAD DUP1 SWAP2 SUB SWAP1 RETURN JUMPDEST CALLVALUE DUP1 ISZERO PUSH2 0x1E4 JUMPI PUSH0 PUSH0 REVERT JUMPDEST POP PUSH2 0x1ED PUSH2 0x7C1 JUMP JUMPDEST PUSH1 0x40 MLOAD PUSH2 0x1FA SWAP2 SWAP1 PUSH2 0x93D JUMP JUMPDEST PUSH1 0x40 MLOAD DUP1 SWAP2 SUB SWAP1 RETURN JUMPDEST CALLVALUE DUP1 ISZERO PUSH2 0x20E JUMPI PUSH0 PUSH0 REVERT JUMPDEST POP PUSH2 0x217 PUSH2 0x7E7 JUMP JUMPDEST PUSH1 0x40 MLOAD PUSH2 0x224 SWAP2 SWAP1 PUSH2 0xA21 JUMP JUMPDEST PUSH1 0x40 MLOAD DUP1 SWAP2 SUB SWAP1 RETURN JUMPDEST PUSH2 0x235 PUSH2 0x7F9 JUMP JUMPDEST STOP JUMPDEST PUSH0 PUSH0 SWAP1 SLOAD SWAP1 PUSH2 0x100 EXP SWAP1 DIV PUSH20 0xFFFFFFFFFFFFFFFFFFFFFFFFFFFFFFFFFFFFFFFF AND PUSH20 0xFFFFFFFFFFFFFFFFFFFFFFFFFFFFFFFFFFFFFFFF AND CALLER PUSH20 0xFFFFFFFFFFFFFFFFFFFFFFFFFFFFFFFFFFFFFFFF AND EQ PUSH2 0x2C5 JUMPI PUSH1 0x40 MLOAD PUSH32 0x8C379A000000000000000000000000000000000000000000000000000000000 DUP2 MSTORE PUSH1 0x4 ADD PUSH2 0x2BC SWAP1 PUSH2 0xA94 JUMP JUMPDEST PUSH1 0x40 MLOAD DUP1 SWAP2 SUB SWAP1 REVERT JUMPDEST PUSH1 0x2 SLOAD TIMESTAMP LT ISZERO PUSH2 0x30A JUMPI PUSH1 0x40 MLOAD PUSH32 0x8C379A000000000000000000000000000000000000000000000000000000000 DUP2 MSTORE PUSH1 0x4 ADD PUSH2 0x301 SWAP1 PUSH2 0xAFC JUMP JUMPDEST PUSH1 0x40 MLOAD DUP1 SWAP2 SUB SWAP1 REVERT JUMPDEST PUSH1 0x1 SLOAD PUSH1 0x3 SLOAD LT ISZERO PUSH2 0x351 JUMPI PUSH1 0x40 MLOAD PUSH32 0x8C379A000000000000000000000000000000000000000000000000000000000 DUP2 MSTORE PUSH1 0x4 ADD PUSH2 0x348 SWAP1 PUSH2 0xB64 JUMP JUMPDEST PUSH1 0x40 MLOAD DUP1 SWAP2 SUB SWAP1 REVERT JUMPDEST PUSH1 0x4 PUSH0 SWAP1 SLOAD SWAP1 PUSH2 0x100 EXP SWAP1 DIV PUSH1 0xFF AND ISZERO PUSH2 0x3A0 JUMPI PUSH1 0x40 MLOAD PUSH32 0x8C379A000000000000000000000000000000000000000000000000000000000 DUP2 MSTORE PUSH1 0x4 ADD PUSH2 0x397 SWAP1 PUSH2 0xBCC JUMP JUMPDEST PUSH1 0x40 MLOAD DUP1 SWAP2 SUB SWAP1 REVERT JUMPDEST PUSH1 0x1 PUSH1 0x4 PUSH0 PUSH2 0x100 EXP DUP2 SLOAD DUP2 PUSH1 0xFF MUL NOT AND SWAP1 DUP4 ISZERO ISZERO MUL OR SWAP1 SSTORE POP PUSH0 PUSH0 PUSH0 SWAP1 SLOAD SWAP1 PUSH2 0x100 EXP SWAP1 DIV PUSH20 0xFFFFFFFFFFFFFFFFFFFFFFFFFFFFFFFFFFFFFFFF AND PUSH20 0xFFFFFFFFFFFFFFFFFFFFFFFFFFFFFFFFFFFFFFFF AND PUSH1 0x3 SLOAD PUSH1 0x40 MLOAD PUSH2 0x401 SWAP1 PUSH2 0xC17 JUMP JUMPDEST PUSH0 PUSH1 0x40 MLOAD DUP1 DUP4 SUB DUP2 DUP6 DUP8 GAS CALL SWAP3 POP POP POP RETURNDATASIZE DUP1 PUSH0 DUP2 EQ PUSH2 0x43B JUMPI PUSH1 0x40 MLOAD SWAP2 POP PUSH1 0x1F NOT PUSH1 0x3F RETURNDATASIZE ADD AND DUP3 ADD PUSH1 0x40 MSTORE RETURNDATASIZE DUP3 MSTORE RETURNDATASIZE PUSH0 PUSH1 0x20 DUP5 ADD RETURNDATACOPY PUSH2 0x440 JUMP JUMPDEST PUSH1 0x60 SWAP2 POP JUMPDEST POP POP SWAP1 POP DUP1 PUSH2 0x484 JUMPI PUSH1 0x40 MLOAD PUSH32 0x8C379A000000000000000000000000000000000000000000000000000000000 DUP2 MSTORE PUSH1 0x4 ADD PUSH2 0x47B SWAP1 PUSH2 0xC75 JUMP JUMPDEST PUSH1 0x40 MLOAD DUP1 SWAP2 SUB SWAP1 REVERT JUMPDEST PUSH32 0xEAFF4B37086828766AD3268786972C0CD24259D4C87A80F9D3963A3C3D999B0D PUSH0 PUSH0 SWAP1 SLOAD SWAP1 PUSH2 0x100 EXP SWAP1 DIV PUSH20 0xFFFFFFFFFFFFFFFFFFFFFFFFFFFFFFFFFFFFFFFF AND PUSH1 0x3 SLOAD PUSH1 0x40 MLOAD PUSH2 0x4D7 SWAP3 SWAP2 SWAP1 PUSH2 0xC93 JUMP JUMPDEST PUSH1 0x40 MLOAD DUP1 SWAP2 SUB SWAP1 LOG1 POP JUMP JUMPDEST PUSH1 0x2 SLOAD DUP2 JUMP JUMPDEST PUSH1 0x1 SLOAD DUP2 JUMP JUMPDEST PUSH1 0x5 PUSH1 0x20 MSTORE DUP1 PUSH0 MSTORE PUSH1 0x40 PUSH0 KECCAK256 PUSH0 SWAP2 POP SWAP1 POP SLOAD DUP2 JUMP JUMPDEST PUSH1 0x2 SLOAD TIMESTAMP LT ISZERO PUSH2 0x548 JUMPI PUSH1 0x40 MLOAD PUSH32 0x8C379A000000000000000000000000000000000000000000000000000000000 DUP2 MSTORE PUSH1 0x4 ADD PUSH2 0x53F SWAP1 PUSH2 0xAFC JUMP JUMPDEST PUSH1 0x40 MLOAD DUP1 SWAP2 SUB SWAP1 REVERT JUMPDEST PUSH1 0x1 SLOAD PUSH1 0x3 SLOAD LT PUSH2 0x58E JUMPI PUSH1 0x40 MLOAD PUSH32 0x8C379A000000000000000000000000000000000000000000000000000000000 DUP2 MSTORE PUSH1 0x4 ADD PUSH2 0x585 SWAP1 PUSH2 0xD04 JUMP JUMPDEST PUSH1 0x40 MLOAD DUP1 SWAP2 SUB SWAP1 REVERT JUMPDEST PUSH0 PUSH1 0x5 PUSH0 CALLER PUSH20 0xFFFFFFFFFFFFFFFFFFFFFFFFFFFFFFFFFFFFFFFF AND PUSH20 0xFFFFFFFFFFFFFFFFFFFFFFFFFFFFFFFFFFFFFFFF AND DUP2 MSTORE PUSH1 0x20 ADD SWAP1 DUP2 MSTORE PUSH1 0x20 ADD PUSH0 KECCAK256 SLOAD GT PUSH2 0x60D JUMPI PUSH1 0x40 MLOAD PUSH32 0x8C379A000000000000000000000000000000000000000000000000000000000 DUP2 MSTORE PUSH1 0x4 ADD PUSH2 0x604 SWAP1 PUSH2 0xD6C JUMP JUMPDEST PUSH1 0x40 MLOAD DUP1 SWAP2 SUB SWAP1 REVERT JUMPDEST PUSH0 PUSH1 0x5 PUSH0 CALLER PUSH20 0xFFFFFFFFFFFFFFFFFFFFFFFFFFFFFFFFFFFFFFFF AND PUSH20 0xFFFFFFFFFFFFFFFFFFFFFFFFFFFFFFFFFFFFFFFF AND DUP2 MSTORE PUSH1 0x20 ADD SWAP1 DUP2 MSTORE PUSH1 0x20 ADD PUSH0 KECCAK256 SLOAD SWAP1 POP PUSH0 PUSH1 0x5 PUSH0 CALLER PUSH20 0xFFFFFFFFFFFFFFFFFFFFFFFFFFFFFFFFFFFFFFFF AND PUSH20 0xFFFFFFFFFFFFFFFFFFFFFFFFFFFFFFFFFFFFFFFF AND DUP2 MSTORE PUSH1 0x20 ADD SWAP1 DUP2 MSTORE PUSH1 0x20 ADD PUSH0 KECCAK256 DUP2 SWAP1 SSTORE POP PUSH0 CALLER PUSH20 0xFFFFFFFFFFFFFFFFFFFFFFFFFFFFFFFFFFFFFFFF AND DUP3 PUSH1 0x40 MLOAD PUSH2 0x6B5 SWAP1 PUSH2 0xC17 JUMP JUMPDEST PUSH0 PUSH1 0x40 MLOAD DUP1 DUP4 SUB DUP2 DUP6 DUP8 GAS CALL SWAP3 POP POP POP RETURNDATASIZE DUP1 PUSH0 DUP2 EQ PUSH2 0x6EF JUMPI PUSH1 0x40 MLOAD SWAP2 POP PUSH1 0x1F NOT PUSH1 0x3F RETURNDATASIZE ADD AND DUP3 ADD PUSH1 0x40 MSTORE RETURNDATASIZE DUP3 MSTORE RETURNDATASIZE PUSH0 PUSH1 0x20 DUP5 ADD RETURNDATACOPY PUSH2 0x6F4 JUMP JUMPDEST PUSH1 0x60 SWAP2 POP JUMPDEST POP POP SWAP1 POP DUP1 PUSH2 0x738 JUMPI PUSH1 0x40 MLOAD PUSH32 0x8C379A000000000000000000000000000000000000000000000000000000000 DUP2 MSTORE PUSH1 0x4 ADD PUSH2 0x72F SWAP1 PUSH2 0xDD4 JUMP JUMPDEST PUSH1 0x40 MLOAD DUP1 SWAP2 SUB SWAP1 REVERT JUMPDEST PUSH32 0xA171B6942063C6F2800CE40A780EDCE37BAA2B618571B11EEDD1E69E626E7D76 CALLER DUP4 PUSH1 0x40 MLOAD PUSH2 0x769 SWAP3 SWAP2 SWAP1 PUSH2 0xC93 JUMP JUMPDEST PUSH1 0x40 MLOAD DUP1 SWAP2 SUB SWAP1 LOG1 POP POP JUMP JUMPDEST PUSH0 PUSH0 SWAP1 SLOAD SWAP1 PUSH2 0x100 EXP SWAP1 DIV PUSH20 0xFFFFFFFFFFFFFFFFFFFFFFFFFFFFFFFFFFFFFFFF AND DUP2 JUMP JUMPDEST PUSH0 PUSH1 0x1 SLOAD PUSH1 0x64 PUSH1 0x3 SLOAD PUSH2 0x7AC SWAP2 SWAP1 PUSH2 0xE1F JUMP JUMPDEST PUSH2 0x7B6 SWAP2 SWAP1 PUSH2 0xE8D JUMP JUMPDEST SWAP1 POP SWAP1 JUMP JUMPDEST PUSH1 0x3 SLOAD DUP2 JUMP JUMPDEST PUSH0 PUSH1 0x2 SLOAD TIMESTAMP LT PUSH2 0x7D3 JUMPI PUSH0 SWAP1 POP PUSH2 0x7E4 JUMP JUMPDEST TIMESTAMP PUSH1 0x2 SLOAD PUSH2 0x7E1 SWAP2 SWAP1 PUSH2 0xEBD JUMP JUMPDEST SWAP1 POP JUMPDEST SWAP1 JUMP JUMPDEST PUSH1 0x4 PUSH0 SWAP1 SLOAD SWAP1 PUSH2 0x100 EXP SWAP1 DIV PUSH1 0xFF AND DUP2 JUMP JUMPDEST PUSH1 0x2 SLOAD TIMESTAMP LT PUSH2 0x83D JUMPI PUSH1 0x40 MLOAD PUSH32 0x8C379A000000000000000000000000000000000000000000000000000000000 DUP2 MSTORE PUSH1 0x4 ADD PUSH2 0x834 SWAP1 PUSH2 0xF3A JUMP JUMPDEST PUSH1 0x40 MLOAD DUP1 SWAP2 SUB SWAP1 REVERT JUMPDEST PUSH0 CALLVALUE GT PUSH2 0x87F JUMPI PUSH1 0x40 MLOAD PUSH32 0x8C379A000000000000000000000000000000000000000000000000000000000 DUP2 MSTORE PUSH1 0x4 ADD PUSH2 0x876 SWAP1 PUSH2 0xFA2 JUMP JUMPDEST PUSH1 0x40 MLOAD DUP1 SWAP2 SUB SWAP1 REVERT JUMPDEST CALLVALUE PUSH1 0x5 PUSH0 CALLER PUSH20 0xFFFFFFFFFFFFFFFFFFFFFFFFFFFFFFFFFFFFFFFF AND PUSH20 0xFFFFFFFFFFFFFFFFFFFFFFFFFFFFFFFFFFFFFFFF AND DUP2 MSTORE PUSH1 0x20 ADD SWAP1 DUP2 MSTORE PUSH1 0x20 ADD PUSH0 KECCAK256 PUSH0 DUP3 DUP3 SLOAD PUSH2 0x8CB SWAP2 SWAP1 PUSH2 0xFC0 JUMP JUMPDEST SWAP3 POP POP DUP2 SWAP1 SSTORE POP CALLVALUE PUSH1 0x3 PUSH0 DUP3 DUP3 SLOAD PUSH2 0x8E3 SWAP2 SWAP1 PUSH2 0xFC0 JUMP JUMPDEST SWAP3 POP POP DUP2 SWAP1 SSTORE POP PUSH32 0x1BB460CCAAF70FBACFEC17A376F8ACBD278C1405590FFCC8EBE4B88DAF4F64AD CALLER CALLVALUE PUSH1 0x40 MLOAD PUSH2 0x91B SWAP3 SWAP2 SWAP1 PUSH2 0xC93 JUMP JUMPDEST PUSH1 0x40 MLOAD DUP1 SWAP2 SUB SWAP1 LOG1 JUMP JUMPDEST PUSH0 DUP2 SWAP1 POP SWAP2 SWAP1 POP JUMP JUMPDEST PUSH2 0x937 DUP2 PUSH2 0x925 JUMP JUMPDEST DUP3 MSTORE POP POP JUMP JUMPDEST PUSH0 PUSH1 0x20 DUP3 ADD SWAP1 POP PUSH2 0x950 PUSH0 DUP4 ADD DUP5 PUSH2 0x92E JUMP JUMPDEST SWAP3 SWAP2 POP POP JUMP JUMPDEST PUSH0 PUSH0 REVERT JUMPDEST PUSH0 PUSH20 0xFFFFFFFFFFFFFFFFFFFFFFFFFFFFFFFFFFFFFFFF DUP3 AND SWAP1 POP SWAP2 SWAP1 POP JUMP JUMPDEST PUSH0 PUSH2 0x983 DUP3 PUSH2 0x95A JUMP JUMPDEST SWAP1 POP SWAP2 SWAP1 POP JUMP JUMPDEST PUSH2 0x993 DUP2 PUSH2 0x979 JUMP JUMPDEST DUP2 EQ PUSH2 0x99D JUMPI PUSH0 PUSH0 REVERT JUMPDEST POP JUMP JUMPDEST PUSH0 DUP2 CALLDATALOAD SWAP1 POP PUSH2 0x9AE DUP2 PUSH2 0x98A JUMP JUMPDEST SWAP3 SWAP2 POP POP JUMP JUMPDEST PUSH0 PUSH1 0x20 DUP3 DUP5 SUB SLT ISZERO PUSH2 0x9C9 JUMPI PUSH2 0x9C8 PUSH2 0x956 JUMP JUMPDEST JUMPDEST PUSH0 PUSH2 0x9D6 DUP5 DUP3 DUP6 ADD PUSH2 0x9A0 JUMP JUMPDEST SWAP2 POP POP SWAP3 SWAP2 POP POP JUMP JUMPDEST PUSH2 0x9E8 DUP2 PUSH2 0x979 JUMP JUMPDEST DUP3 MSTORE POP POP JUMP JUMPDEST PUSH0 PUSH1 0x20 DUP3 ADD SWAP1 POP PUSH2 0xA01 PUSH0 DUP4 ADD DUP5 PUSH2 0x9DF JUMP JUMPDEST SWAP3 SWAP2 POP POP JUMP JUMPDEST PUSH0 DUP2 ISZERO ISZERO SWAP1 POP SWAP2 SWAP1 POP JUMP JUMPDEST PUSH2 0xA1B DUP2 PUSH2 0xA07 JUMP JUMPDEST DUP3 MSTORE POP POP JUMP JUMPDEST PUSH0 PUSH1 0x20 DUP3 ADD SWAP1 POP PUSH2 0xA34 PUSH0 DUP4 ADD DUP5 PUSH2 0xA12 JUMP JUMPDEST SWAP3 SWAP2 POP POP JUMP JUMPDEST PUSH0 DUP3 DUP3 MSTORE PUSH1 0x20 DUP3 ADD SWAP1 POP SWAP3 SWAP2 POP POP JUMP JUMPDEST PUSH32 0x4F6E6C79206F776E657200000000000000000000000000000000000000000000 PUSH0 DUP3 ADD MSTORE POP JUMP JUMPDEST PUSH0 PUSH2 0xA7E PUSH1 0xA DUP4 PUSH2 0xA3A JUMP JUMPDEST SWAP2 POP PUSH2 0xA89 DUP3 PUSH2 0xA4A JUMP JUMPDEST PUSH1 0x20 DUP3 ADD SWAP1 POP SWAP2 SWAP1 POP JUMP JUMPDEST PUSH0 PUSH1 0x20 DUP3 ADD SWAP1 POP DUP2 DUP2 SUB PUSH0 DUP4 ADD MSTORE PUSH2 0xAAB DUP2 PUSH2 0xA72 JUMP JUMPDEST SWAP1 POP SWAP2 SWAP1 POP JUMP JUMPDEST PUSH32 0x4E6F7420656E6465640000000000000000000000000000000000000000000000 PUSH0 DUP3 ADD MSTORE POP JUMP JUMPDEST PUSH0 PUSH2 0xAE6 PUSH1 0x9 DUP4 PUSH2 0xA3A JUMP JUMPDEST SWAP2 POP PUSH2 0xAF1 DUP3 PUSH2 0xAB2 JUMP JUMPDEST PUSH1 0x20 DUP3 ADD SWAP1 POP SWAP2 SWAP1 POP JUMP JUMPDEST PUSH0 PUSH1 0x20 DUP3 ADD SWAP1 POP DUP2 DUP2 SUB PUSH0 DUP4 ADD MSTORE PUSH2 0xB13 DUP2 PUSH2 0xADA JUMP JUMPDEST SWAP1 POP SWAP2 SWAP1 POP JUMP JUMPDEST PUSH32 0x476F616C206E6F74206D65740000000000000000000000000000000000000000 PUSH0 DUP3 ADD MSTORE POP JUMP JUMPDEST PUSH0 PUSH2 0xB4E PUSH1 0xC DUP4 PUSH2 0xA3A JUMP JUMPDEST SWAP2 POP PUSH2 0xB59 DUP3 PUSH2 0xB1A JUMP JUMPDEST PUSH1 0x20 DUP3 ADD SWAP1 POP SWAP2 SWAP1 POP JUMP JUMPDEST PUSH0 PUSH1 0x20 DUP3 ADD SWAP1 POP DUP2 DUP2 SUB PUSH0 DUP4 ADD MSTORE PUSH2 0xB7B DUP2 PUSH2 0xB42 JUMP JUMPDEST SWAP1 POP SWAP2 SWAP1 POP JUMP JUMPDEST PUSH32 0x416C72656164792077697468647261776E000000000000000000000000000000 PUSH0 DUP3 ADD MSTORE POP JUMP JUMPDEST PUSH0 PUSH2 0xBB6 PUSH1 0x11 DUP4 PUSH2 0xA3A JUMP JUMPDEST SWAP2 POP PUSH2 0xBC1 DUP3 PUSH2 0xB82 JUMP JUMPDEST PUSH1 0x20 DUP3 ADD SWAP1 POP SWAP2 SWAP1 POP JUMP JUMPDEST PUSH0 PUSH1 0x20 DUP3 ADD SWAP1 POP DUP2 DUP2 SUB PUSH0 DUP4 ADD MSTORE PUSH2 0xBE3 DUP2 PUSH2 0xBAA JUMP JUMPDEST SWAP1 POP SWAP2 SWAP1 POP JUMP JUMPDEST PUSH0 DUP2 SWAP1 POP SWAP3 SWAP2 POP POP JUMP JUMPDEST POP JUMP JUMPDEST PUSH0 PUSH2 0xC02 PUSH0 DUP4 PUSH2 0xBEA JUMP JUMPDEST SWAP2 POP PUSH2 0xC0D DUP3 PUSH2 0xBF4 JUMP JUMPDEST PUSH0 DUP3 ADD SWAP1 POP SWAP2 SWAP1 POP JUMP JUMPDEST PUSH0 PUSH2 0xC21 DUP3 PUSH2 0xBF7 JUMP JUMPDEST SWAP2 POP DUP2 SWAP1 POP SWAP2 SWAP1 POP JUMP JUMPDEST PUSH32 0x5472616E73666572206661696C65640000000000000000000000000000000000 PUSH0 DUP3 ADD MSTORE POP JUMP JUMPDEST PUSH0 PUSH2 0xC5F PUSH1 0xF DUP4 PUSH2 0xA3A JUMP JUMPDEST SWAP2 POP PUSH2 0xC6A DUP3 PUSH2 0xC2B JUMP JUMPDEST PUSH1 0x20 DUP3 ADD SWAP1 POP SWAP2 SWAP1 POP JUMP JUMPDEST PUSH0 PUSH1 0x20 DUP3 ADD SWAP1 POP DUP2 DUP2 SUB PUSH0 DUP4 ADD MSTORE PUSH2 0xC8C DUP2 PUSH2 0xC53 JUMP JUMPDEST SWAP1 POP SWAP2 SWAP1 POP JUMP JUMPDEST PUSH0 PUSH1 0x40 DUP3 ADD SWAP1 POP PUSH2 0xCA6 PUSH0 DUP4 ADD DUP6 PUSH2 0x9DF JUMP JUMPDEST PUSH2 0xCB3 PUSH1 0x20 DUP4 ADD DUP5 PUSH2 0x92E JUMP JUMPDEST SWAP4 SWAP3 POP POP POP JUMP JUMPDEST PUSH32 0x476F616C20776173206D65740000000000000000000000000000000000000000 PUSH0 DUP3 ADD MSTORE POP JUMP JUMPDEST PUSH0 PUSH2 0xCEE PUSH1 0xC DUP4 PUSH2 0xA3A JUMP JUMPDEST SWAP2 POP PUSH2 0xCF9 DUP3 PUSH2 0xCBA JUMP JUMPDEST PUSH1 0x20 DUP3 ADD SWAP1 POP SWAP2 SWAP1 POP JUMP JUMPDEST PUSH0 PUSH1 0x20 DUP3 ADD SWAP1 POP DUP2 DUP2 SUB PUSH0 DUP4 ADD MSTORE PUSH2 0xD1B DUP2 PUSH2 0xCE2 JUMP JUMPDEST SWAP1 POP SWAP2 SWAP1 POP JUMP JUMPDEST PUSH32 0x4E6F20636F6E747269627574696F6E0000000000000000000000000000000000 PUSH0 DUP3 ADD MSTORE POP JUMP JUMPDEST PUSH0 PUSH2 0xD56 PUSH1 0xF DUP4 PUSH2 0xA3A JUMP JUMPDEST SWAP2 POP PUSH2 0xD61 DUP3 PUSH2 0xD22 JUMP JUMPDEST PUSH1 0x20 DUP3 ADD SWAP1 POP SWAP2 SWAP1 POP JUMP JUMPDEST PUSH0 PUSH1 0x20 DUP3 ADD SWAP1 POP DUP2 DUP2 SUB PUSH0 DUP4 ADD MSTORE PUSH2 0xD83 DUP2 PUSH2 0xD4A JUMP JUMPDEST SWAP1 POP SWAP2 SWAP1 POP JUMP JUMPDEST PUSH32 0x526566756E64206661696C656400000000000000000000000000000000000000 PUSH0 DUP3 ADD MSTORE POP JUMP JUMPDEST PUSH0 PUSH2 0xDBE PUSH1 0xD DUP4 PUSH2 0xA3A JUMP JUMPDEST SWAP2 POP PUSH2 0xDC9 DUP3 PUSH2 0xD8A JUMP JUMPDEST PUSH1 0x20 DUP3 ADD SWAP1 POP SWAP2 SWAP1 POP JUMP JUMPDEST PUSH0 PUSH1 0x20 DUP3 ADD SWAP1 POP DUP2 DUP2 SUB PUSH0 DUP4 ADD MSTORE PUSH2 0xDEB DUP2 PUSH2 0xDB2 JUMP JUMPDEST SWAP1 POP SWAP2 SWAP1 POP JUMP JUMPDEST PUSH32 0x4E487B7100000000000000000000000000000000000000000000000000000000 PUSH0 MSTORE PUSH1 0x11 PUSH1 0x4 MSTORE PUSH1 0x24 PUSH0 REVERT JUMPDEST PUSH0 PUSH2 0xE29 DUP3 PUSH2 0x925 JUMP JUMPDEST SWAP2 POP PUSH2 0xE34 DUP4 PUSH2 0x925 JUMP JUMPDEST SWAP3 POP DUP3 DUP3 MUL PUSH2 0xE42 DUP2 PUSH2 0x925 JUMP JUMPDEST SWAP2 POP DUP3 DUP3 DIV DUP5 EQ DUP4 ISZERO OR PUSH2 0xE59 JUMPI PUSH2 0xE58 PUSH2 0xDF2 JUMP JUMPDEST JUMPDEST POP SWAP3 SWAP2 POP POP JUMP JUMPDEST PUSH32 0x4E487B7100000000000000000000000000000000000000000000000000000000 PUSH0 MSTORE PUSH1 0x12 PUSH1 0x4 MSTORE PUSH1 0x24 PUSH0 REVERT JUMPDEST PUSH0 PUSH2 0xE97 DUP3 PUSH2 0x925 JUMP JUMPDEST SWAP2 POP PUSH2 0xEA2 DUP4 PUSH2 0x925 JUMP JUMPDEST SWAP3 POP DUP3 PUSH2 0xEB2 JUMPI PUSH2 0xEB1 PUSH2 0xE60 JUMP JUMPDEST JUMPDEST DUP3 DUP3 DIV SWAP1 POP SWAP3 SWAP2 POP POP JUMP JUMPDEST PUSH0 PUSH2 0xEC7 DUP3 PUSH2 0x925 JUMP JUMPDEST SWAP2 POP PUSH2 0xED2 DUP4 PUSH2 0x925 JUMP JUMPDEST SWAP3 POP DUP3 DUP3 SUB SWAP1 POP DUP2 DUP2 GT ISZERO PUSH2 0xEEA JUMPI PUSH2 0xEE9 PUSH2 0xDF2 JUMP JUMPDEST JUMPDEST SWAP3 SWAP2 POP POP JUMP JUMPDEST PUSH32 0x43616D706169676E20656E646564000000000000000000000000000000000000 PUSH0 DUP3 ADD MSTORE POP JUMP JUMPDEST PUSH0 PUSH2 0xF24 PUSH1 0xE DUP4 PUSH2 0xA3A JUMP JUMPDEST SWAP2 POP PUSH2 0xF2F DUP3 PUSH2 0xEF0 JUMP JUMPDEST PUSH1 0x20 DUP3 ADD SWAP1 POP SWAP2 SWAP1 POP JUMP JUMPDEST PUSH0 PUSH1 0x20 DUP3 ADD SWAP1 POP DUP2 DUP2 SUB PUSH0 DUP4 ADD MSTORE PUSH2 0xF51 DUP2 PUSH2 0xF18 JUMP JUMPDEST SWAP1 POP SWAP2 SWAP1 POP JUMP JUMPDEST PUSH32 0x4D7573742073656E642045544800000000000000000000000000000000000000 PUSH0 DUP3 ADD MSTORE POP JUMP JUMPDEST PUSH0 PUSH2 0xF8C PUSH1 0xD DUP4 PUSH2 0xA3A JUMP JUMPDEST SWAP2 POP PUSH2 0xF97 DUP3 PUSH2 0xF58 JUMP JUMPDEST PUSH1 0x20 DUP3 ADD SWAP1 POP SWAP2 SWAP1 POP JUMP JUMPDEST PUSH0 PUSH1 0x20 DUP3 ADD SWAP1 POP DUP2 DUP2 SUB PUSH0 DUP4 ADD MSTORE PUSH2 0xFB9 DUP2 PUSH2 0xF80 JUMP JUMPDEST SWAP1 POP SWAP2 SWAP1 POP JUMP JUMPDEST PUSH0 PUSH2 0xFCA DUP3 PUSH2 0x925 JUMP JUMPDEST SWAP2 POP PUSH2 0xFD5 DUP4 PUSH2 0x925 JUMP JUMPDEST SWAP3 POP DUP3 DUP3 ADD SWAP1 POP DUP1 DUP3 GT ISZERO PUSH2 0xFED JUMPI PUSH2 0xFEC PUSH2 0xDF2 JUMP JUMPDEST JUMPDEST SWAP3 SWAP2 POP POP JUMP INVALID LOG2 PUSH5 0x6970667358 0x22 SLT KECCAK256 LT JUMP PUSH17 0x93FA47D6AB7F30D9575FC412C9C84B057 PREVRANDAO RJUMP 0xEB34 PUSH32 0x31F426E7EFA87564736F6C634300081E00330000000000000000000000000000 "
				},
				"gasEstimates": {
					"creation": {
						"codeDepositCost": "827400",
						"executionCost": "infinite",
						"totalCost": "infinite"
					},
					"external": {
						"contribute()": "infinite",
						"contributions(address)": "2869",
						"deadline()": "2448",
						"getProgress()": "infinite",
						"getTimeLeft()": "infinite",
						"goal()": "2470",
						"owner()": "2507",
						"refund()": "infinite",
						"totalRaised()": "2469",
						"withdrawFunds()": "infinite",
						"withdrawn()": "2554"
					}
				},
				"methodIdentifiers": {
					"contribute()": "d7bb99ba",
					"contributions(address)": "42e94c90",
					"deadline()": "29dcb0cf",
					"getProgress()": "939c4456",
					"getTimeLeft()": "c7e284b8",
					"goal()": "40193883",
					"owner()": "8da5cb5b",
					"refund()": "590e1ae3",
					"totalRaised()": "c5c4744c",
					"withdrawFunds()": "24600fc3",
					"withdrawn()": "c80ec522"
				}
			},
			"storageLayout": {
				"storage": [
					{
						"astId": 3,
						"contract": "contracts/Crowdfunding.sol:Crowdfunding",
						"label": "owner",
						"offset": 0,
						"slot": "0",
						"type": "t_address"
					},
					{
						"astId": 5,
						"contract": "contracts/Crowdfunding.sol:Crowdfunding",
						"label": "goal",
						"offset": 0,
						"slot": "1",
						"type": "t_uint256"
					},
					{
						"astId": 7,
						"contract": "contracts/Crowdfunding.sol:Crowdfunding",
						"label": "deadline",
						"offset": 0,
						"slot": "2",
						"type": "t_uint256"
					},
					{
						"astId": 9,
						"contract": "contracts/Crowdfunding.sol:Crowdfunding",
						"label": "totalRaised",
						"offset": 0,
						"slot": "3",
						"type": "t_uint256"
					},
					{
						"astId": 11,
						"contract": "contracts/Crowdfunding.sol:Crowdfunding",
						"label": "withdrawn",
						"offset": 0,
						"slot": "4",
						"type": "t_bool"
					},
					{
						"astId": 15,
						"contract": "contracts/Crowdfunding.sol:Crowdfunding",
						"label": "contributions",
						"offset": 0,
						"slot": "5",
						"type": "t_mapping(t_address,t_uint256)"
					}
				],
				"types": {
					"t_address": {
						"encoding": "inplace",
						"label": "address",
						"numberOfBytes": "20"
					},
					"t_bool": {
						"encoding": "inplace",
						"label": "bool",
						"numberOfBytes": "1"
					},
					"t_mapping(t_address,t_uint256)": {
						"encoding": "mapping",
						"key": "t_address",
						"label": "mapping(address => uint256)",
						"numberOfBytes": "32",
						"value": "t_uint256"
					},
					"t_uint256": {
						"encoding": "inplace",
						"label": "uint256",
						"numberOfBytes": "32"
					}
				}
			},
			"userdoc": {
				"kind": "user",
				"methods": {},
				"version": 1
			}
		}
	}
}