{
	"contracts/VotingSystem.sol": {
		"VotingSystem": {
			"abi": [
				{
					"inputs": [
						{
							"internalType": "string[]",
							"name": "proposalNames",
							"type": "string[]"
						},
						{
							"internalType": "uint256",
							"name": "_durationInSeconds",
							"type": "uint256"
						}
					],
					"stateMutability": "nonpayable",
					"type": "constructor"
				},
				{
					"inputs": [],
					"name": "chairperson",
					"outputs": [
						{
							"internalType": "address",
							"name": "",
							"type": "address"
						}
					],
					"stateMutability": "view",
					"type": "function"
				},
				{
					"inputs": [],
					"name": "getTimeLeft",
					"outputs": [
						{
							"internalType": "uint256",
							"name": "",
							"type": "uint256"
						}
					],
					"stateMutability": "view",
					"type": "function"
				},
				{
					"inputs": [
						{
							"internalType": "address",
							"name": "voter",
							"type": "address"
						},
						{
							"internalType": "uint256",
							"name": "weight",
							"type": "uint256"
						}
					],
					"name": "giveRightToVote",
					"outputs": [],
					"stateMutability": "nonpayable",
					"type": "function"
				},
				{
					"inputs": [
						{
							"internalType": "uint256",
							"name": "",
							"type": "uint256"
						}
					],
					"name": "proposals",
					"outputs": [
						{
							"internalType": "string",
							"name": "name",
							"type": "string"
						},
						{
							"internalType": "uint256",
							"name": "voteCount",
							"type": "uint256"
						}
					],
					"stateMutability": "view",
					"type": "function"
				},
				{
					"inputs": [
						{
							"internalType": "uint256",
							"name": "proposalIndex",
							"type": "uint256"
						}
					],
					"name": "vote",
					"outputs": [],
					"stateMutability": "nonpayable",
					"type": "function"
				},
				{
					"inputs": [
						{
							"internalType": "address",
							"name": "",
							"type": "address"
						}
					],
					"name": "voters",
					"outputs": [
						{
							"internalType": "uint256",
							"name": "weight",
							"type": "uint256"
						},
						{
							"internalType": "bool",
							"name": "voted",
							"type": "bool"
						},
						{
							"internalType": "uint256",
							"name": "vote",
							"type": "uint256"
						}
					],
					"stateMutability": "view",
					"type": "function"
				},
				{
					"inputs": [],
					"name": "votingDeadline",
					"outputs": [
						{
							"internalType": "uint256",
							"name": "",
							"type": "uint256"
						}
					],
					"stateMutability": "view",
					"type": "function"
				}
			],
			"devdoc": {
				"kind": "dev",
				"methods": {},
				"version": 1
			},
			"evm": {
				"assembly": "    /* \"contracts/VotingSystem.sol\":61:2172  contract VotingSystem {... */\n  mstore(0x40, 0x80)\n    /* \"contracts/VotingSystem.sol\":527:1041  constructor(string[] memory proposalNames, uint _durationInSeconds) {... */\n  callvalue\n  dup1\n  iszero\n  tag_1\n  jumpi\n  revert(0x00, 0x00)\ntag_1:\n  pop\n  mload(0x40)\n  sub(codesize, bytecodeSize)\n  dup1\n  bytecodeSize\n  dup4\n  codecopy\n  dup2\n  dup2\n  add\n  0x40\n  mstore\n  dup2\n  add\n  swap1\n  tag_2\n  swap2\n  swap1\n  tag_3\n  jump\t// in\ntag_2:\n    /* \"contracts/VotingSystem.sol\":620:630  msg.sender */\n  caller\n    /* \"contracts/VotingSystem.sol\":606:617  chairperson */\n  0x00\n  0x00\n    /* \"contracts/VotingSystem.sol\":606:630  chairperson = msg.sender */\n  0x0100\n  exp\n  dup2\n  sload\n  dup2\n  0xffffffffffffffffffffffffffffffffffffffff\n  mul\n  not\n  and\n  swap1\n  dup4\n  0xffffffffffffffffffffffffffffffffffffffff\n  and\n  mul\n  or\n  swap1\n  sstore\n  pop\n    /* \"contracts/VotingSystem.sol\":670:671  1 */\n  0x01\n    /* \"contracts/VotingSystem.sol\":641:647  voters */\n  dup1\n    /* \"contracts/VotingSystem.sol\":641:660  voters[chairperson] */\n  0x00\n    /* \"contracts/VotingSystem.sol\":648:659  chairperson */\n  0x00\n  0x00\n  swap1\n  sload\n  swap1\n  0x0100\n  exp\n  swap1\n  div\n  0xffffffffffffffffffffffffffffffffffffffff\n  and\n    /* \"contracts/VotingSystem.sol\":641:660  voters[chairperson] */\n  0xffffffffffffffffffffffffffffffffffffffff\n  and\n  0xffffffffffffffffffffffffffffffffffffffff\n  and\n  dup2\n  mstore\n  0x20\n  add\n  swap1\n  dup2\n  mstore\n  0x20\n  add\n  0x00\n  keccak256\n    /* \"contracts/VotingSystem.sol\":641:667  voters[chairperson].weight */\n  0x00\n  add\n    /* \"contracts/VotingSystem.sol\":641:671  voters[chairperson].weight = 1 */\n  dup2\n  swap1\n  sstore\n  pop\n    /* \"contracts/VotingSystem.sol\":815:833  _durationInSeconds */\n  dup1\n    /* \"contracts/VotingSystem.sol\":797:812  block.timestamp */\n  timestamp\n    /* \"contracts/VotingSystem.sol\":797:833  block.timestamp + _durationInSeconds */\n  tag_6\n  swap2\n  swap1\n  tag_7\n  jump\t// in\ntag_6:\n    /* \"contracts/VotingSystem.sol\":780:794  votingDeadline */\n  0x03\n    /* \"contracts/VotingSystem.sol\":780:833  votingDeadline = block.timestamp + _durationInSeconds */\n  dup2\n  swap1\n  sstore\n  pop\n    /* \"contracts/VotingSystem.sol\":851:857  uint i */\n  0x00\n    /* \"contracts/VotingSystem.sol\":860:861  0 */\n  0x00\n    /* \"contracts/VotingSystem.sol\":851:861  uint i = 0 */\n  swap1\n  pop\n    /* \"contracts/VotingSystem.sol\":846:1034  for (uint i = 0; i < proposalNames.length; i++) {... */\ntag_8:\n    /* \"contracts/VotingSystem.sol\":867:880  proposalNames */\n  dup3\n    /* \"contracts/VotingSystem.sol\":867:887  proposalNames.length */\n  mload\n    /* \"contracts/VotingSystem.sol\":863:864  i */\n  dup2\n    /* \"contracts/VotingSystem.sol\":863:887  i < proposalNames.length */\n  lt\n    /* \"contracts/VotingSystem.sol\":846:1034  for (uint i = 0; i < proposalNames.length; i++) {... */\n  iszero\n  tag_9\n  jumpi\n    /* \"contracts/VotingSystem.sol\":909:918  proposals */\n  0x02\n    /* \"contracts/VotingSystem.sol\":924:1021  Proposal({... */\n  mload(0x40)\n  dup1\n  0x40\n  add\n  0x40\n  mstore\n  dup1\n    /* \"contracts/VotingSystem.sol\":958:971  proposalNames */\n  dup6\n    /* \"contracts/VotingSystem.sol\":972:973  i */\n  dup5\n    /* \"contracts/VotingSystem.sol\":958:974  proposalNames[i] */\n  dup2\n  mload\n  dup2\n  lt\n  tag_11\n  jumpi\n  tag_12\n  tag_13\n  jump\t// in\ntag_12:\ntag_11:\n  0x20\n  mul\n  0x20\n  add\n  add\n  mload\n    /* \"contracts/VotingSystem.sol\":924:1021  Proposal({... */\n  dup2\n  mstore\n  0x20\n  add\n    /* \"contracts/VotingSystem.sol\":1004:1005  0 */\n  0x00\n    /* \"contracts/VotingSystem.sol\":924:1021  Proposal({... */\n  dup2\n  mstore\n  pop\n    /* \"contracts/VotingSystem.sol\":909:1022  proposals.push(Proposal({... */\n  swap1\n  dup1\n  0x01\n  dup2\n  sload\n  add\n  dup1\n  dup3\n  sstore\n  dup1\n  swap2\n  pop\n  pop\n  0x01\n  swap1\n  sub\n  swap1\n  0x00\n  mstore\n  keccak256(0x00, 0x20)\n  swap1\n  0x02\n  mul\n  add\n  0x00\n  swap1\n  swap2\n  swap1\n  swap2\n  swap1\n  swap2\n  pop\n  0x00\n  dup3\n  add\n  mload\n  dup2\n  0x00\n  add\n  swap1\n  dup2\n  tag_15\n  swap2\n  swap1\n  tag_16\n  jump\t// in\ntag_15:\n  pop\n  0x20\n  dup3\n  add\n  mload\n  dup2\n  0x01\n  add\n  sstore\n  pop\n  pop\n    /* \"contracts/VotingSystem.sol\":889:892  i++ */\n  dup1\n  dup1\n  0x01\n  add\n  swap2\n  pop\n  pop\n    /* \"contracts/VotingSystem.sol\":846:1034  for (uint i = 0; i < proposalNames.length; i++) {... */\n  jump(tag_8)\ntag_9:\n  pop\n    /* \"contracts/VotingSystem.sol\":527:1041  constructor(string[] memory proposalNames, uint _durationInSeconds) {... */\n  pop\n  pop\n    /* \"contracts/VotingSystem.sol\":61:2172  contract VotingSystem {... */\n  jump(tag_17)\n    /* \"#utility.yul\":7:82   */\ntag_18:\n    /* \"#utility.yul\":40:46   */\n  0x00\n    /* \"#utility.yul\":73:75   */\n  0x40\n    /* \"#utility.yul\":67:76   */\n  mload\n    /* \"#utility.yul\":57:76   */\n  swap1\n  pop\n    /* \"#utility.yul\":7:82   */\n  swap1\n  jump\t// out\n    /* \"#utility.yul\":88:205   */\ntag_19:\n    /* \"#utility.yul\":197:198   */\n  0x00\n    /* \"#utility.yul\":194:195   */\n  0x00\n    /* \"#utility.yul\":187:199   */\n  revert\n    /* \"#utility.yul\":211:328   */\ntag_20:\n    /* \"#utility.yul\":320:321   */\n  0x00\n    /* \"#utility.yul\":317:318   */\n  0x00\n    /* \"#utility.yul\":310:322   */\n  revert\n    /* \"#utility.yul\":334:451   */\ntag_21:\n    /* \"#utility.yul\":443:444   */\n  0x00\n    /* \"#utility.yul\":440:441   */\n  0x00\n    /* \"#utility.yul\":433:445   */\n  revert\n    /* \"#utility.yul\":457:559   */\ntag_22:\n    /* \"#utility.yul\":498:504   */\n  0x00\n    /* \"#utility.yul\":549:551   */\n  0x1f\n    /* \"#utility.yul\":545:552   */\n  not\n    /* \"#utility.yul\":540:542   */\n  0x1f\n    /* \"#utility.yul\":533:538   */\n  dup4\n    /* \"#utility.yul\":529:543   */\n  add\n    /* \"#utility.yul\":525:553   */\n  and\n    /* \"#utility.yul\":515:553   */\n  swap1\n  pop\n    /* \"#utility.yul\":457:559   */\n  swap2\n  swap1\n  pop\n  jump\t// out\n    /* \"#utility.yul\":565:745   */\ntag_23:\n    /* \"#utility.yul\":613:690   */\n  0x4e487b7100000000000000000000000000000000000000000000000000000000\n    /* \"#utility.yul\":610:611   */\n  0x00\n    /* \"#utility.yul\":603:691   */\n  mstore\n    /* \"#utility.yul\":710:714   */\n  0x41\n    /* \"#utility.yul\":707:708   */\n  0x04\n    /* \"#utility.yul\":700:715   */\n  mstore\n    /* \"#utility.yul\":734:738   */\n  0x24\n    /* \"#utility.yul\":731:732   */\n  0x00\n    /* \"#utility.yul\":724:739   */\n  revert\n    /* \"#utility.yul\":751:1032   */\ntag_24:\n    /* \"#utility.yul\":834:861   */\n  tag_65\n    /* \"#utility.yul\":856:860   */\n  dup3\n    /* \"#utility.yul\":834:861   */\n  tag_22\n  jump\t// in\ntag_65:\n    /* \"#utility.yul\":826:832   */\n  dup2\n    /* \"#utility.yul\":822:862   */\n  add\n    /* \"#utility.yul\":964:970   */\n  dup2\n    /* \"#utility.yul\":952:962   */\n  dup2\n    /* \"#utility.yul\":949:971   */\n  lt\n    /* \"#utility.yul\":928:946   */\n  0xffffffffffffffff\n    /* \"#utility.yul\":916:926   */\n  dup3\n    /* \"#utility.yul\":913:947   */\n  gt\n    /* \"#utility.yul\":910:972   */\n  or\n    /* \"#utility.yul\":907:995   */\n  iszero\n  tag_66\n  jumpi\n    /* \"#utility.yul\":975:993   */\n  tag_67\n  tag_23\n  jump\t// in\ntag_67:\n    /* \"#utility.yul\":907:995   */\ntag_66:\n    /* \"#utility.yul\":1015:1025   */\n  dup1\n    /* \"#utility.yul\":1011:1013   */\n  0x40\n    /* \"#utility.yul\":1004:1026   */\n  mstore\n    /* \"#utility.yul\":794:1032   */\n  pop\n    /* \"#utility.yul\":751:1032   */\n  pop\n  pop\n  jump\t// out\n    /* \"#utility.yul\":1038:1167   */\ntag_25:\n    /* \"#utility.yul\":1072:1078   */\n  0x00\n    /* \"#utility.yul\":1099:1119   */\n  tag_69\n  tag_18\n  jump\t// in\ntag_69:\n    /* \"#utility.yul\":1089:1119   */\n  swap1\n  pop\n    /* \"#utility.yul\":1128:1161   */\n  tag_70\n    /* \"#utility.yul\":1156:1160   */\n  dup3\n    /* \"#utility.yul\":1148:1154   */\n  dup3\n    /* \"#utility.yul\":1128:1161   */\n  tag_24\n  jump\t// in\ntag_70:\n    /* \"#utility.yul\":1038:1167   */\n  swap2\n  swap1\n  pop\n  jump\t// out\n    /* \"#utility.yul\":1173:1494   */\ntag_26:\n    /* \"#utility.yul\":1260:1264   */\n  0x00\n    /* \"#utility.yul\":1350:1368   */\n  0xffffffffffffffff\n    /* \"#utility.yul\":1342:1348   */\n  dup3\n    /* \"#utility.yul\":1339:1369   */\n  gt\n    /* \"#utility.yul\":1336:1392   */\n  iszero\n  tag_72\n  jumpi\n    /* \"#utility.yul\":1372:1390   */\n  tag_73\n  tag_23\n  jump\t// in\ntag_73:\n    /* \"#utility.yul\":1336:1392   */\ntag_72:\n    /* \"#utility.yul\":1422:1426   */\n  0x20\n    /* \"#utility.yul\":1414:1420   */\n  dup3\n    /* \"#utility.yul\":1410:1427   */\n  mul\n    /* \"#utility.yul\":1402:1427   */\n  swap1\n  pop\n    /* \"#utility.yul\":1482:1486   */\n  0x20\n    /* \"#utility.yul\":1476:1480   */\n  dup2\n    /* \"#utility.yul\":1472:1487   */\n  add\n    /* \"#utility.yul\":1464:1487   */\n  swap1\n  pop\n    /* \"#utility.yul\":1173:1494   */\n  swap2\n  swap1\n  pop\n  jump\t// out\n    /* \"#utility.yul\":1500:1617   */\ntag_27:\n    /* \"#utility.yul\":1609:1610   */\n  0x00\n    /* \"#utility.yul\":1606:1607   */\n  0x00\n    /* \"#utility.yul\":1599:1611   */\n  revert\n    /* \"#utility.yul\":1623:1740   */\ntag_28:\n    /* \"#utility.yul\":1732:1733   */\n  0x00\n    /* \"#utility.yul\":1729:1730   */\n  0x00\n    /* \"#utility.yul\":1722:1734   */\n  revert\n    /* \"#utility.yul\":1746:2054   */\ntag_29:\n    /* \"#utility.yul\":1808:1812   */\n  0x00\n    /* \"#utility.yul\":1898:1916   */\n  0xffffffffffffffff\n    /* \"#utility.yul\":1890:1896   */\n  dup3\n    /* \"#utility.yul\":1887:1917   */\n  gt\n    /* \"#utility.yul\":1884:1940   */\n  iszero\n  tag_77\n  jumpi\n    /* \"#utility.yul\":1920:1938   */\n  tag_78\n  tag_23\n  jump\t// in\ntag_78:\n    /* \"#utility.yul\":1884:1940   */\ntag_77:\n    /* \"#utility.yul\":1958:1987   */\n  tag_79\n    /* \"#utility.yul\":1980:1986   */\n  dup3\n    /* \"#utility.yul\":1958:1987   */\n  tag_22\n  jump\t// in\ntag_79:\n    /* \"#utility.yul\":1950:1987   */\n  swap1\n  pop\n    /* \"#utility.yul\":2042:2046   */\n  0x20\n    /* \"#utility.yul\":2036:2040   */\n  dup2\n    /* \"#utility.yul\":2032:2047   */\n  add\n    /* \"#utility.yul\":2024:2047   */\n  swap1\n  pop\n    /* \"#utility.yul\":1746:2054   */\n  swap2\n  swap1\n  pop\n  jump\t// out\n    /* \"#utility.yul\":2060:2199   */\ntag_30:\n    /* \"#utility.yul\":2149:2155   */\n  dup3\n    /* \"#utility.yul\":2144:2147   */\n  dup2\n    /* \"#utility.yul\":2139:2142   */\n  dup4\n    /* \"#utility.yul\":2133:2156   */\n  mcopy\n    /* \"#utility.yul\":2190:2191   */\n  0x00\n    /* \"#utility.yul\":2181:2187   */\n  dup4\n    /* \"#utility.yul\":2176:2179   */\n  dup4\n    /* \"#utility.yul\":2172:2188   */\n  add\n    /* \"#utility.yul\":2165:2192   */\n  mstore\n    /* \"#utility.yul\":2060:2199   */\n  pop\n  pop\n  pop\n  jump\t// out\n    /* \"#utility.yul\":2205:2639   */\ntag_31:\n    /* \"#utility.yul\":2294:2299   */\n  0x00\n    /* \"#utility.yul\":2319:2385   */\n  tag_82\n    /* \"#utility.yul\":2335:2384   */\n  tag_83\n    /* \"#utility.yul\":2377:2383   */\n  dup5\n    /* \"#utility.yul\":2335:2384   */\n  tag_29\n  jump\t// in\ntag_83:\n    /* \"#utility.yul\":2319:2385   */\n  tag_25\n  jump\t// in\ntag_82:\n    /* \"#utility.yul\":2310:2385   */\n  swap1\n  pop\n    /* \"#utility.yul\":2408:2414   */\n  dup3\n    /* \"#utility.yul\":2401:2406   */\n  dup2\n    /* \"#utility.yul\":2394:2415   */\n  mstore\n    /* \"#utility.yul\":2446:2450   */\n  0x20\n    /* \"#utility.yul\":2439:2444   */\n  dup2\n    /* \"#utility.yul\":2435:2451   */\n  add\n    /* \"#utility.yul\":2484:2487   */\n  dup5\n    /* \"#utility.yul\":2475:2481   */\n  dup5\n    /* \"#utility.yul\":2470:2473   */\n  dup5\n    /* \"#utility.yul\":2466:2482   */\n  add\n    /* \"#utility.yul\":2463:2488   */\n  gt\n    /* \"#utility.yul\":2460:2572   */\n  iszero\n  tag_84\n  jumpi\n    /* \"#utility.yul\":2491:2570   */\n  tag_85\n  tag_28\n  jump\t// in\ntag_85:\n    /* \"#utility.yul\":2460:2572   */\ntag_84:\n    /* \"#utility.yul\":2581:2633   */\n  tag_86\n    /* \"#utility.yul\":2626:2632   */\n  dup5\n    /* \"#utility.yul\":2621:2624   */\n  dup3\n    /* \"#utility.yul\":2616:2619   */\n  dup6\n    /* \"#utility.yul\":2581:2633   */\n  tag_30\n  jump\t// in\ntag_86:\n    /* \"#utility.yul\":2300:2639   */\n  pop\n    /* \"#utility.yul\":2205:2639   */\n  swap4\n  swap3\n  pop\n  pop\n  pop\n  jump\t// out\n    /* \"#utility.yul\":2659:3014   */\ntag_32:\n    /* \"#utility.yul\":2726:2731   */\n  0x00\n    /* \"#utility.yul\":2775:2778   */\n  dup3\n    /* \"#utility.yul\":2768:2772   */\n  0x1f\n    /* \"#utility.yul\":2760:2766   */\n  dup4\n    /* \"#utility.yul\":2756:2773   */\n  add\n    /* \"#utility.yul\":2752:2779   */\n  slt\n    /* \"#utility.yul\":2742:2864   */\n  tag_88\n  jumpi\n    /* \"#utility.yul\":2783:2862   */\n  tag_89\n  tag_21\n  jump\t// in\ntag_89:\n    /* \"#utility.yul\":2742:2864   */\ntag_88:\n    /* \"#utility.yul\":2893:2899   */\n  dup2\n    /* \"#utility.yul\":2887:2900   */\n  mload\n    /* \"#utility.yul\":2918:3008   */\n  tag_90\n    /* \"#utility.yul\":3004:3007   */\n  dup5\n    /* \"#utility.yul\":2996:3002   */\n  dup3\n    /* \"#utility.yul\":2989:2993   */\n  0x20\n    /* \"#utility.yul\":2981:2987   */\n  dup7\n    /* \"#utility.yul\":2977:2994   */\n  add\n    /* \"#utility.yul\":2918:3008   */\n  tag_31\n  jump\t// in\ntag_90:\n    /* \"#utility.yul\":2909:3008   */\n  swap2\n  pop\n    /* \"#utility.yul\":2732:3014   */\n  pop\n    /* \"#utility.yul\":2659:3014   */\n  swap3\n  swap2\n  pop\n  pop\n  jump\t// out\n    /* \"#utility.yul\":3036:3996   */\ntag_33:\n    /* \"#utility.yul\":3153:3158   */\n  0x00\n    /* \"#utility.yul\":3178:3269   */\n  tag_92\n    /* \"#utility.yul\":3194:3268   */\n  tag_93\n    /* \"#utility.yul\":3261:3267   */\n  dup5\n    /* \"#utility.yul\":3194:3268   */\n  tag_26\n  jump\t// in\ntag_93:\n    /* \"#utility.yul\":3178:3269   */\n  tag_25\n  jump\t// in\ntag_92:\n    /* \"#utility.yul\":3169:3269   */\n  swap1\n  pop\n    /* \"#utility.yul\":3289:3294   */\n  dup1\n    /* \"#utility.yul\":3318:3324   */\n  dup4\n    /* \"#utility.yul\":3311:3316   */\n  dup3\n    /* \"#utility.yul\":3304:3325   */\n  mstore\n    /* \"#utility.yul\":3352:3356   */\n  0x20\n    /* \"#utility.yul\":3345:3350   */\n  dup3\n    /* \"#utility.yul\":3341:3357   */\n  add\n    /* \"#utility.yul\":3334:3357   */\n  swap1\n  pop\n    /* \"#utility.yul\":3405:3409   */\n  0x20\n    /* \"#utility.yul\":3397:3403   */\n  dup5\n    /* \"#utility.yul\":3393:3410   */\n  mul\n    /* \"#utility.yul\":3385:3391   */\n  dup4\n    /* \"#utility.yul\":3381:3411   */\n  add\n    /* \"#utility.yul\":3434:3437   */\n  dup6\n    /* \"#utility.yul\":3426:3432   */\n  dup2\n    /* \"#utility.yul\":3423:3438   */\n  gt\n    /* \"#utility.yul\":3420:3542   */\n  iszero\n  tag_94\n  jumpi\n    /* \"#utility.yul\":3453:3532   */\n  tag_95\n  tag_27\n  jump\t// in\ntag_95:\n    /* \"#utility.yul\":3420:3542   */\ntag_94:\n    /* \"#utility.yul\":3568:3574   */\n  dup4\n    /* \"#utility.yul\":3551:3990   */\ntag_96:\n    /* \"#utility.yul\":3585:3591   */\n  dup2\n    /* \"#utility.yul\":3580:3583   */\n  dup2\n    /* \"#utility.yul\":3577:3592   */\n  lt\n    /* \"#utility.yul\":3551:3990   */\n  iszero\n  tag_98\n  jumpi\n    /* \"#utility.yul\":3667:3670   */\n  dup1\n    /* \"#utility.yul\":3661:3671   */\n  mload\n    /* \"#utility.yul\":3703:3721   */\n  0xffffffffffffffff\n    /* \"#utility.yul\":3690:3701   */\n  dup2\n    /* \"#utility.yul\":3687:3722   */\n  gt\n    /* \"#utility.yul\":3684:3806   */\n  iszero\n  tag_99\n  jumpi\n    /* \"#utility.yul\":3725:3804   */\n  tag_100\n  tag_21\n  jump\t// in\ntag_100:\n    /* \"#utility.yul\":3684:3806   */\ntag_99:\n    /* \"#utility.yul\":3849:3860   */\n  dup1\n    /* \"#utility.yul\":3841:3847   */\n  dup7\n    /* \"#utility.yul\":3837:3861   */\n  add\n    /* \"#utility.yul\":3887:3945   */\n  tag_101\n    /* \"#utility.yul\":3941:3944   */\n  dup10\n    /* \"#utility.yul\":3929:3939   */\n  dup3\n    /* \"#utility.yul\":3887:3945   */\n  tag_32\n  jump\t// in\ntag_101:\n    /* \"#utility.yul\":3882:3885   */\n  dup6\n    /* \"#utility.yul\":3875:3946   */\n  mstore\n    /* \"#utility.yul\":3975:3979   */\n  0x20\n    /* \"#utility.yul\":3970:3973   */\n  dup6\n    /* \"#utility.yul\":3966:3980   */\n  add\n    /* \"#utility.yul\":3959:3980   */\n  swap5\n  pop\n    /* \"#utility.yul\":3627:3990   */\n  pop\n  pop\n    /* \"#utility.yul\":3611:3615   */\n  0x20\n    /* \"#utility.yul\":3606:3609   */\n  dup2\n    /* \"#utility.yul\":3602:3616   */\n  add\n    /* \"#utility.yul\":3595:3616   */\n  swap1\n  pop\n    /* \"#utility.yul\":3551:3990   */\n  jump(tag_96)\ntag_98:\n    /* \"#utility.yul\":3555:3576   */\n  pop\n    /* \"#utility.yul\":3159:3996   */\n  pop\n  pop\n    /* \"#utility.yul\":3036:3996   */\n  swap4\n  swap3\n  pop\n  pop\n  pop\n  jump\t// out\n    /* \"#utility.yul\":4018:4423   */\ntag_34:\n    /* \"#utility.yul\":4110:4115   */\n  0x00\n    /* \"#utility.yul\":4159:4162   */\n  dup3\n    /* \"#utility.yul\":4152:4156   */\n  0x1f\n    /* \"#utility.yul\":4144:4150   */\n  dup4\n    /* \"#utility.yul\":4140:4157   */\n  add\n    /* \"#utility.yul\":4136:4163   */\n  slt\n    /* \"#utility.yul\":4126:4248   */\n  tag_103\n  jumpi\n    /* \"#utility.yul\":4167:4246   */\n  tag_104\n  tag_21\n  jump\t// in\ntag_104:\n    /* \"#utility.yul\":4126:4248   */\ntag_103:\n    /* \"#utility.yul\":4277:4283   */\n  dup2\n    /* \"#utility.yul\":4271:4284   */\n  mload\n    /* \"#utility.yul\":4302:4417   */\n  tag_105\n    /* \"#utility.yul\":4413:4416   */\n  dup5\n    /* \"#utility.yul\":4405:4411   */\n  dup3\n    /* \"#utility.yul\":4398:4402   */\n  0x20\n    /* \"#utility.yul\":4390:4396   */\n  dup7\n    /* \"#utility.yul\":4386:4403   */\n  add\n    /* \"#utility.yul\":4302:4417   */\n  tag_33\n  jump\t// in\ntag_105:\n    /* \"#utility.yul\":4293:4417   */\n  swap2\n  pop\n    /* \"#utility.yul\":4116:4423   */\n  pop\n    /* \"#utility.yul\":4018:4423   */\n  swap3\n  swap2\n  pop\n  pop\n  jump\t// out\n    /* \"#utility.yul\":4429:4506   */\ntag_35:\n    /* \"#utility.yul\":4466:4473   */\n  0x00\n    /* \"#utility.yul\":4495:4500   */\n  dup2\n    /* \"#utility.yul\":4484:4500   */\n  swap1\n  pop\n    /* \"#utility.yul\":4429:4506   */\n  swap2\n  swap1\n  pop\n  jump\t// out\n    /* \"#utility.yul\":4512:4634   */\ntag_36:\n    /* \"#utility.yul\":4585:4609   */\n  tag_108\n    /* \"#utility.yul\":4603:4608   */\n  dup2\n    /* \"#utility.yul\":4585:4609   */\n  tag_35\n  jump\t// in\ntag_108:\n    /* \"#utility.yul\":4578:4583   */\n  dup2\n    /* \"#utility.yul\":4575:4610   */\n  eq\n    /* \"#utility.yul\":4565:4628   */\n  tag_109\n  jumpi\n    /* \"#utility.yul\":4624:4625   */\n  0x00\n    /* \"#utility.yul\":4621:4622   */\n  0x00\n    /* \"#utility.yul\":4614:4626   */\n  revert\n    /* \"#utility.yul\":4565:4628   */\ntag_109:\n    /* \"#utility.yul\":4512:4634   */\n  pop\n  jump\t// out\n    /* \"#utility.yul\":4640:4783   */\ntag_37:\n    /* \"#utility.yul\":4697:4702   */\n  0x00\n    /* \"#utility.yul\":4728:4734   */\n  dup2\n    /* \"#utility.yul\":4722:4735   */\n  mload\n    /* \"#utility.yul\":4713:4735   */\n  swap1\n  pop\n    /* \"#utility.yul\":4744:4777   */\n  tag_111\n    /* \"#utility.yul\":4771:4776   */\n  dup2\n    /* \"#utility.yul\":4744:4777   */\n  tag_36\n  jump\t// in\ntag_111:\n    /* \"#utility.yul\":4640:4783   */\n  swap3\n  swap2\n  pop\n  pop\n  jump\t// out\n    /* \"#utility.yul\":4789:5519   */\ntag_3:\n    /* \"#utility.yul\":4903:4909   */\n  0x00\n    /* \"#utility.yul\":4911:4917   */\n  0x00\n    /* \"#utility.yul\":4960:4962   */\n  0x40\n    /* \"#utility.yul\":4948:4957   */\n  dup4\n    /* \"#utility.yul\":4939:4946   */\n  dup6\n    /* \"#utility.yul\":4935:4958   */\n  sub\n    /* \"#utility.yul\":4931:4963   */\n  slt\n    /* \"#utility.yul\":4928:5047   */\n  iszero\n  tag_113\n  jumpi\n    /* \"#utility.yul\":4966:5045   */\n  tag_114\n  tag_19\n  jump\t// in\ntag_114:\n    /* \"#utility.yul\":4928:5047   */\ntag_113:\n    /* \"#utility.yul\":5107:5108   */\n  0x00\n    /* \"#utility.yul\":5096:5105   */\n  dup4\n    /* \"#utility.yul\":5092:5109   */\n  add\n    /* \"#utility.yul\":5086:5110   */\n  mload\n    /* \"#utility.yul\":5137:5155   */\n  0xffffffffffffffff\n    /* \"#utility.yul\":5129:5135   */\n  dup2\n    /* \"#utility.yul\":5126:5156   */\n  gt\n    /* \"#utility.yul\":5123:5240   */\n  iszero\n  tag_115\n  jumpi\n    /* \"#utility.yul\":5159:5238   */\n  tag_116\n  tag_20\n  jump\t// in\ntag_116:\n    /* \"#utility.yul\":5123:5240   */\ntag_115:\n    /* \"#utility.yul\":5264:5363   */\n  tag_117\n    /* \"#utility.yul\":5355:5362   */\n  dup6\n    /* \"#utility.yul\":5346:5352   */\n  dup3\n    /* \"#utility.yul\":5335:5344   */\n  dup7\n    /* \"#utility.yul\":5331:5353   */\n  add\n    /* \"#utility.yul\":5264:5363   */\n  tag_34\n  jump\t// in\ntag_117:\n    /* \"#utility.yul\":5254:5363   */\n  swap3\n  pop\n    /* \"#utility.yul\":5057:5373   */\n  pop\n    /* \"#utility.yul\":5412:5414   */\n  0x20\n    /* \"#utility.yul\":5438:5502   */\n  tag_118\n    /* \"#utility.yul\":5494:5501   */\n  dup6\n    /* \"#utility.yul\":5485:5491   */\n  dup3\n    /* \"#utility.yul\":5474:5483   */\n  dup7\n    /* \"#utility.yul\":5470:5492   */\n  add\n    /* \"#utility.yul\":5438:5502   */\n  tag_37\n  jump\t// in\ntag_118:\n    /* \"#utility.yul\":5428:5502   */\n  swap2\n  pop\n    /* \"#utility.yul\":5383:5512   */\n  pop\n    /* \"#utility.yul\":4789:5519   */\n  swap3\n  pop\n  swap3\n  swap1\n  pop\n  jump\t// out\n    /* \"#utility.yul\":5525:5705   */\ntag_38:\n    /* \"#utility.yul\":5573:5650   */\n  0x4e487b7100000000000000000000000000000000000000000000000000000000\n    /* \"#utility.yul\":5570:5571   */\n  0x00\n    /* \"#utility.yul\":5563:5651   */\n  mstore\n    /* \"#utility.yul\":5670:5674   */\n  0x11\n    /* \"#utility.yul\":5667:5668   */\n  0x04\n    /* \"#utility.yul\":5660:5675   */\n  mstore\n    /* \"#utility.yul\":5694:5698   */\n  0x24\n    /* \"#utility.yul\":5691:5692   */\n  0x00\n    /* \"#utility.yul\":5684:5699   */\n  revert\n    /* \"#utility.yul\":5711:5902   */\ntag_7:\n    /* \"#utility.yul\":5751:5754   */\n  0x00\n    /* \"#utility.yul\":5770:5790   */\n  tag_121\n    /* \"#utility.yul\":5788:5789   */\n  dup3\n    /* \"#utility.yul\":5770:5790   */\n  tag_35\n  jump\t// in\ntag_121:\n    /* \"#utility.yul\":5765:5790   */\n  swap2\n  pop\n    /* \"#utility.yul\":5804:5824   */\n  tag_122\n    /* \"#utility.yul\":5822:5823   */\n  dup4\n    /* \"#utility.yul\":5804:5824   */\n  tag_35\n  jump\t// in\ntag_122:\n    /* \"#utility.yul\":5799:5824   */\n  swap3\n  pop\n    /* \"#utility.yul\":5847:5848   */\n  dup3\n    /* \"#utility.yul\":5844:5845   */\n  dup3\n    /* \"#utility.yul\":5840:5849   */\n  add\n    /* \"#utility.yul\":5833:5849   */\n  swap1\n  pop\n    /* \"#utility.yul\":5868:5871   */\n  dup1\n    /* \"#utility.yul\":5865:5866   */\n  dup3\n    /* \"#utility.yul\":5862:5872   */\n  gt\n    /* \"#utility.yul\":5859:5895   */\n  iszero\n  tag_123\n  jumpi\n    /* \"#utility.yul\":5875:5893   */\n  tag_124\n  tag_38\n  jump\t// in\ntag_124:\n    /* \"#utility.yul\":5859:5895   */\ntag_123:\n    /* \"#utility.yul\":5711:5902   */\n  swap3\n  swap2\n  pop\n  pop\n  jump\t// out\n    /* \"#utility.yul\":5908:6088   */\ntag_13:\n    /* \"#utility.yul\":5956:6033   */\n  0x4e487b7100000000000000000000000000000000000000000000000000000000\n    /* \"#utility.yul\":5953:5954   */\n  0x00\n    /* \"#utility.yul\":5946:6034   */\n  mstore\n    /* \"#utility.yul\":6053:6057   */\n  0x32\n    /* \"#utility.yul\":6050:6051   */\n  0x04\n    /* \"#utility.yul\":6043:6058   */\n  mstore\n    /* \"#utility.yul\":6077:6081   */\n  0x24\n    /* \"#utility.yul\":6074:6075   */\n  0x00\n    /* \"#utility.yul\":6067:6082   */\n  revert\n    /* \"#utility.yul\":6094:6193   */\ntag_39:\n    /* \"#utility.yul\":6146:6152   */\n  0x00\n    /* \"#utility.yul\":6180:6185   */\n  dup2\n    /* \"#utility.yul\":6174:6186   */\n  mload\n    /* \"#utility.yul\":6164:6186   */\n  swap1\n  pop\n    /* \"#utility.yul\":6094:6193   */\n  swap2\n  swap1\n  pop\n  jump\t// out\n    /* \"#utility.yul\":6199:6379   */\ntag_40:\n    /* \"#utility.yul\":6247:6324   */\n  0x4e487b7100000000000000000000000000000000000000000000000000000000\n    /* \"#utility.yul\":6244:6245   */\n  0x00\n    /* \"#utility.yul\":6237:6325   */\n  mstore\n    /* \"#utility.yul\":6344:6348   */\n  0x22\n    /* \"#utility.yul\":6341:6342   */\n  0x04\n    /* \"#utility.yul\":6334:6349   */\n  mstore\n    /* \"#utility.yul\":6368:6372   */\n  0x24\n    /* \"#utility.yul\":6365:6366   */\n  0x00\n    /* \"#utility.yul\":6358:6373   */\n  revert\n    /* \"#utility.yul\":6385:6705   */\ntag_41:\n    /* \"#utility.yul\":6429:6435   */\n  0x00\n    /* \"#utility.yul\":6466:6467   */\n  0x02\n    /* \"#utility.yul\":6460:6464   */\n  dup3\n    /* \"#utility.yul\":6456:6468   */\n  div\n    /* \"#utility.yul\":6446:6468   */\n  swap1\n  pop\n    /* \"#utility.yul\":6513:6514   */\n  0x01\n    /* \"#utility.yul\":6507:6511   */\n  dup3\n    /* \"#utility.yul\":6503:6515   */\n  and\n    /* \"#utility.yul\":6534:6552   */\n  dup1\n    /* \"#utility.yul\":6524:6605   */\n  tag_129\n  jumpi\n    /* \"#utility.yul\":6590:6594   */\n  0x7f\n    /* \"#utility.yul\":6582:6588   */\n  dup3\n    /* \"#utility.yul\":6578:6595   */\n  and\n    /* \"#utility.yul\":6568:6595   */\n  swap2\n  pop\n    /* \"#utility.yul\":6524:6605   */\ntag_129:\n    /* \"#utility.yul\":6652:6654   */\n  0x20\n    /* \"#utility.yul\":6644:6650   */\n  dup3\n    /* \"#utility.yul\":6641:6655   */\n  lt\n    /* \"#utility.yul\":6621:6639   */\n  dup2\n    /* \"#utility.yul\":6618:6656   */\n  sub\n    /* \"#utility.yul\":6615:6699   */\n  tag_130\n  jumpi\n    /* \"#utility.yul\":6671:6689   */\n  tag_131\n  tag_40\n  jump\t// in\ntag_131:\n    /* \"#utility.yul\":6615:6699   */\ntag_130:\n    /* \"#utility.yul\":6436:6705   */\n  pop\n    /* \"#utility.yul\":6385:6705   */\n  swap2\n  swap1\n  pop\n  jump\t// out\n    /* \"#utility.yul\":6711:6852   */\ntag_42:\n    /* \"#utility.yul\":6760:6764   */\n  0x00\n    /* \"#utility.yul\":6783:6786   */\n  dup2\n    /* \"#utility.yul\":6775:6786   */\n  swap1\n  pop\n    /* \"#utility.yul\":6806:6809   */\n  dup2\n    /* \"#utility.yul\":6803:6804   */\n  0x00\n    /* \"#utility.yul\":6796:6810   */\n  mstore\n    /* \"#utility.yul\":6840:6844   */\n  0x20\n    /* \"#utility.yul\":6837:6838   */\n  0x00\n    /* \"#utility.yul\":6827:6845   */\n  keccak256\n    /* \"#utility.yul\":6819:6845   */\n  swap1\n  pop\n    /* \"#utility.yul\":6711:6852   */\n  swap2\n  swap1\n  pop\n  jump\t// out\n    /* \"#utility.yul\":6858:6951   */\ntag_43:\n    /* \"#utility.yul\":6895:6901   */\n  0x00\n    /* \"#utility.yul\":6942:6944   */\n  0x20\n    /* \"#utility.yul\":6937:6939   */\n  0x1f\n    /* \"#utility.yul\":6930:6935   */\n  dup4\n    /* \"#utility.yul\":6926:6940   */\n  add\n    /* \"#utility.yul\":6922:6945   */\n  div\n    /* \"#utility.yul\":6912:6945   */\n  swap1\n  pop\n    /* \"#utility.yul\":6858:6951   */\n  swap2\n  swap1\n  pop\n  jump\t// out\n    /* \"#utility.yul\":6957:7064   */\ntag_44:\n    /* \"#utility.yul\":7001:7009   */\n  0x00\n    /* \"#utility.yul\":7051:7056   */\n  dup3\n    /* \"#utility.yul\":7045:7049   */\n  dup3\n    /* \"#utility.yul\":7041:7057   */\n  shl\n    /* \"#utility.yul\":7020:7057   */\n  swap1\n  pop\n    /* \"#utility.yul\":6957:7064   */\n  swap3\n  swap2\n  pop\n  pop\n  jump\t// out\n    /* \"#utility.yul\":7070:7463   */\ntag_45:\n    /* \"#utility.yul\":7139:7145   */\n  0x00\n    /* \"#utility.yul\":7189:7190   */\n  0x08\n    /* \"#utility.yul\":7177:7187   */\n  dup4\n    /* \"#utility.yul\":7173:7191   */\n  mul\n    /* \"#utility.yul\":7212:7309   */\n  tag_136\n    /* \"#utility.yul\":7242:7308   */\n  0xffffffffffffffffffffffffffffffffffffffffffffffffffffffffffffffff\n    /* \"#utility.yul\":7231:7240   */\n  dup3\n    /* \"#utility.yul\":7212:7309   */\n  tag_44\n  jump\t// in\ntag_136:\n    /* \"#utility.yul\":7330:7369   */\n  tag_137\n    /* \"#utility.yul\":7360:7368   */\n  dup7\n    /* \"#utility.yul\":7349:7358   */\n  dup4\n    /* \"#utility.yul\":7330:7369   */\n  tag_44\n  jump\t// in\ntag_137:\n    /* \"#utility.yul\":7318:7369   */\n  swap6\n  pop\n    /* \"#utility.yul\":7402:7406   */\n  dup1\n    /* \"#utility.yul\":7398:7407   */\n  not\n    /* \"#utility.yul\":7391:7396   */\n  dup5\n    /* \"#utility.yul\":7387:7408   */\n  and\n    /* \"#utility.yul\":7378:7408   */\n  swap4\n  pop\n    /* \"#utility.yul\":7451:7455   */\n  dup1\n    /* \"#utility.yul\":7441:7449   */\n  dup7\n    /* \"#utility.yul\":7437:7456   */\n  and\n    /* \"#utility.yul\":7430:7435   */\n  dup5\n    /* \"#utility.yul\":7427:7457   */\n  or\n    /* \"#utility.yul\":7417:7457   */\n  swap3\n  pop\n    /* \"#utility.yul\":7146:7463   */\n  pop\n  pop\n    /* \"#utility.yul\":7070:7463   */\n  swap4\n  swap3\n  pop\n  pop\n  pop\n  jump\t// out\n    /* \"#utility.yul\":7469:7529   */\ntag_46:\n    /* \"#utility.yul\":7497:7500   */\n  0x00\n    /* \"#utility.yul\":7518:7523   */\n  dup2\n    /* \"#utility.yul\":7511:7523   */\n  swap1\n  pop\n    /* \"#utility.yul\":7469:7529   */\n  swap2\n  swap1\n  pop\n  jump\t// out\n    /* \"#utility.yul\":7535:7677   */\ntag_47:\n    /* \"#utility.yul\":7585:7594   */\n  0x00\n    /* \"#utility.yul\":7618:7671   */\n  tag_140\n    /* \"#utility.yul\":7636:7670   */\n  tag_141\n    /* \"#utility.yul\":7645:7669   */\n  tag_142\n    /* \"#utility.yul\":7663:7668   */\n  dup5\n    /* \"#utility.yul\":7645:7669   */\n  tag_35\n  jump\t// in\ntag_142:\n    /* \"#utility.yul\":7636:7670   */\n  tag_46\n  jump\t// in\ntag_141:\n    /* \"#utility.yul\":7618:7671   */\n  tag_35\n  jump\t// in\ntag_140:\n    /* \"#utility.yul\":7605:7671   */\n  swap1\n  pop\n    /* \"#utility.yul\":7535:7677   */\n  swap2\n  swap1\n  pop\n  jump\t// out\n    /* \"#utility.yul\":7683:7758   */\ntag_48:\n    /* \"#utility.yul\":7726:7729   */\n  0x00\n    /* \"#utility.yul\":7747:7752   */\n  dup2\n    /* \"#utility.yul\":7740:7752   */\n  swap1\n  pop\n    /* \"#utility.yul\":7683:7758   */\n  swap2\n  swap1\n  pop\n  jump\t// out\n    /* \"#utility.yul\":7764:8033   */\ntag_49:\n    /* \"#utility.yul\":7874:7913   */\n  tag_145\n    /* \"#utility.yul\":7905:7912   */\n  dup4\n    /* \"#utility.yul\":7874:7913   */\n  tag_47\n  jump\t// in\ntag_145:\n    /* \"#utility.yul\":7935:8026   */\n  tag_146\n    /* \"#utility.yul\":7984:8025   */\n  tag_147\n    /* \"#utility.yul\":8008:8024   */\n  dup3\n    /* \"#utility.yul\":7984:8025   */\n  tag_48\n  jump\t// in\ntag_147:\n    /* \"#utility.yul\":7976:7982   */\n  dup5\n    /* \"#utility.yul\":7969:7973   */\n  dup5\n    /* \"#utility.yul\":7963:7974   */\n  sload\n    /* \"#utility.yul\":7935:8026   */\n  tag_45\n  jump\t// in\ntag_146:\n    /* \"#utility.yul\":7929:7933   */\n  dup3\n    /* \"#utility.yul\":7922:8027   */\n  sstore\n    /* \"#utility.yul\":7840:8033   */\n  pop\n    /* \"#utility.yul\":7764:8033   */\n  pop\n  pop\n  pop\n  jump\t// out\n    /* \"#utility.yul\":8039:8112   */\ntag_50:\n    /* \"#utility.yul\":8084:8087   */\n  0x00\n    /* \"#utility.yul\":8105:8106   */\n  0x00\n    /* \"#utility.yul\":8098:8106   */\n  swap1\n  pop\n    /* \"#utility.yul\":8039:8112   */\n  swap1\n  jump\t// out\n    /* \"#utility.yul\":8118:8307   */\ntag_51:\n    /* \"#utility.yul\":8195:8227   */\n  tag_150\n  tag_50\n  jump\t// in\ntag_150:\n    /* \"#utility.yul\":8236:8301   */\n  tag_151\n    /* \"#utility.yul\":8294:8300   */\n  dup2\n    /* \"#utility.yul\":8286:8292   */\n  dup5\n    /* \"#utility.yul\":8280:8284   */\n  dup5\n    /* \"#utility.yul\":8236:8301   */\n  tag_49\n  jump\t// in\ntag_151:\n    /* \"#utility.yul\":8171:8307   */\n  pop\n    /* \"#utility.yul\":8118:8307   */\n  pop\n  pop\n  jump\t// out\n    /* \"#utility.yul\":8313:8499   */\ntag_52:\n    /* \"#utility.yul\":8373:8493   */\ntag_153:\n    /* \"#utility.yul\":8390:8393   */\n  dup2\n    /* \"#utility.yul\":8383:8388   */\n  dup2\n    /* \"#utility.yul\":8380:8394   */\n  lt\n    /* \"#utility.yul\":8373:8493   */\n  iszero\n  tag_155\n  jumpi\n    /* \"#utility.yul\":8444:8483   */\n  tag_156\n    /* \"#utility.yul\":8481:8482   */\n  0x00\n    /* \"#utility.yul\":8474:8479   */\n  dup3\n    /* \"#utility.yul\":8444:8483   */\n  tag_51\n  jump\t// in\ntag_156:\n    /* \"#utility.yul\":8417:8418   */\n  0x01\n    /* \"#utility.yul\":8410:8415   */\n  dup2\n    /* \"#utility.yul\":8406:8419   */\n  add\n    /* \"#utility.yul\":8397:8419   */\n  swap1\n  pop\n    /* \"#utility.yul\":8373:8493   */\n  jump(tag_153)\ntag_155:\n    /* \"#utility.yul\":8313:8499   */\n  pop\n  pop\n  jump\t// out\n    /* \"#utility.yul\":8505:9048   */\ntag_53:\n    /* \"#utility.yul\":8606:8608   */\n  0x1f\n    /* \"#utility.yul\":8601:8604   */\n  dup3\n    /* \"#utility.yul\":8598:8609   */\n  gt\n    /* \"#utility.yul\":8595:9041   */\n  iszero\n  tag_158\n  jumpi\n    /* \"#utility.yul\":8640:8678   */\n  tag_159\n    /* \"#utility.yul\":8672:8677   */\n  dup2\n    /* \"#utility.yul\":8640:8678   */\n  tag_42\n  jump\t// in\ntag_159:\n    /* \"#utility.yul\":8724:8753   */\n  tag_160\n    /* \"#utility.yul\":8742:8752   */\n  dup5\n    /* \"#utility.yul\":8724:8753   */\n  tag_43\n  jump\t// in\ntag_160:\n    /* \"#utility.yul\":8714:8722   */\n  dup2\n    /* \"#utility.yul\":8710:8754   */\n  add\n    /* \"#utility.yul\":8907:8909   */\n  0x20\n    /* \"#utility.yul\":8895:8905   */\n  dup6\n    /* \"#utility.yul\":8892:8910   */\n  lt\n    /* \"#utility.yul\":8889:8938   */\n  iszero\n  tag_161\n  jumpi\n    /* \"#utility.yul\":8928:8936   */\n  dup2\n    /* \"#utility.yul\":8913:8936   */\n  swap1\n  pop\n    /* \"#utility.yul\":8889:8938   */\ntag_161:\n    /* \"#utility.yul\":8951:9031   */\n  tag_162\n    /* \"#utility.yul\":9007:9029   */\n  tag_163\n    /* \"#utility.yul\":9025:9028   */\n  dup6\n    /* \"#utility.yul\":9007:9029   */\n  tag_43\n  jump\t// in\ntag_163:\n    /* \"#utility.yul\":8997:9005   */\n  dup4\n    /* \"#utility.yul\":8993:9030   */\n  add\n    /* \"#utility.yul\":8980:8991   */\n  dup3\n    /* \"#utility.yul\":8951:9031   */\n  tag_52\n  jump\t// in\ntag_162:\n    /* \"#utility.yul\":8610:9041   */\n  pop\n  pop\n    /* \"#utility.yul\":8595:9041   */\ntag_158:\n    /* \"#utility.yul\":8505:9048   */\n  pop\n  pop\n  pop\n  jump\t// out\n    /* \"#utility.yul\":9054:9171   */\ntag_54:\n    /* \"#utility.yul\":9108:9116   */\n  0x00\n    /* \"#utility.yul\":9158:9163   */\n  dup3\n    /* \"#utility.yul\":9152:9156   */\n  dup3\n    /* \"#utility.yul\":9148:9164   */\n  shr\n    /* \"#utility.yul\":9127:9164   */\n  swap1\n  pop\n    /* \"#utility.yul\":9054:9171   */\n  swap3\n  swap2\n  pop\n  pop\n  jump\t// out\n    /* \"#utility.yul\":9177:9346   */\ntag_55:\n    /* \"#utility.yul\":9221:9227   */\n  0x00\n    /* \"#utility.yul\":9254:9305   */\n  tag_166\n    /* \"#utility.yul\":9302:9303   */\n  0x00\n    /* \"#utility.yul\":9298:9304   */\n  not\n    /* \"#utility.yul\":9290:9295   */\n  dup5\n    /* \"#utility.yul\":9287:9288   */\n  0x08\n    /* \"#utility.yul\":9283:9296   */\n  mul\n    /* \"#utility.yul\":9254:9305   */\n  tag_54\n  jump\t// in\ntag_166:\n    /* \"#utility.yul\":9250:9306   */\n  not\n    /* \"#utility.yul\":9335:9339   */\n  dup1\n    /* \"#utility.yul\":9329:9333   */\n  dup4\n    /* \"#utility.yul\":9325:9340   */\n  and\n    /* \"#utility.yul\":9315:9340   */\n  swap2\n  pop\n    /* \"#utility.yul\":9228:9346   */\n  pop\n    /* \"#utility.yul\":9177:9346   */\n  swap3\n  swap2\n  pop\n  pop\n  jump\t// out\n    /* \"#utility.yul\":9351:9646   */\ntag_56:\n    /* \"#utility.yul\":9427:9431   */\n  0x00\n    /* \"#utility.yul\":9573:9602   */\n  tag_168\n    /* \"#utility.yul\":9598:9601   */\n  dup4\n    /* \"#utility.yul\":9592:9596   */\n  dup4\n    /* \"#utility.yul\":9573:9602   */\n  tag_55\n  jump\t// in\ntag_168:\n    /* \"#utility.yul\":9565:9602   */\n  swap2\n  pop\n    /* \"#utility.yul\":9635:9638   */\n  dup3\n    /* \"#utility.yul\":9632:9633   */\n  0x02\n    /* \"#utility.yul\":9628:9639   */\n  mul\n    /* \"#utility.yul\":9622:9626   */\n  dup3\n    /* \"#utility.yul\":9619:9640   */\n  or\n    /* \"#utility.yul\":9611:9640   */\n  swap1\n  pop\n    /* \"#utility.yul\":9351:9646   */\n  swap3\n  swap2\n  pop\n  pop\n  jump\t// out\n    /* \"#utility.yul\":9651:11046   */\ntag_16:\n    /* \"#utility.yul\":9768:9805   */\n  tag_170\n    /* \"#utility.yul\":9801:9804   */\n  dup3\n    /* \"#utility.yul\":9768:9805   */\n  tag_39\n  jump\t// in\ntag_170:\n    /* \"#utility.yul\":9870:9888   */\n  0xffffffffffffffff\n    /* \"#utility.yul\":9862:9868   */\n  dup2\n    /* \"#utility.yul\":9859:9889   */\n  gt\n    /* \"#utility.yul\":9856:9912   */\n  iszero\n  tag_171\n  jumpi\n    /* \"#utility.yul\":9892:9910   */\n  tag_172\n  tag_23\n  jump\t// in\ntag_172:\n    /* \"#utility.yul\":9856:9912   */\ntag_171:\n    /* \"#utility.yul\":9936:9974   */\n  tag_173\n    /* \"#utility.yul\":9968:9972   */\n  dup3\n    /* \"#utility.yul\":9962:9973   */\n  sload\n    /* \"#utility.yul\":9936:9974   */\n  tag_41\n  jump\t// in\ntag_173:\n    /* \"#utility.yul\":10021:10088   */\n  tag_174\n    /* \"#utility.yul\":10081:10087   */\n  dup3\n    /* \"#utility.yul\":10073:10079   */\n  dup3\n    /* \"#utility.yul\":10067:10071   */\n  dup6\n    /* \"#utility.yul\":10021:10088   */\n  tag_53\n  jump\t// in\ntag_174:\n    /* \"#utility.yul\":10115:10116   */\n  0x00\n    /* \"#utility.yul\":10139:10143   */\n  0x20\n    /* \"#utility.yul\":10126:10143   */\n  swap1\n  pop\n    /* \"#utility.yul\":10171:10173   */\n  0x1f\n    /* \"#utility.yul\":10163:10169   */\n  dup4\n    /* \"#utility.yul\":10160:10174   */\n  gt\n    /* \"#utility.yul\":10188:10189   */\n  0x01\n    /* \"#utility.yul\":10183:10801   */\n  dup2\n  eq\n  tag_176\n  jumpi\n    /* \"#utility.yul\":10845:10846   */\n  0x00\n    /* \"#utility.yul\":10862:10868   */\n  dup5\n    /* \"#utility.yul\":10859:10936   */\n  iszero\n  tag_177\n  jumpi\n    /* \"#utility.yul\":10911:10920   */\n  dup3\n    /* \"#utility.yul\":10906:10909   */\n  dup8\n    /* \"#utility.yul\":10902:10921   */\n  add\n    /* \"#utility.yul\":10896:10922   */\n  mload\n    /* \"#utility.yul\":10887:10922   */\n  swap1\n  pop\n    /* \"#utility.yul\":10859:10936   */\ntag_177:\n    /* \"#utility.yul\":10962:11029   */\n  tag_178\n    /* \"#utility.yul\":11022:11028   */\n  dup6\n    /* \"#utility.yul\":11015:11020   */\n  dup3\n    /* \"#utility.yul\":10962:11029   */\n  tag_56\n  jump\t// in\ntag_178:\n    /* \"#utility.yul\":10956:10960   */\n  dup7\n    /* \"#utility.yul\":10949:11030   */\n  sstore\n    /* \"#utility.yul\":10818:11040   */\n  pop\n    /* \"#utility.yul\":10153:11040   */\n  jump(tag_175)\n    /* \"#utility.yul\":10183:10801   */\ntag_176:\n    /* \"#utility.yul\":10235:10239   */\n  0x1f\n    /* \"#utility.yul\":10231:10240   */\n  not\n    /* \"#utility.yul\":10223:10229   */\n  dup5\n    /* \"#utility.yul\":10219:10241   */\n  and\n    /* \"#utility.yul\":10269:10306   */\n  tag_179\n    /* \"#utility.yul\":10301:10305   */\n  dup7\n    /* \"#utility.yul\":10269:10306   */\n  tag_42\n  jump\t// in\ntag_179:\n    /* \"#utility.yul\":10328:10329   */\n  0x00\n    /* \"#utility.yul\":10342:10550   */\ntag_180:\n    /* \"#utility.yul\":10356:10363   */\n  dup3\n    /* \"#utility.yul\":10353:10354   */\n  dup2\n    /* \"#utility.yul\":10350:10364   */\n  lt\n    /* \"#utility.yul\":10342:10550   */\n  iszero\n  tag_182\n  jumpi\n    /* \"#utility.yul\":10435:10444   */\n  dup5\n    /* \"#utility.yul\":10430:10433   */\n  dup10\n    /* \"#utility.yul\":10426:10445   */\n  add\n    /* \"#utility.yul\":10420:10446   */\n  mload\n    /* \"#utility.yul\":10412:10418   */\n  dup3\n    /* \"#utility.yul\":10405:10447   */\n  sstore\n    /* \"#utility.yul\":10486:10487   */\n  0x01\n    /* \"#utility.yul\":10478:10484   */\n  dup3\n    /* \"#utility.yul\":10474:10488   */\n  add\n    /* \"#utility.yul\":10464:10488   */\n  swap2\n  pop\n    /* \"#utility.yul\":10533:10535   */\n  0x20\n    /* \"#utility.yul\":10522:10531   */\n  dup6\n    /* \"#utility.yul\":10518:10536   */\n  add\n    /* \"#utility.yul\":10505:10536   */\n  swap5\n  pop\n    /* \"#utility.yul\":10379:10383   */\n  0x20\n    /* \"#utility.yul\":10376:10377   */\n  dup2\n    /* \"#utility.yul\":10372:10384   */\n  add\n    /* \"#utility.yul\":10367:10384   */\n  swap1\n  pop\n    /* \"#utility.yul\":10342:10550   */\n  jump(tag_180)\ntag_182:\n    /* \"#utility.yul\":10578:10584   */\n  dup7\n    /* \"#utility.yul\":10569:10576   */\n  dup4\n    /* \"#utility.yul\":10566:10585   */\n  lt\n    /* \"#utility.yul\":10563:10742   */\n  iszero\n  tag_183\n  jumpi\n    /* \"#utility.yul\":10636:10645   */\n  dup5\n    /* \"#utility.yul\":10631:10634   */\n  dup10\n    /* \"#utility.yul\":10627:10646   */\n  add\n    /* \"#utility.yul\":10621:10647   */\n  mload\n    /* \"#utility.yul\":10679:10727   */\n  tag_184\n    /* \"#utility.yul\":10721:10725   */\n  0x1f\n    /* \"#utility.yul\":10713:10719   */\n  dup10\n    /* \"#utility.yul\":10709:10726   */\n  and\n    /* \"#utility.yul\":10698:10707   */\n  dup3\n    /* \"#utility.yul\":10679:10727   */\n  tag_55\n  jump\t// in\ntag_184:\n    /* \"#utility.yul\":10671:10677   */\n  dup4\n    /* \"#utility.yul\":10664:10728   */\n  sstore\n    /* \"#utility.yul\":10586:10742   */\n  pop\n    /* \"#utility.yul\":10563:10742   */\ntag_183:\n    /* \"#utility.yul\":10788:10789   */\n  0x01\n    /* \"#utility.yul\":10784:10785   */\n  0x02\n    /* \"#utility.yul\":10776:10782   */\n  dup9\n    /* \"#utility.yul\":10772:10786   */\n  mul\n    /* \"#utility.yul\":10768:10790   */\n  add\n    /* \"#utility.yul\":10762:10766   */\n  dup9\n    /* \"#utility.yul\":10755:10791   */\n  sstore\n    /* \"#utility.yul\":10190:10801   */\n  pop\n  pop\n  pop\n    /* \"#utility.yul\":10153:11040   */\ntag_175:\n  pop\n    /* \"#utility.yul\":9743:11046   */\n  pop\n  pop\n  pop\n    /* \"#utility.yul\":9651:11046   */\n  pop\n  pop\n  jump\t// out\n    /* \"contracts/VotingSystem.sol\":61:2172  contract VotingSystem {... */\ntag_17:\n  dataSize(sub_0)\n  dup1\n  dataOffset(sub_0)\n  0x00\n  codecopy\n  0x00\n  return\nstop\n\nsub_0: assembly {\n        /* \"contracts/VotingSystem.sol\":61:2172  contract VotingSystem {... */\n      mstore(0x40, 0x80)\n      callvalue\n      dup1\n      iszero\n      tag_1\n      jumpi\n      revert(0x00, 0x00)\n    tag_1:\n      pop\n      jumpi(tag_2, lt(calldatasize, 0x04))\n      shr(0xe0, calldataload(0x00))\n      dup1\n      0x2e4176cf\n      gt\n      tag_10\n      jumpi\n      dup1\n      0x2e4176cf\n      eq\n      tag_6\n      jumpi\n      dup1\n      0xa3ec138d\n      eq\n      tag_7\n      jumpi\n      dup1\n      0xc7e284b8\n      eq\n      tag_8\n      jumpi\n      dup1\n      0xce50aa7d\n      eq\n      tag_9\n      jumpi\n      jump(tag_2)\n    tag_10:\n      dup1\n      0x0121b93f\n      eq\n      tag_3\n      jumpi\n      dup1\n      0x013cf08b\n      eq\n      tag_4\n      jumpi\n      dup1\n      0x036ee850\n      eq\n      tag_5\n      jumpi\n    tag_2:\n      revert(0x00, 0x00)\n        /* \"contracts/VotingSystem.sol\":1403:1904  function vote(uint proposalIndex) public {... */\n    tag_3:\n      tag_11\n      0x04\n      dup1\n      calldatasize\n      sub\n      dup2\n      add\n      swap1\n      tag_12\n      swap2\n      swap1\n      tag_13\n      jump\t// in\n    tag_12:\n      tag_14\n      jump\t// in\n    tag_11:\n      stop\n        /* \"contracts/VotingSystem.sol\":346:373  Proposal[] public proposals */\n    tag_4:\n      tag_15\n      0x04\n      dup1\n      calldatasize\n      sub\n      dup2\n      add\n      swap1\n      tag_16\n      swap2\n      swap1\n      tag_13\n      jump\t// in\n    tag_16:\n      tag_17\n      jump\t// in\n    tag_15:\n      mload(0x40)\n      tag_18\n      swap3\n      swap2\n      swap1\n      tag_19\n      jump\t// in\n    tag_18:\n      mload(0x40)\n      dup1\n      swap2\n      sub\n      swap1\n      return\n        /* \"contracts/VotingSystem.sol\":425:451  uint public votingDeadline */\n    tag_5:\n      tag_20\n      tag_21\n      jump\t// in\n    tag_20:\n      mload(0x40)\n      tag_22\n      swap2\n      swap1\n      tag_23\n      jump\t// in\n    tag_22:\n      mload(0x40)\n      dup1\n      swap2\n      sub\n      swap1\n      return\n        /* \"contracts/VotingSystem.sol\":267:293  address public chairperson */\n    tag_6:\n      tag_24\n      tag_25\n      jump\t// in\n    tag_24:\n      mload(0x40)\n      tag_26\n      swap2\n      swap1\n      tag_27\n      jump\t// in\n    tag_26:\n      mload(0x40)\n      dup1\n      swap2\n      sub\n      swap1\n      return\n        /* \"contracts/VotingSystem.sol\":300:339  mapping(address => Voter) public voters */\n    tag_7:\n      tag_28\n      0x04\n      dup1\n      calldatasize\n      sub\n      dup2\n      add\n      swap1\n      tag_29\n      swap2\n      swap1\n      tag_30\n      jump\t// in\n    tag_29:\n      tag_31\n      jump\t// in\n    tag_28:\n      mload(0x40)\n      tag_32\n      swap4\n      swap3\n      swap2\n      swap1\n      tag_33\n      jump\t// in\n    tag_32:\n      mload(0x40)\n      dup1\n      swap2\n      sub\n      swap1\n      return\n        /* \"contracts/VotingSystem.sol\":1977:2169  function getTimeLeft() public view returns (uint) {... */\n    tag_8:\n      tag_34\n      tag_35\n      jump\t// in\n    tag_34:\n      mload(0x40)\n      tag_36\n      swap2\n      swap1\n      tag_23\n      jump\t// in\n    tag_36:\n      mload(0x40)\n      dup1\n      swap2\n      sub\n      swap1\n      return\n        /* \"contracts/VotingSystem.sol\":1049:1395  function giveRightToVote(address voter, uint weight) public {... */\n    tag_9:\n      tag_37\n      0x04\n      dup1\n      calldatasize\n      sub\n      dup2\n      add\n      swap1\n      tag_38\n      swap2\n      swap1\n      tag_39\n      jump\t// in\n    tag_38:\n      tag_40\n      jump\t// in\n    tag_37:\n      stop\n        /* \"contracts/VotingSystem.sol\":1403:1904  function vote(uint proposalIndex) public {... */\n    tag_14:\n        /* \"contracts/VotingSystem.sol\":1455:1475  Voter storage sender */\n      0x00\n        /* \"contracts/VotingSystem.sol\":1478:1484  voters */\n      0x01\n        /* \"contracts/VotingSystem.sol\":1478:1496  voters[msg.sender] */\n      0x00\n        /* \"contracts/VotingSystem.sol\":1485:1495  msg.sender */\n      caller\n        /* \"contracts/VotingSystem.sol\":1478:1496  voters[msg.sender] */\n      0xffffffffffffffffffffffffffffffffffffffff\n      and\n      0xffffffffffffffffffffffffffffffffffffffff\n      and\n      dup2\n      mstore\n      0x20\n      add\n      swap1\n      dup2\n      mstore\n      0x20\n      add\n      0x00\n      keccak256\n        /* \"contracts/VotingSystem.sol\":1455:1496  Voter storage sender = voters[msg.sender] */\n      swap1\n      pop\n        /* \"contracts/VotingSystem.sol\":1533:1534  0 */\n      0x00\n        /* \"contracts/VotingSystem.sol\":1517:1523  sender */\n      dup2\n        /* \"contracts/VotingSystem.sol\":1517:1530  sender.weight */\n      0x00\n      add\n      sload\n        /* \"contracts/VotingSystem.sol\":1517:1534  sender.weight > 0 */\n      gt\n        /* \"contracts/VotingSystem.sol\":1509:1555  require(sender.weight > 0, \"No right to vote\") */\n      tag_42\n      jumpi\n      mload(0x40)\n      0x08c379a000000000000000000000000000000000000000000000000000000000\n      dup2\n      mstore\n      0x04\n      add\n      tag_43\n      swap1\n      tag_44\n      jump\t// in\n    tag_43:\n      mload(0x40)\n      dup1\n      swap2\n      sub\n      swap1\n      revert\n    tag_42:\n        /* \"contracts/VotingSystem.sol\":1575:1581  sender */\n      dup1\n        /* \"contracts/VotingSystem.sol\":1575:1587  sender.voted */\n      0x01\n      add\n      0x00\n      swap1\n      sload\n      swap1\n      0x0100\n      exp\n      swap1\n      div\n      0xff\n      and\n        /* \"contracts/VotingSystem.sol\":1574:1587  !sender.voted */\n      iszero\n        /* \"contracts/VotingSystem.sol\":1566:1605  require(!sender.voted, \"Already voted\") */\n      tag_45\n      jumpi\n      mload(0x40)\n      0x08c379a000000000000000000000000000000000000000000000000000000000\n      dup2\n      mstore\n      0x04\n      add\n      tag_46\n      swap1\n      tag_47\n      jump\t// in\n    tag_46:\n      mload(0x40)\n      dup1\n      swap2\n      sub\n      swap1\n      revert\n    tag_45:\n        /* \"contracts/VotingSystem.sol\":1711:1725  votingDeadline */\n      sload(0x03)\n        /* \"contracts/VotingSystem.sol\":1692:1707  block.timestamp */\n      timestamp\n        /* \"contracts/VotingSystem.sol\":1692:1725  block.timestamp <= votingDeadline */\n      gt\n      iszero\n        /* \"contracts/VotingSystem.sol\":1684:1764  require(block.timestamp <= votingDeadline, \"Voting is closed (Deadline passed)\") */\n      tag_48\n      jumpi\n      mload(0x40)\n      0x08c379a000000000000000000000000000000000000000000000000000000000\n      dup2\n      mstore\n      0x04\n      add\n      tag_49\n      swap1\n      tag_50\n      jump\t// in\n    tag_49:\n      mload(0x40)\n      dup1\n      swap2\n      sub\n      swap1\n      revert\n    tag_48:\n        /* \"contracts/VotingSystem.sol\":1792:1796  true */\n      0x01\n        /* \"contracts/VotingSystem.sol\":1777:1783  sender */\n      dup2\n        /* \"contracts/VotingSystem.sol\":1777:1789  sender.voted */\n      0x01\n      add\n      0x00\n        /* \"contracts/VotingSystem.sol\":1777:1796  sender.voted = true */\n      0x0100\n      exp\n      dup2\n      sload\n      dup2\n      0xff\n      mul\n      not\n      and\n      swap1\n      dup4\n      iszero\n      iszero\n      mul\n      or\n      swap1\n      sstore\n      pop\n        /* \"contracts/VotingSystem.sol\":1821:1834  proposalIndex */\n      dup2\n        /* \"contracts/VotingSystem.sol\":1807:1813  sender */\n      dup2\n        /* \"contracts/VotingSystem.sol\":1807:1818  sender.vote */\n      0x02\n      add\n        /* \"contracts/VotingSystem.sol\":1807:1834  sender.vote = proposalIndex */\n      dup2\n      swap1\n      sstore\n      pop\n        /* \"contracts/VotingSystem.sol\":1883:1889  sender */\n      dup1\n        /* \"contracts/VotingSystem.sol\":1883:1896  sender.weight */\n      0x00\n      add\n      sload\n        /* \"contracts/VotingSystem.sol\":1845:1854  proposals */\n      0x02\n        /* \"contracts/VotingSystem.sol\":1855:1868  proposalIndex */\n      dup4\n        /* \"contracts/VotingSystem.sol\":1845:1869  proposals[proposalIndex] */\n      dup2\n      sload\n      dup2\n      lt\n      tag_51\n      jumpi\n      tag_52\n      tag_53\n      jump\t// in\n    tag_52:\n    tag_51:\n      swap1\n      0x00\n      mstore\n      keccak256(0x00, 0x20)\n      swap1\n      0x02\n      mul\n      add\n        /* \"contracts/VotingSystem.sol\":1845:1879  proposals[proposalIndex].voteCount */\n      0x01\n      add\n      0x00\n        /* \"contracts/VotingSystem.sol\":1845:1896  proposals[proposalIndex].voteCount += sender.weight */\n      dup3\n      dup3\n      sload\n      tag_55\n      swap2\n      swap1\n      tag_56\n      jump\t// in\n    tag_55:\n      swap3\n      pop\n      pop\n      dup2\n      swap1\n      sstore\n      pop\n        /* \"contracts/VotingSystem.sol\":1444:1904  {... */\n      pop\n        /* \"contracts/VotingSystem.sol\":1403:1904  function vote(uint proposalIndex) public {... */\n      pop\n      jump\t// out\n        /* \"contracts/VotingSystem.sol\":346:373  Proposal[] public proposals */\n    tag_17:\n      0x02\n      dup2\n      dup2\n      sload\n      dup2\n      lt\n      tag_57\n      jumpi\n      0x00\n      dup1\n      revert\n    tag_57:\n      swap1\n      0x00\n      mstore\n      keccak256(0x00, 0x20)\n      swap1\n      0x02\n      mul\n      add\n      0x00\n      swap2\n      pop\n      swap1\n      pop\n      dup1\n      0x00\n      add\n      dup1\n      sload\n      tag_59\n      swap1\n      tag_60\n      jump\t// in\n    tag_59:\n      dup1\n      0x1f\n      add\n      0x20\n      dup1\n      swap2\n      div\n      mul\n      0x20\n      add\n      mload(0x40)\n      swap1\n      dup2\n      add\n      0x40\n      mstore\n      dup1\n      swap3\n      swap2\n      swap1\n      dup2\n      dup2\n      mstore\n      0x20\n      add\n      dup3\n      dup1\n      sload\n      tag_61\n      swap1\n      tag_60\n      jump\t// in\n    tag_61:\n      dup1\n      iszero\n      tag_62\n      jumpi\n      dup1\n      0x1f\n      lt\n      tag_63\n      jumpi\n      0x0100\n      dup1\n      dup4\n      sload\n      div\n      mul\n      dup4\n      mstore\n      swap2\n      0x20\n      add\n      swap2\n      jump(tag_62)\n    tag_63:\n      dup3\n      add\n      swap2\n      swap1\n      0x00\n      mstore\n      keccak256(0x00, 0x20)\n      swap1\n    tag_64:\n      dup2\n      sload\n      dup2\n      mstore\n      swap1\n      0x01\n      add\n      swap1\n      0x20\n      add\n      dup1\n      dup4\n      gt\n      tag_64\n      jumpi\n      dup3\n      swap1\n      sub\n      0x1f\n      and\n      dup3\n      add\n      swap2\n    tag_62:\n      pop\n      pop\n      pop\n      pop\n      pop\n      swap1\n      dup1\n      0x01\n      add\n      sload\n      swap1\n      pop\n      dup3\n      jump\t// out\n        /* \"contracts/VotingSystem.sol\":425:451  uint public votingDeadline */\n    tag_21:\n      sload(0x03)\n      dup2\n      jump\t// out\n        /* \"contracts/VotingSystem.sol\":267:293  address public chairperson */\n    tag_25:\n      0x00\n      0x00\n      swap1\n      sload\n      swap1\n      0x0100\n      exp\n      swap1\n      div\n      0xffffffffffffffffffffffffffffffffffffffff\n      and\n      dup2\n      jump\t// out\n        /* \"contracts/VotingSystem.sol\":300:339  mapping(address => Voter) public voters */\n    tag_31:\n      mstore(0x20, 0x01)\n      dup1\n      0x00\n      mstore\n      keccak256(0x00, 0x40)\n      0x00\n      swap2\n      pop\n      swap1\n      pop\n      dup1\n      0x00\n      add\n      sload\n      swap1\n      dup1\n      0x01\n      add\n      0x00\n      swap1\n      sload\n      swap1\n      0x0100\n      exp\n      swap1\n      div\n      0xff\n      and\n      swap1\n      dup1\n      0x02\n      add\n      sload\n      swap1\n      pop\n      dup4\n      jump\t// out\n        /* \"contracts/VotingSystem.sol\":1977:2169  function getTimeLeft() public view returns (uint) {... */\n    tag_35:\n        /* \"contracts/VotingSystem.sol\":2021:2025  uint */\n      0x00\n        /* \"contracts/VotingSystem.sol\":2061:2075  votingDeadline */\n      sload(0x03)\n        /* \"contracts/VotingSystem.sol\":2042:2057  block.timestamp */\n      timestamp\n        /* \"contracts/VotingSystem.sol\":2042:2075  block.timestamp >= votingDeadline */\n      lt\n        /* \"contracts/VotingSystem.sol\":2038:2112  if (block.timestamp >= votingDeadline) {... */\n      tag_66\n      jumpi\n        /* \"contracts/VotingSystem.sol\":2099:2100  0 */\n      0x00\n        /* \"contracts/VotingSystem.sol\":2092:2100  return 0 */\n      swap1\n      pop\n      jump(tag_65)\n        /* \"contracts/VotingSystem.sol\":2038:2112  if (block.timestamp >= votingDeadline) {... */\n    tag_66:\n        /* \"contracts/VotingSystem.sol\":2146:2161  block.timestamp */\n      timestamp\n        /* \"contracts/VotingSystem.sol\":2129:2143  votingDeadline */\n      sload(0x03)\n        /* \"contracts/VotingSystem.sol\":2129:2161  votingDeadline - block.timestamp */\n      tag_67\n      swap2\n      swap1\n      tag_68\n      jump\t// in\n    tag_67:\n        /* \"contracts/VotingSystem.sol\":2122:2161  return votingDeadline - block.timestamp */\n      swap1\n      pop\n        /* \"contracts/VotingSystem.sol\":1977:2169  function getTimeLeft() public view returns (uint) {... */\n    tag_65:\n      swap1\n      jump\t// out\n        /* \"contracts/VotingSystem.sol\":1049:1395  function giveRightToVote(address voter, uint weight) public {... */\n    tag_40:\n        /* \"contracts/VotingSystem.sol\":1142:1153  chairperson */\n      0x00\n      0x00\n      swap1\n      sload\n      swap1\n      0x0100\n      exp\n      swap1\n      div\n      0xffffffffffffffffffffffffffffffffffffffff\n      and\n        /* \"contracts/VotingSystem.sol\":1128:1153  msg.sender == chairperson */\n      0xffffffffffffffffffffffffffffffffffffffff\n      and\n        /* \"contracts/VotingSystem.sol\":1128:1138  msg.sender */\n      caller\n        /* \"contracts/VotingSystem.sol\":1128:1153  msg.sender == chairperson */\n      0xffffffffffffffffffffffffffffffffffffffff\n      and\n      eq\n        /* \"contracts/VotingSystem.sol\":1120:1198  require(msg.sender == chairperson, \"Only chairperson can give right to vote.\") */\n      tag_70\n      jumpi\n      mload(0x40)\n      0x08c379a000000000000000000000000000000000000000000000000000000000\n      dup2\n      mstore\n      0x04\n      add\n      tag_71\n      swap1\n      tag_72\n      jump\t// in\n    tag_71:\n      mload(0x40)\n      dup1\n      swap2\n      sub\n      swap1\n      revert\n    tag_70:\n        /* \"contracts/VotingSystem.sol\":1218:1224  voters */\n      0x01\n        /* \"contracts/VotingSystem.sol\":1218:1231  voters[voter] */\n      0x00\n        /* \"contracts/VotingSystem.sol\":1225:1230  voter */\n      dup4\n        /* \"contracts/VotingSystem.sol\":1218:1231  voters[voter] */\n      0xffffffffffffffffffffffffffffffffffffffff\n      and\n      0xffffffffffffffffffffffffffffffffffffffff\n      and\n      dup2\n      mstore\n      0x20\n      add\n      swap1\n      dup2\n      mstore\n      0x20\n      add\n      0x00\n      keccak256\n        /* \"contracts/VotingSystem.sol\":1218:1237  voters[voter].voted */\n      0x01\n      add\n      0x00\n      swap1\n      sload\n      swap1\n      0x0100\n      exp\n      swap1\n      div\n      0xff\n      and\n        /* \"contracts/VotingSystem.sol\":1217:1237  !voters[voter].voted */\n      iszero\n        /* \"contracts/VotingSystem.sol\":1209:1266  require(!voters[voter].voted, \"The voter already voted.\") */\n      tag_73\n      jumpi\n      mload(0x40)\n      0x08c379a000000000000000000000000000000000000000000000000000000000\n      dup2\n      mstore\n      0x04\n      add\n      tag_74\n      swap1\n      tag_75\n      jump\t// in\n    tag_74:\n      mload(0x40)\n      dup1\n      swap2\n      sub\n      swap1\n      revert\n    tag_73:\n        /* \"contracts/VotingSystem.sol\":1309:1310  0 */\n      0x00\n        /* \"contracts/VotingSystem.sol\":1285:1291  voters */\n      0x01\n        /* \"contracts/VotingSystem.sol\":1285:1298  voters[voter] */\n      0x00\n        /* \"contracts/VotingSystem.sol\":1292:1297  voter */\n      dup5\n        /* \"contracts/VotingSystem.sol\":1285:1298  voters[voter] */\n      0xffffffffffffffffffffffffffffffffffffffff\n      and\n      0xffffffffffffffffffffffffffffffffffffffff\n      and\n      dup2\n      mstore\n      0x20\n      add\n      swap1\n      dup2\n      mstore\n      0x20\n      add\n      0x00\n      keccak256\n        /* \"contracts/VotingSystem.sol\":1285:1305  voters[voter].weight */\n      0x00\n      add\n      sload\n        /* \"contracts/VotingSystem.sol\":1285:1310  voters[voter].weight == 0 */\n      eq\n        /* \"contracts/VotingSystem.sol\":1277:1347  require(voters[voter].weight == 0, \"Voter already has voting rights.\") */\n      tag_76\n      jumpi\n      mload(0x40)\n      0x08c379a000000000000000000000000000000000000000000000000000000000\n      dup2\n      mstore\n      0x04\n      add\n      tag_77\n      swap1\n      tag_78\n      jump\t// in\n    tag_77:\n      mload(0x40)\n      dup1\n      swap2\n      sub\n      swap1\n      revert\n    tag_76:\n        /* \"contracts/VotingSystem.sol\":1381:1387  weight */\n      dup1\n        /* \"contracts/VotingSystem.sol\":1358:1364  voters */\n      0x01\n        /* \"contracts/VotingSystem.sol\":1358:1371  voters[voter] */\n      0x00\n        /* \"contracts/VotingSystem.sol\":1365:1370  voter */\n      dup5\n        /* \"contracts/VotingSystem.sol\":1358:1371  voters[voter] */\n      0xffffffffffffffffffffffffffffffffffffffff\n      and\n      0xffffffffffffffffffffffffffffffffffffffff\n      and\n      dup2\n      mstore\n      0x20\n      add\n      swap1\n      dup2\n      mstore\n      0x20\n      add\n      0x00\n      keccak256\n        /* \"contracts/VotingSystem.sol\":1358:1378  voters[voter].weight */\n      0x00\n      add\n        /* \"contracts/VotingSystem.sol\":1358:1387  voters[voter].weight = weight */\n      dup2\n      swap1\n      sstore\n      pop\n        /* \"contracts/VotingSystem.sol\":1049:1395  function giveRightToVote(address voter, uint weight) public {... */\n      pop\n      pop\n      jump\t// out\n        /* \"#utility.yul\":88:205   */\n    tag_80:\n        /* \"#utility.yul\":197:198   */\n      0x00\n        /* \"#utility.yul\":194:195   */\n      0x00\n        /* \"#utility.yul\":187:199   */\n      revert\n        /* \"#utility.yul\":334:411   */\n    tag_82:\n        /* \"#utility.yul\":371:378   */\n      0x00\n        /* \"#utility.yul\":400:405   */\n      dup2\n        /* \"#utility.yul\":389:405   */\n      swap1\n      pop\n        /* \"#utility.yul\":334:411   */\n      swap2\n      swap1\n      pop\n      jump\t// out\n        /* \"#utility.yul\":417:539   */\n    tag_83:\n        /* \"#utility.yul\":490:514   */\n      tag_118\n        /* \"#utility.yul\":508:513   */\n      dup2\n        /* \"#utility.yul\":490:514   */\n      tag_82\n      jump\t// in\n    tag_118:\n        /* \"#utility.yul\":483:488   */\n      dup2\n        /* \"#utility.yul\":480:515   */\n      eq\n        /* \"#utility.yul\":470:533   */\n      tag_119\n      jumpi\n        /* \"#utility.yul\":529:530   */\n      0x00\n        /* \"#utility.yul\":526:527   */\n      0x00\n        /* \"#utility.yul\":519:531   */\n      revert\n        /* \"#utility.yul\":470:533   */\n    tag_119:\n        /* \"#utility.yul\":417:539   */\n      pop\n      jump\t// out\n        /* \"#utility.yul\":545:684   */\n    tag_84:\n        /* \"#utility.yul\":591:596   */\n      0x00\n        /* \"#utility.yul\":629:635   */\n      dup2\n        /* \"#utility.yul\":616:636   */\n      calldataload\n        /* \"#utility.yul\":607:636   */\n      swap1\n      pop\n        /* \"#utility.yul\":645:678   */\n      tag_121\n        /* \"#utility.yul\":672:677   */\n      dup2\n        /* \"#utility.yul\":645:678   */\n      tag_83\n      jump\t// in\n    tag_121:\n        /* \"#utility.yul\":545:684   */\n      swap3\n      swap2\n      pop\n      pop\n      jump\t// out\n        /* \"#utility.yul\":690:1019   */\n    tag_13:\n        /* \"#utility.yul\":749:755   */\n      0x00\n        /* \"#utility.yul\":798:800   */\n      0x20\n        /* \"#utility.yul\":786:795   */\n      dup3\n        /* \"#utility.yul\":777:784   */\n      dup5\n        /* \"#utility.yul\":773:796   */\n      sub\n        /* \"#utility.yul\":769:801   */\n      slt\n        /* \"#utility.yul\":766:885   */\n      iszero\n      tag_123\n      jumpi\n        /* \"#utility.yul\":804:883   */\n      tag_124\n      tag_80\n      jump\t// in\n    tag_124:\n        /* \"#utility.yul\":766:885   */\n    tag_123:\n        /* \"#utility.yul\":924:925   */\n      0x00\n        /* \"#utility.yul\":949:1002   */\n      tag_125\n        /* \"#utility.yul\":994:1001   */\n      dup5\n        /* \"#utility.yul\":985:991   */\n      dup3\n        /* \"#utility.yul\":974:983   */\n      dup6\n        /* \"#utility.yul\":970:992   */\n      add\n        /* \"#utility.yul\":949:1002   */\n      tag_84\n      jump\t// in\n    tag_125:\n        /* \"#utility.yul\":939:1002   */\n      swap2\n      pop\n        /* \"#utility.yul\":895:1012   */\n      pop\n        /* \"#utility.yul\":690:1019   */\n      swap3\n      swap2\n      pop\n      pop\n      jump\t// out\n        /* \"#utility.yul\":1025:1124   */\n    tag_85:\n        /* \"#utility.yul\":1077:1083   */\n      0x00\n        /* \"#utility.yul\":1111:1116   */\n      dup2\n        /* \"#utility.yul\":1105:1117   */\n      mload\n        /* \"#utility.yul\":1095:1117   */\n      swap1\n      pop\n        /* \"#utility.yul\":1025:1124   */\n      swap2\n      swap1\n      pop\n      jump\t// out\n        /* \"#utility.yul\":1130:1299   */\n    tag_86:\n        /* \"#utility.yul\":1214:1225   */\n      0x00\n        /* \"#utility.yul\":1248:1254   */\n      dup3\n        /* \"#utility.yul\":1243:1246   */\n      dup3\n        /* \"#utility.yul\":1236:1255   */\n      mstore\n        /* \"#utility.yul\":1288:1292   */\n      0x20\n        /* \"#utility.yul\":1283:1286   */\n      dup3\n        /* \"#utility.yul\":1279:1293   */\n      add\n        /* \"#utility.yul\":1264:1293   */\n      swap1\n      pop\n        /* \"#utility.yul\":1130:1299   */\n      swap3\n      swap2\n      pop\n      pop\n      jump\t// out\n        /* \"#utility.yul\":1305:1444   */\n    tag_87:\n        /* \"#utility.yul\":1394:1400   */\n      dup3\n        /* \"#utility.yul\":1389:1392   */\n      dup2\n        /* \"#utility.yul\":1384:1387   */\n      dup4\n        /* \"#utility.yul\":1378:1401   */\n      mcopy\n        /* \"#utility.yul\":1435:1436   */\n      0x00\n        /* \"#utility.yul\":1426:1432   */\n      dup4\n        /* \"#utility.yul\":1421:1424   */\n      dup4\n        /* \"#utility.yul\":1417:1433   */\n      add\n        /* \"#utility.yul\":1410:1437   */\n      mstore\n        /* \"#utility.yul\":1305:1444   */\n      pop\n      pop\n      pop\n      jump\t// out\n        /* \"#utility.yul\":1450:1552   */\n    tag_88:\n        /* \"#utility.yul\":1491:1497   */\n      0x00\n        /* \"#utility.yul\":1542:1544   */\n      0x1f\n        /* \"#utility.yul\":1538:1545   */\n      not\n        /* \"#utility.yul\":1533:1535   */\n      0x1f\n        /* \"#utility.yul\":1526:1531   */\n      dup4\n        /* \"#utility.yul\":1522:1536   */\n      add\n        /* \"#utility.yul\":1518:1546   */\n      and\n        /* \"#utility.yul\":1508:1546   */\n      swap1\n      pop\n        /* \"#utility.yul\":1450:1552   */\n      swap2\n      swap1\n      pop\n      jump\t// out\n        /* \"#utility.yul\":1558:1935   */\n    tag_89:\n        /* \"#utility.yul\":1646:1649   */\n      0x00\n        /* \"#utility.yul\":1674:1713   */\n      tag_131\n        /* \"#utility.yul\":1707:1712   */\n      dup3\n        /* \"#utility.yul\":1674:1713   */\n      tag_85\n      jump\t// in\n    tag_131:\n        /* \"#utility.yul\":1729:1800   */\n      tag_132\n        /* \"#utility.yul\":1793:1799   */\n      dup2\n        /* \"#utility.yul\":1788:1791   */\n      dup6\n        /* \"#utility.yul\":1729:1800   */\n      tag_86\n      jump\t// in\n    tag_132:\n        /* \"#utility.yul\":1722:1800   */\n      swap4\n      pop\n        /* \"#utility.yul\":1809:1874   */\n      tag_133\n        /* \"#utility.yul\":1867:1873   */\n      dup2\n        /* \"#utility.yul\":1862:1865   */\n      dup6\n        /* \"#utility.yul\":1855:1859   */\n      0x20\n        /* \"#utility.yul\":1848:1853   */\n      dup7\n        /* \"#utility.yul\":1844:1860   */\n      add\n        /* \"#utility.yul\":1809:1874   */\n      tag_87\n      jump\t// in\n    tag_133:\n        /* \"#utility.yul\":1899:1928   */\n      tag_134\n        /* \"#utility.yul\":1921:1927   */\n      dup2\n        /* \"#utility.yul\":1899:1928   */\n      tag_88\n      jump\t// in\n    tag_134:\n        /* \"#utility.yul\":1894:1897   */\n      dup5\n        /* \"#utility.yul\":1890:1929   */\n      add\n        /* \"#utility.yul\":1883:1929   */\n      swap2\n      pop\n        /* \"#utility.yul\":1650:1935   */\n      pop\n        /* \"#utility.yul\":1558:1935   */\n      swap3\n      swap2\n      pop\n      pop\n      jump\t// out\n        /* \"#utility.yul\":1941:2059   */\n    tag_90:\n        /* \"#utility.yul\":2028:2052   */\n      tag_136\n        /* \"#utility.yul\":2046:2051   */\n      dup2\n        /* \"#utility.yul\":2028:2052   */\n      tag_82\n      jump\t// in\n    tag_136:\n        /* \"#utility.yul\":2023:2026   */\n      dup3\n        /* \"#utility.yul\":2016:2053   */\n      mstore\n        /* \"#utility.yul\":1941:2059   */\n      pop\n      pop\n      jump\t// out\n        /* \"#utility.yul\":2065:2488   */\n    tag_19:\n        /* \"#utility.yul\":2206:2210   */\n      0x00\n        /* \"#utility.yul\":2244:2246   */\n      0x40\n        /* \"#utility.yul\":2233:2242   */\n      dup3\n        /* \"#utility.yul\":2229:2247   */\n      add\n        /* \"#utility.yul\":2221:2247   */\n      swap1\n      pop\n        /* \"#utility.yul\":2293:2302   */\n      dup2\n        /* \"#utility.yul\":2287:2291   */\n      dup2\n        /* \"#utility.yul\":2283:2303   */\n      sub\n        /* \"#utility.yul\":2279:2280   */\n      0x00\n        /* \"#utility.yul\":2268:2277   */\n      dup4\n        /* \"#utility.yul\":2264:2281   */\n      add\n        /* \"#utility.yul\":2257:2304   */\n      mstore\n        /* \"#utility.yul\":2321:2399   */\n      tag_138\n        /* \"#utility.yul\":2394:2398   */\n      dup2\n        /* \"#utility.yul\":2385:2391   */\n      dup6\n        /* \"#utility.yul\":2321:2399   */\n      tag_89\n      jump\t// in\n    tag_138:\n        /* \"#utility.yul\":2313:2399   */\n      swap1\n      pop\n        /* \"#utility.yul\":2409:2481   */\n      tag_139\n        /* \"#utility.yul\":2477:2479   */\n      0x20\n        /* \"#utility.yul\":2466:2475   */\n      dup4\n        /* \"#utility.yul\":2462:2480   */\n      add\n        /* \"#utility.yul\":2453:2459   */\n      dup5\n        /* \"#utility.yul\":2409:2481   */\n      tag_90\n      jump\t// in\n    tag_139:\n        /* \"#utility.yul\":2065:2488   */\n      swap4\n      swap3\n      pop\n      pop\n      pop\n      jump\t// out\n        /* \"#utility.yul\":2494:2716   */\n    tag_23:\n        /* \"#utility.yul\":2587:2591   */\n      0x00\n        /* \"#utility.yul\":2625:2627   */\n      0x20\n        /* \"#utility.yul\":2614:2623   */\n      dup3\n        /* \"#utility.yul\":2610:2628   */\n      add\n        /* \"#utility.yul\":2602:2628   */\n      swap1\n      pop\n        /* \"#utility.yul\":2638:2709   */\n      tag_141\n        /* \"#utility.yul\":2706:2707   */\n      0x00\n        /* \"#utility.yul\":2695:2704   */\n      dup4\n        /* \"#utility.yul\":2691:2708   */\n      add\n        /* \"#utility.yul\":2682:2688   */\n      dup5\n        /* \"#utility.yul\":2638:2709   */\n      tag_90\n      jump\t// in\n    tag_141:\n        /* \"#utility.yul\":2494:2716   */\n      swap3\n      swap2\n      pop\n      pop\n      jump\t// out\n        /* \"#utility.yul\":2722:2848   */\n    tag_91:\n        /* \"#utility.yul\":2759:2766   */\n      0x00\n        /* \"#utility.yul\":2799:2841   */\n      0xffffffffffffffffffffffffffffffffffffffff\n        /* \"#utility.yul\":2792:2797   */\n      dup3\n        /* \"#utility.yul\":2788:2842   */\n      and\n        /* \"#utility.yul\":2777:2842   */\n      swap1\n      pop\n        /* \"#utility.yul\":2722:2848   */\n      swap2\n      swap1\n      pop\n      jump\t// out\n        /* \"#utility.yul\":2854:2950   */\n    tag_92:\n        /* \"#utility.yul\":2891:2898   */\n      0x00\n        /* \"#utility.yul\":2920:2944   */\n      tag_144\n        /* \"#utility.yul\":2938:2943   */\n      dup3\n        /* \"#utility.yul\":2920:2944   */\n      tag_91\n      jump\t// in\n    tag_144:\n        /* \"#utility.yul\":2909:2944   */\n      swap1\n      pop\n        /* \"#utility.yul\":2854:2950   */\n      swap2\n      swap1\n      pop\n      jump\t// out\n        /* \"#utility.yul\":2956:3074   */\n    tag_93:\n        /* \"#utility.yul\":3043:3067   */\n      tag_146\n        /* \"#utility.yul\":3061:3066   */\n      dup2\n        /* \"#utility.yul\":3043:3067   */\n      tag_92\n      jump\t// in\n    tag_146:\n        /* \"#utility.yul\":3038:3041   */\n      dup3\n        /* \"#utility.yul\":3031:3068   */\n      mstore\n        /* \"#utility.yul\":2956:3074   */\n      pop\n      pop\n      jump\t// out\n        /* \"#utility.yul\":3080:3302   */\n    tag_27:\n        /* \"#utility.yul\":3173:3177   */\n      0x00\n        /* \"#utility.yul\":3211:3213   */\n      0x20\n        /* \"#utility.yul\":3200:3209   */\n      dup3\n        /* \"#utility.yul\":3196:3214   */\n      add\n        /* \"#utility.yul\":3188:3214   */\n      swap1\n      pop\n        /* \"#utility.yul\":3224:3295   */\n      tag_148\n        /* \"#utility.yul\":3292:3293   */\n      0x00\n        /* \"#utility.yul\":3281:3290   */\n      dup4\n        /* \"#utility.yul\":3277:3294   */\n      add\n        /* \"#utility.yul\":3268:3274   */\n      dup5\n        /* \"#utility.yul\":3224:3295   */\n      tag_93\n      jump\t// in\n    tag_148:\n        /* \"#utility.yul\":3080:3302   */\n      swap3\n      swap2\n      pop\n      pop\n      jump\t// out\n        /* \"#utility.yul\":3308:3430   */\n    tag_94:\n        /* \"#utility.yul\":3381:3405   */\n      tag_150\n        /* \"#utility.yul\":3399:3404   */\n      dup2\n        /* \"#utility.yul\":3381:3405   */\n      tag_92\n      jump\t// in\n    tag_150:\n        /* \"#utility.yul\":3374:3379   */\n      dup2\n        /* \"#utility.yul\":3371:3406   */\n      eq\n        /* \"#utility.yul\":3361:3424   */\n      tag_151\n      jumpi\n        /* \"#utility.yul\":3420:3421   */\n      0x00\n        /* \"#utility.yul\":3417:3418   */\n      0x00\n        /* \"#utility.yul\":3410:3422   */\n      revert\n        /* \"#utility.yul\":3361:3424   */\n    tag_151:\n        /* \"#utility.yul\":3308:3430   */\n      pop\n      jump\t// out\n        /* \"#utility.yul\":3436:3575   */\n    tag_95:\n        /* \"#utility.yul\":3482:3487   */\n      0x00\n        /* \"#utility.yul\":3520:3526   */\n      dup2\n        /* \"#utility.yul\":3507:3527   */\n      calldataload\n        /* \"#utility.yul\":3498:3527   */\n      swap1\n      pop\n        /* \"#utility.yul\":3536:3569   */\n      tag_153\n        /* \"#utility.yul\":3563:3568   */\n      dup2\n        /* \"#utility.yul\":3536:3569   */\n      tag_94\n      jump\t// in\n    tag_153:\n        /* \"#utility.yul\":3436:3575   */\n      swap3\n      swap2\n      pop\n      pop\n      jump\t// out\n        /* \"#utility.yul\":3581:3910   */\n    tag_30:\n        /* \"#utility.yul\":3640:3646   */\n      0x00\n        /* \"#utility.yul\":3689:3691   */\n      0x20\n        /* \"#utility.yul\":3677:3686   */\n      dup3\n        /* \"#utility.yul\":3668:3675   */\n      dup5\n        /* \"#utility.yul\":3664:3687   */\n      sub\n        /* \"#utility.yul\":3660:3692   */\n      slt\n        /* \"#utility.yul\":3657:3776   */\n      iszero\n      tag_155\n      jumpi\n        /* \"#utility.yul\":3695:3774   */\n      tag_156\n      tag_80\n      jump\t// in\n    tag_156:\n        /* \"#utility.yul\":3657:3776   */\n    tag_155:\n        /* \"#utility.yul\":3815:3816   */\n      0x00\n        /* \"#utility.yul\":3840:3893   */\n      tag_157\n        /* \"#utility.yul\":3885:3892   */\n      dup5\n        /* \"#utility.yul\":3876:3882   */\n      dup3\n        /* \"#utility.yul\":3865:3874   */\n      dup6\n        /* \"#utility.yul\":3861:3883   */\n      add\n        /* \"#utility.yul\":3840:3893   */\n      tag_95\n      jump\t// in\n    tag_157:\n        /* \"#utility.yul\":3830:3893   */\n      swap2\n      pop\n        /* \"#utility.yul\":3786:3903   */\n      pop\n        /* \"#utility.yul\":3581:3910   */\n      swap3\n      swap2\n      pop\n      pop\n      jump\t// out\n        /* \"#utility.yul\":3916:4006   */\n    tag_96:\n        /* \"#utility.yul\":3950:3957   */\n      0x00\n        /* \"#utility.yul\":3993:3998   */\n      dup2\n        /* \"#utility.yul\":3986:3999   */\n      iszero\n        /* \"#utility.yul\":3979:4000   */\n      iszero\n        /* \"#utility.yul\":3968:4000   */\n      swap1\n      pop\n        /* \"#utility.yul\":3916:4006   */\n      swap2\n      swap1\n      pop\n      jump\t// out\n        /* \"#utility.yul\":4012:4121   */\n    tag_97:\n        /* \"#utility.yul\":4093:4114   */\n      tag_160\n        /* \"#utility.yul\":4108:4113   */\n      dup2\n        /* \"#utility.yul\":4093:4114   */\n      tag_96\n      jump\t// in\n    tag_160:\n        /* \"#utility.yul\":4088:4091   */\n      dup3\n        /* \"#utility.yul\":4081:4115   */\n      mstore\n        /* \"#utility.yul\":4012:4121   */\n      pop\n      pop\n      jump\t// out\n        /* \"#utility.yul\":4127:4557   */\n    tag_33:\n        /* \"#utility.yul\":4270:4274   */\n      0x00\n        /* \"#utility.yul\":4308:4310   */\n      0x60\n        /* \"#utility.yul\":4297:4306   */\n      dup3\n        /* \"#utility.yul\":4293:4311   */\n      add\n        /* \"#utility.yul\":4285:4311   */\n      swap1\n      pop\n        /* \"#utility.yul\":4321:4392   */\n      tag_162\n        /* \"#utility.yul\":4389:4390   */\n      0x00\n        /* \"#utility.yul\":4378:4387   */\n      dup4\n        /* \"#utility.yul\":4374:4391   */\n      add\n        /* \"#utility.yul\":4365:4371   */\n      dup7\n        /* \"#utility.yul\":4321:4392   */\n      tag_90\n      jump\t// in\n    tag_162:\n        /* \"#utility.yul\":4402:4468   */\n      tag_163\n        /* \"#utility.yul\":4464:4466   */\n      0x20\n        /* \"#utility.yul\":4453:4462   */\n      dup4\n        /* \"#utility.yul\":4449:4467   */\n      add\n        /* \"#utility.yul\":4440:4446   */\n      dup6\n        /* \"#utility.yul\":4402:4468   */\n      tag_97\n      jump\t// in\n    tag_163:\n        /* \"#utility.yul\":4478:4550   */\n      tag_164\n        /* \"#utility.yul\":4546:4548   */\n      0x40\n        /* \"#utility.yul\":4535:4544   */\n      dup4\n        /* \"#utility.yul\":4531:4549   */\n      add\n        /* \"#utility.yul\":4522:4528   */\n      dup5\n        /* \"#utility.yul\":4478:4550   */\n      tag_90\n      jump\t// in\n    tag_164:\n        /* \"#utility.yul\":4127:4557   */\n      swap5\n      swap4\n      pop\n      pop\n      pop\n      pop\n      jump\t// out\n        /* \"#utility.yul\":4563:5037   */\n    tag_39:\n        /* \"#utility.yul\":4631:4637   */\n      0x00\n        /* \"#utility.yul\":4639:4645   */\n      0x00\n        /* \"#utility.yul\":4688:4690   */\n      0x40\n        /* \"#utility.yul\":4676:4685   */\n      dup4\n        /* \"#utility.yul\":4667:4674   */\n      dup6\n        /* \"#utility.yul\":4663:4686   */\n      sub\n        /* \"#utility.yul\":4659:4691   */\n      slt\n        /* \"#utility.yul\":4656:4775   */\n      iszero\n      tag_166\n      jumpi\n        /* \"#utility.yul\":4694:4773   */\n      tag_167\n      tag_80\n      jump\t// in\n    tag_167:\n        /* \"#utility.yul\":4656:4775   */\n    tag_166:\n        /* \"#utility.yul\":4814:4815   */\n      0x00\n        /* \"#utility.yul\":4839:4892   */\n      tag_168\n        /* \"#utility.yul\":4884:4891   */\n      dup6\n        /* \"#utility.yul\":4875:4881   */\n      dup3\n        /* \"#utility.yul\":4864:4873   */\n      dup7\n        /* \"#utility.yul\":4860:4882   */\n      add\n        /* \"#utility.yul\":4839:4892   */\n      tag_95\n      jump\t// in\n    tag_168:\n        /* \"#utility.yul\":4829:4892   */\n      swap3\n      pop\n        /* \"#utility.yul\":4785:4902   */\n      pop\n        /* \"#utility.yul\":4941:4943   */\n      0x20\n        /* \"#utility.yul\":4967:5020   */\n      tag_169\n        /* \"#utility.yul\":5012:5019   */\n      dup6\n        /* \"#utility.yul\":5003:5009   */\n      dup3\n        /* \"#utility.yul\":4992:5001   */\n      dup7\n        /* \"#utility.yul\":4988:5010   */\n      add\n        /* \"#utility.yul\":4967:5020   */\n      tag_84\n      jump\t// in\n    tag_169:\n        /* \"#utility.yul\":4957:5020   */\n      swap2\n      pop\n        /* \"#utility.yul\":4912:5030   */\n      pop\n        /* \"#utility.yul\":4563:5037   */\n      swap3\n      pop\n      swap3\n      swap1\n      pop\n      jump\t// out\n        /* \"#utility.yul\":5043:5209   */\n    tag_98:\n        /* \"#utility.yul\":5183:5201   */\n      0x4e6f20726967687420746f20766f746500000000000000000000000000000000\n        /* \"#utility.yul\":5179:5180   */\n      0x00\n        /* \"#utility.yul\":5171:5177   */\n      dup3\n        /* \"#utility.yul\":5167:5181   */\n      add\n        /* \"#utility.yul\":5160:5202   */\n      mstore\n        /* \"#utility.yul\":5043:5209   */\n      pop\n      jump\t// out\n        /* \"#utility.yul\":5215:5581   */\n    tag_99:\n        /* \"#utility.yul\":5357:5360   */\n      0x00\n        /* \"#utility.yul\":5378:5445   */\n      tag_172\n        /* \"#utility.yul\":5442:5444   */\n      0x10\n        /* \"#utility.yul\":5437:5440   */\n      dup4\n        /* \"#utility.yul\":5378:5445   */\n      tag_86\n      jump\t// in\n    tag_172:\n        /* \"#utility.yul\":5371:5445   */\n      swap2\n      pop\n        /* \"#utility.yul\":5454:5547   */\n      tag_173\n        /* \"#utility.yul\":5543:5546   */\n      dup3\n        /* \"#utility.yul\":5454:5547   */\n      tag_98\n      jump\t// in\n    tag_173:\n        /* \"#utility.yul\":5572:5574   */\n      0x20\n        /* \"#utility.yul\":5567:5570   */\n      dup3\n        /* \"#utility.yul\":5563:5575   */\n      add\n        /* \"#utility.yul\":5556:5575   */\n      swap1\n      pop\n        /* \"#utility.yul\":5215:5581   */\n      swap2\n      swap1\n      pop\n      jump\t// out\n        /* \"#utility.yul\":5587:6006   */\n    tag_44:\n        /* \"#utility.yul\":5753:5757   */\n      0x00\n        /* \"#utility.yul\":5791:5793   */\n      0x20\n        /* \"#utility.yul\":5780:5789   */\n      dup3\n        /* \"#utility.yul\":5776:5794   */\n      add\n        /* \"#utility.yul\":5768:5794   */\n      swap1\n      pop\n        /* \"#utility.yul\":5840:5849   */\n      dup2\n        /* \"#utility.yul\":5834:5838   */\n      dup2\n        /* \"#utility.yul\":5830:5850   */\n      sub\n        /* \"#utility.yul\":5826:5827   */\n      0x00\n        /* \"#utility.yul\":5815:5824   */\n      dup4\n        /* \"#utility.yul\":5811:5828   */\n      add\n        /* \"#utility.yul\":5804:5851   */\n      mstore\n        /* \"#utility.yul\":5868:5999   */\n      tag_175\n        /* \"#utility.yul\":5994:5998   */\n      dup2\n        /* \"#utility.yul\":5868:5999   */\n      tag_99\n      jump\t// in\n    tag_175:\n        /* \"#utility.yul\":5860:5999   */\n      swap1\n      pop\n        /* \"#utility.yul\":5587:6006   */\n      swap2\n      swap1\n      pop\n      jump\t// out\n        /* \"#utility.yul\":6012:6175   */\n    tag_100:\n        /* \"#utility.yul\":6152:6167   */\n      0x416c726561647920766f74656400000000000000000000000000000000000000\n        /* \"#utility.yul\":6148:6149   */\n      0x00\n        /* \"#utility.yul\":6140:6146   */\n      dup3\n        /* \"#utility.yul\":6136:6150   */\n      add\n        /* \"#utility.yul\":6129:6168   */\n      mstore\n        /* \"#utility.yul\":6012:6175   */\n      pop\n      jump\t// out\n        /* \"#utility.yul\":6181:6547   */\n    tag_101:\n        /* \"#utility.yul\":6323:6326   */\n      0x00\n        /* \"#utility.yul\":6344:6411   */\n      tag_178\n        /* \"#utility.yul\":6408:6410   */\n      0x0d\n        /* \"#utility.yul\":6403:6406   */\n      dup4\n        /* \"#utility.yul\":6344:6411   */\n      tag_86\n      jump\t// in\n    tag_178:\n        /* \"#utility.yul\":6337:6411   */\n      swap2\n      pop\n        /* \"#utility.yul\":6420:6513   */\n      tag_179\n        /* \"#utility.yul\":6509:6512   */\n      dup3\n        /* \"#utility.yul\":6420:6513   */\n      tag_100\n      jump\t// in\n    tag_179:\n        /* \"#utility.yul\":6538:6540   */\n      0x20\n        /* \"#utility.yul\":6533:6536   */\n      dup3\n        /* \"#utility.yul\":6529:6541   */\n      add\n        /* \"#utility.yul\":6522:6541   */\n      swap1\n      pop\n        /* \"#utility.yul\":6181:6547   */\n      swap2\n      swap1\n      pop\n      jump\t// out\n        /* \"#utility.yul\":6553:6972   */\n    tag_47:\n        /* \"#utility.yul\":6719:6723   */\n      0x00\n        /* \"#utility.yul\":6757:6759   */\n      0x20\n        /* \"#utility.yul\":6746:6755   */\n      dup3\n        /* \"#utility.yul\":6742:6760   */\n      add\n        /* \"#utility.yul\":6734:6760   */\n      swap1\n      pop\n        /* \"#utility.yul\":6806:6815   */\n      dup2\n        /* \"#utility.yul\":6800:6804   */\n      dup2\n        /* \"#utility.yul\":6796:6816   */\n      sub\n        /* \"#utility.yul\":6792:6793   */\n      0x00\n        /* \"#utility.yul\":6781:6790   */\n      dup4\n        /* \"#utility.yul\":6777:6794   */\n      add\n        /* \"#utility.yul\":6770:6817   */\n      mstore\n        /* \"#utility.yul\":6834:6965   */\n      tag_181\n        /* \"#utility.yul\":6960:6964   */\n      dup2\n        /* \"#utility.yul\":6834:6965   */\n      tag_101\n      jump\t// in\n    tag_181:\n        /* \"#utility.yul\":6826:6965   */\n      swap1\n      pop\n        /* \"#utility.yul\":6553:6972   */\n      swap2\n      swap1\n      pop\n      jump\t// out\n        /* \"#utility.yul\":6978:7199   */\n    tag_102:\n        /* \"#utility.yul\":7118:7152   */\n      0x566f74696e6720697320636c6f7365642028446561646c696e65207061737365\n        /* \"#utility.yul\":7114:7115   */\n      0x00\n        /* \"#utility.yul\":7106:7112   */\n      dup3\n        /* \"#utility.yul\":7102:7116   */\n      add\n        /* \"#utility.yul\":7095:7153   */\n      mstore\n        /* \"#utility.yul\":7187:7191   */\n      0x6429000000000000000000000000000000000000000000000000000000000000\n        /* \"#utility.yul\":7182:7184   */\n      0x20\n        /* \"#utility.yul\":7174:7180   */\n      dup3\n        /* \"#utility.yul\":7170:7185   */\n      add\n        /* \"#utility.yul\":7163:7192   */\n      mstore\n        /* \"#utility.yul\":6978:7199   */\n      pop\n      jump\t// out\n        /* \"#utility.yul\":7205:7571   */\n    tag_103:\n        /* \"#utility.yul\":7347:7350   */\n      0x00\n        /* \"#utility.yul\":7368:7435   */\n      tag_184\n        /* \"#utility.yul\":7432:7434   */\n      0x22\n        /* \"#utility.yul\":7427:7430   */\n      dup4\n        /* \"#utility.yul\":7368:7435   */\n      tag_86\n      jump\t// in\n    tag_184:\n        /* \"#utility.yul\":7361:7435   */\n      swap2\n      pop\n        /* \"#utility.yul\":7444:7537   */\n      tag_185\n        /* \"#utility.yul\":7533:7536   */\n      dup3\n        /* \"#utility.yul\":7444:7537   */\n      tag_102\n      jump\t// in\n    tag_185:\n        /* \"#utility.yul\":7562:7564   */\n      0x40\n        /* \"#utility.yul\":7557:7560   */\n      dup3\n        /* \"#utility.yul\":7553:7565   */\n      add\n        /* \"#utility.yul\":7546:7565   */\n      swap1\n      pop\n        /* \"#utility.yul\":7205:7571   */\n      swap2\n      swap1\n      pop\n      jump\t// out\n        /* \"#utility.yul\":7577:7996   */\n    tag_50:\n        /* \"#utility.yul\":7743:7747   */\n      0x00\n        /* \"#utility.yul\":7781:7783   */\n      0x20\n        /* \"#utility.yul\":7770:7779   */\n      dup3\n        /* \"#utility.yul\":7766:7784   */\n      add\n        /* \"#utility.yul\":7758:7784   */\n      swap1\n      pop\n        /* \"#utility.yul\":7830:7839   */\n      dup2\n        /* \"#utility.yul\":7824:7828   */\n      dup2\n        /* \"#utility.yul\":7820:7840   */\n      sub\n        /* \"#utility.yul\":7816:7817   */\n      0x00\n        /* \"#utility.yul\":7805:7814   */\n      dup4\n        /* \"#utility.yul\":7801:7818   */\n      add\n        /* \"#utility.yul\":7794:7841   */\n      mstore\n        /* \"#utility.yul\":7858:7989   */\n      tag_187\n        /* \"#utility.yul\":7984:7988   */\n      dup2\n        /* \"#utility.yul\":7858:7989   */\n      tag_103\n      jump\t// in\n    tag_187:\n        /* \"#utility.yul\":7850:7989   */\n      swap1\n      pop\n        /* \"#utility.yul\":7577:7996   */\n      swap2\n      swap1\n      pop\n      jump\t// out\n        /* \"#utility.yul\":8002:8182   */\n    tag_53:\n        /* \"#utility.yul\":8050:8127   */\n      0x4e487b7100000000000000000000000000000000000000000000000000000000\n        /* \"#utility.yul\":8047:8048   */\n      0x00\n        /* \"#utility.yul\":8040:8128   */\n      mstore\n        /* \"#utility.yul\":8147:8151   */\n      0x32\n        /* \"#utility.yul\":8144:8145   */\n      0x04\n        /* \"#utility.yul\":8137:8152   */\n      mstore\n        /* \"#utility.yul\":8171:8175   */\n      0x24\n        /* \"#utility.yul\":8168:8169   */\n      0x00\n        /* \"#utility.yul\":8161:8176   */\n      revert\n        /* \"#utility.yul\":8188:8368   */\n    tag_104:\n        /* \"#utility.yul\":8236:8313   */\n      0x4e487b7100000000000000000000000000000000000000000000000000000000\n        /* \"#utility.yul\":8233:8234   */\n      0x00\n        /* \"#utility.yul\":8226:8314   */\n      mstore\n        /* \"#utility.yul\":8333:8337   */\n      0x11\n        /* \"#utility.yul\":8330:8331   */\n      0x04\n        /* \"#utility.yul\":8323:8338   */\n      mstore\n        /* \"#utility.yul\":8357:8361   */\n      0x24\n        /* \"#utility.yul\":8354:8355   */\n      0x00\n        /* \"#utility.yul\":8347:8362   */\n      revert\n        /* \"#utility.yul\":8374:8565   */\n    tag_56:\n        /* \"#utility.yul\":8414:8417   */\n      0x00\n        /* \"#utility.yul\":8433:8453   */\n      tag_191\n        /* \"#utility.yul\":8451:8452   */\n      dup3\n        /* \"#utility.yul\":8433:8453   */\n      tag_82\n      jump\t// in\n    tag_191:\n        /* \"#utility.yul\":8428:8453   */\n      swap2\n      pop\n        /* \"#utility.yul\":8467:8487   */\n      tag_192\n        /* \"#utility.yul\":8485:8486   */\n      dup4\n        /* \"#utility.yul\":8467:8487   */\n      tag_82\n      jump\t// in\n    tag_192:\n        /* \"#utility.yul\":8462:8487   */\n      swap3\n      pop\n        /* \"#utility.yul\":8510:8511   */\n      dup3\n        /* \"#utility.yul\":8507:8508   */\n      dup3\n        /* \"#utility.yul\":8503:8512   */\n      add\n        /* \"#utility.yul\":8496:8512   */\n      swap1\n      pop\n        /* \"#utility.yul\":8531:8534   */\n      dup1\n        /* \"#utility.yul\":8528:8529   */\n      dup3\n        /* \"#utility.yul\":8525:8535   */\n      gt\n        /* \"#utility.yul\":8522:8558   */\n      iszero\n      tag_193\n      jumpi\n        /* \"#utility.yul\":8538:8556   */\n      tag_194\n      tag_104\n      jump\t// in\n    tag_194:\n        /* \"#utility.yul\":8522:8558   */\n    tag_193:\n        /* \"#utility.yul\":8374:8565   */\n      swap3\n      swap2\n      pop\n      pop\n      jump\t// out\n        /* \"#utility.yul\":8571:8751   */\n    tag_105:\n        /* \"#utility.yul\":8619:8696   */\n      0x4e487b7100000000000000000000000000000000000000000000000000000000\n        /* \"#utility.yul\":8616:8617   */\n      0x00\n        /* \"#utility.yul\":8609:8697   */\n      mstore\n        /* \"#utility.yul\":8716:8720   */\n      0x22\n        /* \"#utility.yul\":8713:8714   */\n      0x04\n        /* \"#utility.yul\":8706:8721   */\n      mstore\n        /* \"#utility.yul\":8740:8744   */\n      0x24\n        /* \"#utility.yul\":8737:8738   */\n      0x00\n        /* \"#utility.yul\":8730:8745   */\n      revert\n        /* \"#utility.yul\":8757:9077   */\n    tag_60:\n        /* \"#utility.yul\":8801:8807   */\n      0x00\n        /* \"#utility.yul\":8838:8839   */\n      0x02\n        /* \"#utility.yul\":8832:8836   */\n      dup3\n        /* \"#utility.yul\":8828:8840   */\n      div\n        /* \"#utility.yul\":8818:8840   */\n      swap1\n      pop\n        /* \"#utility.yul\":8885:8886   */\n      0x01\n        /* \"#utility.yul\":8879:8883   */\n      dup3\n        /* \"#utility.yul\":8875:8887   */\n      and\n        /* \"#utility.yul\":8906:8924   */\n      dup1\n        /* \"#utility.yul\":8896:8977   */\n      tag_197\n      jumpi\n        /* \"#utility.yul\":8962:8966   */\n      0x7f\n        /* \"#utility.yul\":8954:8960   */\n      dup3\n        /* \"#utility.yul\":8950:8967   */\n      and\n        /* \"#utility.yul\":8940:8967   */\n      swap2\n      pop\n        /* \"#utility.yul\":8896:8977   */\n    tag_197:\n        /* \"#utility.yul\":9024:9026   */\n      0x20\n        /* \"#utility.yul\":9016:9022   */\n      dup3\n        /* \"#utility.yul\":9013:9027   */\n      lt\n        /* \"#utility.yul\":8993:9011   */\n      dup2\n        /* \"#utility.yul\":8990:9028   */\n      sub\n        /* \"#utility.yul\":8987:9071   */\n      tag_198\n      jumpi\n        /* \"#utility.yul\":9043:9061   */\n      tag_199\n      tag_105\n      jump\t// in\n    tag_199:\n        /* \"#utility.yul\":8987:9071   */\n    tag_198:\n        /* \"#utility.yul\":8808:9077   */\n      pop\n        /* \"#utility.yul\":8757:9077   */\n      swap2\n      swap1\n      pop\n      jump\t// out\n        /* \"#utility.yul\":9083:9277   */\n    tag_68:\n        /* \"#utility.yul\":9123:9127   */\n      0x00\n        /* \"#utility.yul\":9143:9163   */\n      tag_201\n        /* \"#utility.yul\":9161:9162   */\n      dup3\n        /* \"#utility.yul\":9143:9163   */\n      tag_82\n      jump\t// in\n    tag_201:\n        /* \"#utility.yul\":9138:9163   */\n      swap2\n      pop\n        /* \"#utility.yul\":9177:9197   */\n      tag_202\n        /* \"#utility.yul\":9195:9196   */\n      dup4\n        /* \"#utility.yul\":9177:9197   */\n      tag_82\n      jump\t// in\n    tag_202:\n        /* \"#utility.yul\":9172:9197   */\n      swap3\n      pop\n        /* \"#utility.yul\":9221:9222   */\n      dup3\n        /* \"#utility.yul\":9218:9219   */\n      dup3\n        /* \"#utility.yul\":9214:9223   */\n      sub\n        /* \"#utility.yul\":9206:9223   */\n      swap1\n      pop\n        /* \"#utility.yul\":9245:9246   */\n      dup2\n        /* \"#utility.yul\":9239:9243   */\n      dup2\n        /* \"#utility.yul\":9236:9247   */\n      gt\n        /* \"#utility.yul\":9233:9270   */\n      iszero\n      tag_203\n      jumpi\n        /* \"#utility.yul\":9250:9268   */\n      tag_204\n      tag_104\n      jump\t// in\n    tag_204:\n        /* \"#utility.yul\":9233:9270   */\n    tag_203:\n        /* \"#utility.yul\":9083:9277   */\n      swap3\n      swap2\n      pop\n      pop\n      jump\t// out\n        /* \"#utility.yul\":9283:9510   */\n    tag_106:\n        /* \"#utility.yul\":9423:9457   */\n      0x4f6e6c79206368616972706572736f6e2063616e206769766520726967687420\n        /* \"#utility.yul\":9419:9420   */\n      0x00\n        /* \"#utility.yul\":9411:9417   */\n      dup3\n        /* \"#utility.yul\":9407:9421   */\n      add\n        /* \"#utility.yul\":9400:9458   */\n      mstore\n        /* \"#utility.yul\":9492:9502   */\n      0x746f20766f74652e000000000000000000000000000000000000000000000000\n        /* \"#utility.yul\":9487:9489   */\n      0x20\n        /* \"#utility.yul\":9479:9485   */\n      dup3\n        /* \"#utility.yul\":9475:9490   */\n      add\n        /* \"#utility.yul\":9468:9503   */\n      mstore\n        /* \"#utility.yul\":9283:9510   */\n      pop\n      jump\t// out\n        /* \"#utility.yul\":9516:9882   */\n    tag_107:\n        /* \"#utility.yul\":9658:9661   */\n      0x00\n        /* \"#utility.yul\":9679:9746   */\n      tag_207\n        /* \"#utility.yul\":9743:9745   */\n      0x28\n        /* \"#utility.yul\":9738:9741   */\n      dup4\n        /* \"#utility.yul\":9679:9746   */\n      tag_86\n      jump\t// in\n    tag_207:\n        /* \"#utility.yul\":9672:9746   */\n      swap2\n      pop\n        /* \"#utility.yul\":9755:9848   */\n      tag_208\n        /* \"#utility.yul\":9844:9847   */\n      dup3\n        /* \"#utility.yul\":9755:9848   */\n      tag_106\n      jump\t// in\n    tag_208:\n        /* \"#utility.yul\":9873:9875   */\n      0x40\n        /* \"#utility.yul\":9868:9871   */\n      dup3\n        /* \"#utility.yul\":9864:9876   */\n      add\n        /* \"#utility.yul\":9857:9876   */\n      swap1\n      pop\n        /* \"#utility.yul\":9516:9882   */\n      swap2\n      swap1\n      pop\n      jump\t// out\n        /* \"#utility.yul\":9888:10307   */\n    tag_72:\n        /* \"#utility.yul\":10054:10058   */\n      0x00\n        /* \"#utility.yul\":10092:10094   */\n      0x20\n        /* \"#utility.yul\":10081:10090   */\n      dup3\n        /* \"#utility.yul\":10077:10095   */\n      add\n        /* \"#utility.yul\":10069:10095   */\n      swap1\n      pop\n        /* \"#utility.yul\":10141:10150   */\n      dup2\n        /* \"#utility.yul\":10135:10139   */\n      dup2\n        /* \"#utility.yul\":10131:10151   */\n      sub\n        /* \"#utility.yul\":10127:10128   */\n      0x00\n        /* \"#utility.yul\":10116:10125   */\n      dup4\n        /* \"#utility.yul\":10112:10129   */\n      add\n        /* \"#utility.yul\":10105:10152   */\n      mstore\n        /* \"#utility.yul\":10169:10300   */\n      tag_210\n        /* \"#utility.yul\":10295:10299   */\n      dup2\n        /* \"#utility.yul\":10169:10300   */\n      tag_107\n      jump\t// in\n    tag_210:\n        /* \"#utility.yul\":10161:10300   */\n      swap1\n      pop\n        /* \"#utility.yul\":9888:10307   */\n      swap2\n      swap1\n      pop\n      jump\t// out\n        /* \"#utility.yul\":10313:10487   */\n    tag_108:\n        /* \"#utility.yul\":10453:10479   */\n      0x54686520766f74657220616c726561647920766f7465642e0000000000000000\n        /* \"#utility.yul\":10449:10450   */\n      0x00\n        /* \"#utility.yul\":10441:10447   */\n      dup3\n        /* \"#utility.yul\":10437:10451   */\n      add\n        /* \"#utility.yul\":10430:10480   */\n      mstore\n        /* \"#utility.yul\":10313:10487   */\n      pop\n      jump\t// out\n        /* \"#utility.yul\":10493:10859   */\n    tag_109:\n        /* \"#utility.yul\":10635:10638   */\n      0x00\n        /* \"#utility.yul\":10656:10723   */\n      tag_213\n        /* \"#utility.yul\":10720:10722   */\n      0x18\n        /* \"#utility.yul\":10715:10718   */\n      dup4\n        /* \"#utility.yul\":10656:10723   */\n      tag_86\n      jump\t// in\n    tag_213:\n        /* \"#utility.yul\":10649:10723   */\n      swap2\n      pop\n        /* \"#utility.yul\":10732:10825   */\n      tag_214\n        /* \"#utility.yul\":10821:10824   */\n      dup3\n        /* \"#utility.yul\":10732:10825   */\n      tag_108\n      jump\t// in\n    tag_214:\n        /* \"#utility.yul\":10850:10852   */\n      0x20\n        /* \"#utility.yul\":10845:10848   */\n      dup3\n        /* \"#utility.yul\":10841:10853   */\n      add\n        /* \"#utility.yul\":10834:10853   */\n      swap1\n      pop\n        /* \"#utility.yul\":10493:10859   */\n      swap2\n      swap1\n      pop\n      jump\t// out\n        /* \"#utility.yul\":10865:11284   */\n    tag_75:\n        /* \"#utility.yul\":11031:11035   */\n      0x00\n        /* \"#utility.yul\":11069:11071   */\n      0x20\n        /* \"#utility.yul\":11058:11067   */\n      dup3\n        /* \"#utility.yul\":11054:11072   */\n      add\n        /* \"#utility.yul\":11046:11072   */\n      swap1\n      pop\n        /* \"#utility.yul\":11118:11127   */\n      dup2\n        /* \"#utility.yul\":11112:11116   */\n      dup2\n        /* \"#utility.yul\":11108:11128   */\n      sub\n        /* \"#utility.yul\":11104:11105   */\n      0x00\n        /* \"#utility.yul\":11093:11102   */\n      dup4\n        /* \"#utility.yul\":11089:11106   */\n      add\n        /* \"#utility.yul\":11082:11129   */\n      mstore\n        /* \"#utility.yul\":11146:11277   */\n      tag_216\n        /* \"#utility.yul\":11272:11276   */\n      dup2\n        /* \"#utility.yul\":11146:11277   */\n      tag_109\n      jump\t// in\n    tag_216:\n        /* \"#utility.yul\":11138:11277   */\n      swap1\n      pop\n        /* \"#utility.yul\":10865:11284   */\n      swap2\n      swap1\n      pop\n      jump\t// out\n        /* \"#utility.yul\":11290:11472   */\n    tag_110:\n        /* \"#utility.yul\":11430:11464   */\n      0x566f74657220616c72656164792068617320766f74696e67207269676874732e\n        /* \"#utility.yul\":11426:11427   */\n      0x00\n        /* \"#utility.yul\":11418:11424   */\n      dup3\n        /* \"#utility.yul\":11414:11428   */\n      add\n        /* \"#utility.yul\":11407:11465   */\n      mstore\n        /* \"#utility.yul\":11290:11472   */\n      pop\n      jump\t// out\n        /* \"#utility.yul\":11478:11844   */\n    tag_111:\n        /* \"#utility.yul\":11620:11623   */\n      0x00\n        /* \"#utility.yul\":11641:11708   */\n      tag_219\n        /* \"#utility.yul\":11705:11707   */\n      0x20\n        /* \"#utility.yul\":11700:11703   */\n      dup4\n        /* \"#utility.yul\":11641:11708   */\n      tag_86\n      jump\t// in\n    tag_219:\n        /* \"#utility.yul\":11634:11708   */\n      swap2\n      pop\n        /* \"#utility.yul\":11717:11810   */\n      tag_220\n        /* \"#utility.yul\":11806:11809   */\n      dup3\n        /* \"#utility.yul\":11717:11810   */\n      tag_110\n      jump\t// in\n    tag_220:\n        /* \"#utility.yul\":11835:11837   */\n      0x20\n        /* \"#utility.yul\":11830:11833   */\n      dup3\n        /* \"#utility.yul\":11826:11838   */\n      add\n        /* \"#utility.yul\":11819:11838   */\n      swap1\n      pop\n        /* \"#utility.yul\":11478:11844   */\n      swap2\n      swap1\n      pop\n      jump\t// out\n        /* \"#utility.yul\":11850:12269   */\n    tag_78:\n        /* \"#utility.yul\":12016:12020   */\n      0x00\n        /* \"#utility.yul\":12054:12056   */\n      0x20\n        /* \"#utility.yul\":12043:12052   */\n      dup3\n        /* \"#utility.yul\":12039:12057   */\n      add\n        /* \"#utility.yul\":12031:12057   */\n      swap1\n      pop\n        /* \"#utility.yul\":12103:12112   */\n      dup2\n        /* \"#utility.yul\":12097:12101   */\n      dup2\n        /* \"#utility.yul\":12093:12113   */\n      sub\n        /* \"#utility.yul\":12089:12090   */\n      0x00\n        /* \"#utility.yul\":12078:12087   */\n      dup4\n        /* \"#utility.yul\":12074:12091   */\n      add\n        /* \"#utility.yul\":12067:12114   */\n      mstore\n        /* \"#utility.yul\":12131:12262   */\n      tag_222\n        /* \"#utility.yul\":12257:12261   */\n      dup2\n        /* \"#utility.yul\":12131:12262   */\n      tag_111\n      jump\t// in\n    tag_222:\n        /* \"#utility.yul\":12123:12262   */\n      swap1\n      pop\n        /* \"#utility.yul\":11850:12269   */\n      swap2\n      swap1\n      pop\n      jump\t// out\n\n    auxdata: 0xa2646970667358221220843c9cc21b6ceba9637a4e12fbc7c011d0a652f7e42ff2f4331b5a44bff9878164736f6c634300081e0033\n}\n",
				"bytecode": {
					"linkReferences": {},
					"object": "608060405234801561000f575f5ffd5b5060405161142c38038061142c833981810160405281019061003191906103e2565b335f5f6101000a81548173ffffffffffffffffffffffffffffffffffffffff021916908373ffffffffffffffffffffffffffffffffffffffff1602179055506001805f5f5f9054906101000a900473ffffffffffffffffffffffffffffffffffffffff1673ffffffffffffffffffffffffffffffffffffffff1673ffffffffffffffffffffffffffffffffffffffff1681526020019081526020015f205f018190555080426100e09190610469565b6003819055505f5f90505b825181101561017857600260405180604001604052808584815181106101145761011361049c565b5b602002602001015181526020015f815250908060018154018082558091505060019003905f5260205f2090600202015f909190919091505f820151815f01908161015e91906106d0565b5060208201518160010155505080806001019150506100eb565b50505061079f565b5f604051905090565b5f5ffd5b5f5ffd5b5f5ffd5b5f601f19601f8301169050919050565b7f4e487b71000000000000000000000000000000000000000000000000000000005f52604160045260245ffd5b6101db82610195565b810181811067ffffffffffffffff821117156101fa576101f96101a5565b5b80604052505050565b5f61020c610180565b905061021882826101d2565b919050565b5f67ffffffffffffffff821115610237576102366101a5565b5b602082029050602081019050919050565b5f5ffd5b5f5ffd5b5f67ffffffffffffffff82111561026a576102696101a5565b5b61027382610195565b9050602081019050919050565b8281835e5f83830152505050565b5f6102a061029b84610250565b610203565b9050828152602081018484840111156102bc576102bb61024c565b5b6102c7848285610280565b509392505050565b5f82601f8301126102e3576102e2610191565b5b81516102f384826020860161028e565b91505092915050565b5f61030e6103098461021d565b610203565b9050808382526020820190506020840283018581111561033157610330610248565b5b835b8181101561037857805167ffffffffffffffff81111561035657610355610191565b5b80860161036389826102cf565b85526020850194505050602081019050610333565b5050509392505050565b5f82601f83011261039657610395610191565b5b81516103a68482602086016102fc565b91505092915050565b5f819050919050565b6103c1816103af565b81146103cb575f5ffd5b50565b5f815190506103dc816103b8565b92915050565b5f5f604083850312156103f8576103f7610189565b5b5f83015167ffffffffffffffff8111156104155761041461018d565b5b61042185828601610382565b9250506020610432858286016103ce565b9150509250929050565b7f4e487b71000000000000000000000000000000000000000000000000000000005f52601160045260245ffd5b5f610473826103af565b915061047e836103af565b92508282019050808211156104965761049561043c565b5b92915050565b7f4e487b71000000000000000000000000000000000000000000000000000000005f52603260045260245ffd5b5f81519050919050565b7f4e487b71000000000000000000000000000000000000000000000000000000005f52602260045260245ffd5b5f600282049050600182168061051757607f821691505b60208210810361052a576105296104d3565b5b50919050565b5f819050815f5260205f209050919050565b5f6020601f8301049050919050565b5f82821b905092915050565b5f6008830261058c7fffffffffffffffffffffffffffffffffffffffffffffffffffffffffffffffff82610551565b6105968683610551565b95508019841693508086168417925050509392505050565b5f819050919050565b5f6105d16105cc6105c7846103af565b6105ae565b6103af565b9050919050565b5f819050919050565b6105ea836105b7565b6105fe6105f6826105d8565b84845461055d565b825550505050565b5f5f905090565b610615610606565b6106208184846105e1565b505050565b5b81811015610643576106385f8261060d565b600181019050610626565b5050565b601f8211156106885761065981610530565b61066284610542565b81016020851015610671578190505b61068561067d85610542565b830182610625565b50505b505050565b5f82821c905092915050565b5f6106a85f198460080261068d565b1980831691505092915050565b5f6106c08383610699565b9150826002028217905092915050565b6106d9826104c9565b67ffffffffffffffff8111156106f2576106f16101a5565b5b6106fc8254610500565b610707828285610647565b5f60209050601f831160018114610738575f8415610726578287015190505b61073085826106b5565b865550610797565b601f19841661074686610530565b5f5b8281101561076d57848901518255600182019150602085019450602081019050610748565b8683101561078a5784890151610786601f891682610699565b8355505b6001600288020188555050505b505050505050565b610c80806107ac5f395ff3fe608060405234801561000f575f5ffd5b506004361061007b575f3560e01c80632e4176cf116100595780632e4176cf146100ea578063a3ec138d14610108578063c7e284b81461013a578063ce50aa7d146101585761007b565b80630121b93f1461007f578063013cf08b1461009b578063036ee850146100cc575b5f5ffd5b61009960048036038101906100949190610646565b610174565b005b6100b560048036038101906100b09190610646565b6102f4565b6040516100c39291906106f0565b60405180910390f35b6100d46103a9565b6040516100e1919061071e565b60405180910390f35b6100f26103af565b6040516100ff9190610776565b60405180910390f35b610122600480360381019061011d91906107b9565b6103d3565b604051610131939291906107fe565b60405180910390f35b610142610405565b60405161014f919061071e565b60405180910390f35b610172600480360381019061016d9190610833565b61042b565b005b5f60015f3373ffffffffffffffffffffffffffffffffffffffff1673ffffffffffffffffffffffffffffffffffffffff1681526020019081526020015f2090505f815f0154116101f9576040517f08c379a00000000000000000000000000000000000000000000000000000000081526004016101f0906108bb565b60405180910390fd5b806001015f9054906101000a900460ff161561024a576040517f08c379a000000000000000000000000000000000000000000000000000000000815260040161024190610923565b60405180910390fd5b60035442111561028f576040517f08c379a0000000000000000000000000000000000000000000000000000000008152600401610286906109b1565b60405180910390fd5b6001816001015f6101000a81548160ff021916908315150217905550818160020181905550805f0154600283815481106102cc576102cb6109cf565b5b905f5260205f2090600202016001015f8282546102e99190610a29565b925050819055505050565b60028181548110610303575f80fd5b905f5260205f2090600202015f91509050805f01805461032290610a89565b80601f016020809104026020016040519081016040528092919081815260200182805461034e90610a89565b80156103995780601f1061037057610100808354040283529160200191610399565b820191905f5260205f20905b81548152906001019060200180831161037c57829003601f168201915b5050505050908060010154905082565b60035481565b5f5f9054906101000a900473ffffffffffffffffffffffffffffffffffffffff1681565b6001602052805f5260405f205f91509050805f015490806001015f9054906101000a900460ff16908060020154905083565b5f6003544210610417575f9050610428565b426003546104259190610ab9565b90505b90565b5f5f9054906101000a900473ffffffffffffffffffffffffffffffffffffffff1673ffffffffffffffffffffffffffffffffffffffff163373ffffffffffffffffffffffffffffffffffffffff16146104b9576040517f08c379a00000000000000000000000000000000000000000000000000000000081526004016104b090610b5c565b60405180910390fd5b60015f8373ffffffffffffffffffffffffffffffffffffffff1673ffffffffffffffffffffffffffffffffffffffff1681526020019081526020015f206001015f9054906101000a900460ff1615610546576040517f08c379a000000000000000000000000000000000000000000000000000000000815260040161053d90610bc4565b60405180910390fd5b5f60015f8473ffffffffffffffffffffffffffffffffffffffff1673ffffffffffffffffffffffffffffffffffffffff1681526020019081526020015f205f0154146105c7576040517f08c379a00000000000000000000000000000000000000000000000000000000081526004016105be90610c2c565b60405180910390fd5b8060015f8473ffffffffffffffffffffffffffffffffffffffff1673ffffffffffffffffffffffffffffffffffffffff1681526020019081526020015f205f01819055505050565b5f5ffd5b5f819050919050565b61062581610613565b811461062f575f5ffd5b50565b5f813590506106408161061c565b92915050565b5f6020828403121561065b5761065a61060f565b5b5f61066884828501610632565b91505092915050565b5f81519050919050565b5f82825260208201905092915050565b8281835e5f83830152505050565b5f601f19601f8301169050919050565b5f6106b382610671565b6106bd818561067b565b93506106cd81856020860161068b565b6106d681610699565b840191505092915050565b6106ea81610613565b82525050565b5f6040820190508181035f83015261070881856106a9565b905061071760208301846106e1565b9392505050565b5f6020820190506107315f8301846106e1565b92915050565b5f73ffffffffffffffffffffffffffffffffffffffff82169050919050565b5f61076082610737565b9050919050565b61077081610756565b82525050565b5f6020820190506107895f830184610767565b92915050565b61079881610756565b81146107a2575f5ffd5b50565b5f813590506107b38161078f565b92915050565b5f602082840312156107ce576107cd61060f565b5b5f6107db848285016107a5565b91505092915050565b5f8115159050919050565b6107f8816107e4565b82525050565b5f6060820190506108115f8301866106e1565b61081e60208301856107ef565b61082b60408301846106e1565b949350505050565b5f5f604083850312156108495761084861060f565b5b5f610856858286016107a5565b925050602061086785828601610632565b9150509250929050565b7f4e6f20726967687420746f20766f7465000000000000000000000000000000005f82015250565b5f6108a560108361067b565b91506108b082610871565b602082019050919050565b5f6020820190508181035f8301526108d281610899565b9050919050565b7f416c726561647920766f746564000000000000000000000000000000000000005f82015250565b5f61090d600d8361067b565b9150610918826108d9565b602082019050919050565b5f6020820190508181035f83015261093a81610901565b9050919050565b7f566f74696e6720697320636c6f7365642028446561646c696e652070617373655f8201527f6429000000000000000000000000000000000000000000000000000000000000602082015250565b5f61099b60228361067b565b91506109a682610941565b604082019050919050565b5f6020820190508181035f8301526109c88161098f565b9050919050565b7f4e487b71000000000000000000000000000000000000000000000000000000005f52603260045260245ffd5b7f4e487b71000000000000000000000000000000000000000000000000000000005f52601160045260245ffd5b5f610a3382610613565b9150610a3e83610613565b9250828201905080821115610a5657610a556109fc565b5b92915050565b7f4e487b71000000000000000000000000000000000000000000000000000000005f52602260045260245ffd5b5f6002820490506001821680610aa057607f821691505b602082108103610ab357610ab2610a5c565b5b50919050565b5f610ac382610613565b9150610ace83610613565b9250828203905081811115610ae657610ae56109fc565b5b92915050565b7f4f6e6c79206368616972706572736f6e2063616e2067697665207269676874205f8201527f746f20766f74652e000000000000000000000000000000000000000000000000602082015250565b5f610b4660288361067b565b9150610b5182610aec565b604082019050919050565b5f6020820190508181035f830152610b7381610b3a565b9050919050565b7f54686520766f74657220616c726561647920766f7465642e00000000000000005f82015250565b5f610bae60188361067b565b9150610bb982610b7a565b602082019050919050565b5f6020820190508181035f830152610bdb81610ba2565b9050919050565b7f566f74657220616c72656164792068617320766f74696e67207269676874732e5f82015250565b5f610c1660208361067b565b9150610c2182610be2565b602082019050919050565b5f6020820190508181035f830152610c4381610c0a565b905091905056fea2646970667358221220843c9cc21b6ceba9637a4e12fbc7c011d0a652f7e42ff2f4331b5a44bff9878164736f6c634300081e0033",
					"opcodes": "PUSH1 0x80 PUSH1 0x40 MSTORE CALLVALUE DUP1 ISZERO PUSH2 0xF JUMPI PUSH0 PUSH0 REVERT JUMPDEST POP PUSH1 0x40 MLOAD PUSH2 0x142C CODESIZE SUB DUP1 PUSH2 0x142C DUP4 CODECOPY DUP2 DUP2 ADD PUSH1 0x40 MSTORE DUP2 ADD SWAP1 PUSH2 0x31 SWAP2 SWAP1 PUSH2 0x3E2 JUMP JUMPDEST CALLER PUSH0 PUSH0 PUSH2 0x100 EXP DUP2 SLOAD DUP2 PUSH20 0xFFFFFFFFFFFFFFFFFFFFFFFFFFFFFFFFFFFFFFFF MUL NOT AND SWAP1 DUP4 PUSH20 0xFFFFFFFFFFFFFFFFFFFFFFFFFFFFFFFFFFFFFFFF AND MUL OR SWAP1 SSTORE POP PUSH1 0x1 DUP1 PUSH0 PUSH0 PUSH0 SWAP1 SLOAD SWAP1 PUSH2 0x100 EXP SWAP1 DIV PUSH20 0xFFFFFFFFFFFFFFFFFFFFFFFFFFFFFFFFFFFFFFFF AND PUSH20 0xFFFFFFFFFFFFFFFFFFFFFFFFFFFFFFFFFFFFFFFF AND PUSH20 0xFFFFFFFFFFFFFFFFFFFFFFFFFFFFFFFFFFFFFFFF AND DUP2 MSTORE PUSH1 0x20 ADD SWAP1 DUP2 MSTORE PUSH1 0x20 ADD PUSH0 KECCAK256 PUSH0 ADD DUP2 SWAP1 SSTORE POP DUP1 TIMESTAMP PUSH2 0xE0 SWAP2 SWAP1 PUSH2 0x469 JUMP JUMPDEST PUSH1 0x3 DUP2 SWAP1 SSTORE POP PUSH0 PUSH0 SWAP1 POP JUMPDEST DUP3 MLOAD DUP2 LT ISZERO PUSH2 0x178 JUMPI PUSH1 0x2 PUSH1 0x40 MLOAD DUP1 PUSH1 0x40 ADD PUSH1 0x40 MSTORE DUP1 DUP6 DUP5 DUP2 MLOAD DUP2 LT PUSH2 0x114 JUMPI PUSH2 0x113 PUSH2 0x49C JUMP JUMPDEST JUMPDEST PUSH1 0x20 MUL PUSH1 0x20 ADD ADD MLOAD DUP2 MSTORE PUSH1 0x20 ADD PUSH0 DUP2 MSTORE POP SWAP1 DUP1 PUSH1 0x1 DUP2 SLOAD ADD DUP1 DUP3 SSTORE DUP1 SWAP2 POP POP PUSH1 0x1 SWAP1 SUB SWAP1 PUSH0 MSTORE PUSH1 0x20 PUSH0 KECCAK256 SWAP1 PUSH1 0x2 MUL ADD PUSH0 SWAP1 SWAP2 SWAP1 SWAP2 SWAP1 SWAP2 POP PUSH0 DUP3 ADD MLOAD DUP2 PUSH0 ADD SWAP1 DUP2 PUSH2 0x15E SWAP2 SWAP1 PUSH2 0x6D0 JUMP JUMPDEST POP PUSH1 0x20 DUP3 ADD MLOAD DUP2 PUSH1 0x1 ADD SSTORE POP POP DUP1 DUP1 PUSH1 0x1 ADD SWAP2 POP POP PUSH2 0xEB JUMP JUMPDEST POP POP POP PUSH2 0x79F JUMP JUMPDEST PUSH0 PUSH1 0x40 MLOAD SWAP1 POP SWAP1 JUMP JUMPDEST PUSH0 PUSH0 REVERT JUMPDEST PUSH0 PUSH0 REVERT JUMPDEST PUSH0 PUSH0 REVERT JUMPDEST PUSH0 PUSH1 0x1F NOT PUSH1 0x1F DUP4 ADD AND SWAP1 POP SWAP2 SWAP1 POP JUMP JUMPDEST PUSH32 0x4E487B7100000000000000000000000000000000000000000000000000000000 PUSH0 MSTORE PUSH1 0x41 PUSH1 0x4 MSTORE PUSH1 0x24 PUSH0 REVERT JUMPDEST PUSH2 0x1DB DUP3 PUSH2 0x195 JUMP JUMPDEST DUP2 ADD DUP2 DUP2 LT PUSH8 0xFFFFFFFFFFFFFFFF DUP3 GT OR ISZERO PUSH2 0x1FA JUMPI PUSH2 0x1F9 PUSH2 0x1A5 JUMP JUMPDEST JUMPDEST DUP1 PUSH1 0x40 MSTORE POP POP POP JUMP JUMPDEST PUSH0 PUSH2 0x20C PUSH2 0x180 JUMP JUMPDEST SWAP1 POP PUSH2 0x218 DUP3 DUP3 PUSH2 0x1D2 JUMP JUMPDEST SWAP2 SWAP1 POP JUMP JUMPDEST PUSH0 PUSH8 0xFFFFFFFFFFFFFFFF DUP3 GT ISZERO PUSH2 0x237 JUMPI PUSH2 0x236 PUSH2 0x1A5 JUMP JUMPDEST JUMPDEST PUSH1 0x20 DUP3 MUL SWAP1 POP PUSH1 0x20 DUP2 ADD SWAP1 POP SWAP2 SWAP1 POP JUMP JUMPDEST PUSH0 PUSH0 REVERT JUMPDEST PUSH0 PUSH0 REVERT JUMPDEST PUSH0 PUSH8 0xFFFFFFFFFFFFFFFF DUP3 GT ISZERO PUSH2 0x26A JUMPI PUSH2 0x269 PUSH2 0x1A5 JUMP JUMPDEST JUMPDEST PUSH2 0x273 DUP3 PUSH2 0x195 JUMP JUMPDEST SWAP1 POP PUSH1 0x20 DUP2 ADD SWAP1 POP SWAP2 SWAP1 POP JUMP JUMPDEST DUP3 DUP2 DUP4 MCOPY PUSH0 DUP4 DUP4 ADD MSTORE POP POP POP JUMP JUMPDEST PUSH0 PUSH2 0x2A0 PUSH2 0x29B DUP5 PUSH2 0x250 JUMP JUMPDEST PUSH2 0x203 JUMP JUMPDEST SWAP1 POP DUP3 DUP2 MSTORE PUSH1 0x20 DUP2 ADD DUP5 DUP5 DUP5 ADD GT ISZERO PUSH2 0x2BC JUMPI PUSH2 0x2BB PUSH2 0x24C JUMP JUMPDEST JUMPDEST PUSH2 0x2C7 DUP5 DUP3 DUP6 PUSH2 0x280 JUMP JUMPDEST POP SWAP4 SWAP3 POP POP POP JUMP JUMPDEST PUSH0 DUP3 PUSH1 0x1F DUP4 ADD SLT PUSH2 0x2E3 JUMPI PUSH2 0x2E2 PUSH2 0x191 JUMP JUMPDEST JUMPDEST DUP2 MLOAD PUSH2 0x2F3 DUP5 DUP3 PUSH1 0x20 DUP7 ADD PUSH2 0x28E JUMP JUMPDEST SWAP2 POP POP SWAP3 SWAP2 POP POP JUMP JUMPDEST PUSH0 PUSH2 0x30E PUSH2 0x309 DUP5 PUSH2 0x21D JUMP JUMPDEST PUSH2 0x203 JUMP JUMPDEST SWAP1 POP DUP1 DUP4 DUP3 MSTORE PUSH1 0x20 DUP3 ADD SWAP1 POP PUSH1 0x20 DUP5 MUL DUP4 ADD DUP6 DUP2 GT ISZERO PUSH2 0x331 JUMPI PUSH2 0x330 PUSH2 0x248 JUMP JUMPDEST JUMPDEST DUP4 JUMPDEST DUP2 DUP2 LT ISZERO PUSH2 0x378 JUMPI DUP1 MLOAD PUSH8 0xFFFFFFFFFFFFFFFF DUP2 GT ISZERO PUSH2 0x356 JUMPI PUSH2 0x355 PUSH2 0x191 JUMP JUMPDEST JUMPDEST DUP1 DUP7 ADD PUSH2 0x363 DUP10 DUP3 PUSH2 0x2CF JUMP JUMPDEST DUP6 MSTORE PUSH1 0x20 DUP6 ADD SWAP5 POP POP POP PUSH1 0x20 DUP2 ADD SWAP1 POP PUSH2 0x333 JUMP JUMPDEST POP POP POP SWAP4 SWAP3 POP POP POP JUMP JUMPDEST PUSH0 DUP3 PUSH1 0x1F DUP4 ADD SLT PUSH2 0x396 JUMPI PUSH2 0x395 PUSH2 0x191 JUMP JUMPDEST JUMPDEST DUP2 MLOAD PUSH2 0x3A6 DUP5 DUP3 PUSH1 0x20 DUP7 ADD PUSH2 0x2FC JUMP JUMPDEST SWAP2 POP POP SWAP3 SWAP2 POP POP JUMP JUMPDEST PUSH0 DUP2 SWAP1 POP SWAP2 SWAP1 POP JUMP JUMPDEST PUSH2 0x3C1 DUP2 PUSH2 0x3AF JUMP JUMPDEST DUP2 EQ PUSH2 0x3CB JUMPI PUSH0 PUSH0 REVERT JUMPDEST POP JUMP JUMPDEST PUSH0 DUP2 MLOAD SWAP1 POP PUSH2 0x3DC DUP2 PUSH2 0x3B8 JUMP JUMPDEST SWAP3 SWAP2 POP POP JUMP JUMPDEST PUSH0 PUSH0 PUSH1 0x40 DUP4 DUP6 SUB SLT ISZERO PUSH2 0x3F8 JUMPI PUSH2 0x3F7 PUSH2 0x189 JUMP JUMPDEST JUMPDEST PUSH0 DUP4 ADD MLOAD PUSH8 0xFFFFFFFFFFFFFFFF DUP2 GT ISZERO PUSH2 0x415 JUMPI PUSH2 0x414 PUSH2 0x18D JUMP JUMPDEST JUMPDEST PUSH2 0x421 DUP6 DUP3 DUP7 ADD PUSH2 0x382 JUMP JUMPDEST SWAP3 POP POP PUSH1 0x20 PUSH2 0x432 DUP6 DUP3 DUP7 ADD PUSH2 0x3CE JUMP JUMPDEST SWAP2 POP POP SWAP3 POP SWAP3 SWAP1 POP JUMP JUMPDEST PUSH32 0x4E487B7100000000000000000000000000000000000000000000000000000000 PUSH0 MSTORE PUSH1 0x11 PUSH1 0x4 MSTORE PUSH1 0x24 PUSH0 REVERT JUMPDEST PUSH0 PUSH2 0x473 DUP3 PUSH2 0x3AF JUMP JUMPDEST SWAP2 POP PUSH2 0x47E DUP4 PUSH2 0x3AF JUMP JUMPDEST SWAP3 POP DUP3 DUP3 ADD SWAP1 POP DUP1 DUP3 GT ISZERO PUSH2 0x496 JUMPI PUSH2 0x495 PUSH2 0x43C JUMP JUMPDEST JUMPDEST SWAP3 SWAP2 POP POP JUMP JUMPDEST PUSH32 0x4E487B7100000000000000000000000000000000000000000000000000000000 PUSH0 MSTORE PUSH1 0x32 PUSH1 0x4 MSTORE PUSH1 0x24 PUSH0 REVERT JUMPDEST PUSH0 DUP2 MLOAD SWAP1 POP SWAP2 SWAP1 POP JUMP JUMPDEST PUSH32 0x4E487B7100000000000000000000000000000000000000000000000000000000 PUSH0 MSTORE PUSH1 0x22 PUSH1 0x4 MSTORE PUSH1 0x24 PUSH0 REVERT JUMPDEST PUSH0 PUSH1 0x2 DUP3 DIV SWAP1 POP PUSH1 0x1 DUP3 AND DUP1 PUSH2 0x517 JUMPI PUSH1 0x7F DUP3 AND SWAP2 POP JUMPDEST PUSH1 0x20 DUP3 LT DUP2 SUB PUSH2 0x52A JUMPI PUSH2 0x529 PUSH2 0x4D3 JUMP JUMPDEST JUMPDEST POP SWAP2 SWAP1 POP JUMP JUMPDEST PUSH0 DUP2 SWAP1 POP DUP2 PUSH0 MSTORE PUSH1 0x20 PUSH0 KECCAK256 SWAP1 POP SWAP2 SWAP1 POP JUMP JUMPDEST PUSH0 PUSH1 0x20 PUSH1 0x1F DUP4 ADD DIV SWAP1 POP SWAP2 SWAP1 POP JUMP JUMPDEST PUSH0 DUP3 DUP3 SHL SWAP1 POP SWAP3 SWAP2 POP POP JUMP JUMPDEST PUSH0 PUSH1 0x8 DUP4 MUL PUSH2 0x58C PUSH32 0xFFFFFFFFFFFFFFFFFFFFFFFFFFFFFFFFFFFFFFFFFFFFFFFFFFFFFFFFFFFFFFFF DUP3 PUSH2 0x551 JUMP JUMPDEST PUSH2 0x596 DUP7 DUP4 PUSH2 0x551 JUMP JUMPDEST SWAP6 POP DUP1 NOT DUP5 AND SWAP4 POP DUP1 DUP7 AND DUP5 OR SWAP3 POP POP POP SWAP4 SWAP3 POP POP POP JUMP JUMPDEST PUSH0 DUP2 SWAP1 POP SWAP2 SWAP1 POP JUMP JUMPDEST PUSH0 PUSH2 0x5D1 PUSH2 0x5CC PUSH2 0x5C7 DUP5 PUSH2 0x3AF JUMP JUMPDEST PUSH2 0x5AE JUMP JUMPDEST PUSH2 0x3AF JUMP JUMPDEST SWAP1 POP SWAP2 SWAP1 POP JUMP JUMPDEST PUSH0 DUP2 SWAP1 POP SWAP2 SWAP1 POP JUMP JUMPDEST PUSH2 0x5EA DUP4 PUSH2 0x5B7 JUMP JUMPDEST PUSH2 0x5FE PUSH2 0x5F6 DUP3 PUSH2 0x5D8 JUMP JUMPDEST DUP5 DUP5 SLOAD PUSH2 0x55D JUMP JUMPDEST DUP3 SSTORE POP POP POP POP JUMP JUMPDEST PUSH0 PUSH0 SWAP1 POP SWAP1 JUMP JUMPDEST PUSH2 0x615 PUSH2 0x606 JUMP JUMPDEST PUSH2 0x620 DUP2 DUP5 DUP5 PUSH2 0x5E1 JUMP JUMPDEST POP POP POP JUMP JUMPDEST JUMPDEST DUP2 DUP2 LT ISZERO PUSH2 0x643 JUMPI PUSH2 0x638 PUSH0 DUP3 PUSH2 0x60D JUMP JUMPDEST PUSH1 0x1 DUP2 ADD SWAP1 POP PUSH2 0x626 JUMP JUMPDEST POP POP JUMP JUMPDEST PUSH1 0x1F DUP3 GT ISZERO PUSH2 0x688 JUMPI PUSH2 0x659 DUP2 PUSH2 0x530 JUMP JUMPDEST PUSH2 0x662 DUP5 PUSH2 0x542 JUMP JUMPDEST DUP2 ADD PUSH1 0x20 DUP6 LT ISZERO PUSH2 0x671 JUMPI DUP2 SWAP1 POP JUMPDEST PUSH2 0x685 PUSH2 0x67D DUP6 PUSH2 0x542 JUMP JUMPDEST DUP4 ADD DUP3 PUSH2 0x625 JUMP JUMPDEST POP POP JUMPDEST POP POP POP JUMP JUMPDEST PUSH0 DUP3 DUP3 SHR SWAP1 POP SWAP3 SWAP2 POP POP JUMP JUMPDEST PUSH0 PUSH2 0x6A8 PUSH0 NOT DUP5 PUSH1 0x8 MUL PUSH2 0x68D JUMP JUMPDEST NOT DUP1 DUP4 AND SWAP2 POP POP SWAP3 SWAP2 POP POP JUMP JUMPDEST PUSH0 PUSH2 0x6C0 DUP4 DUP4 PUSH2 0x699 JUMP JUMPDEST SWAP2 POP DUP3 PUSH1 0x2 MUL DUP3 OR SWAP1 POP SWAP3 SWAP2 POP POP JUMP JUMPDEST PUSH2 0x6D9 DUP3 PUSH2 0x4C9 JUMP JUMPDEST PUSH8 0xFFFFFFFFFFFFFFFF DUP2 GT ISZERO PUSH2 0x6F2 JUMPI PUSH2 0x6F1 PUSH2 0x1A5 JUMP JUMPDEST JUMPDEST PUSH2 0x6FC DUP3 SLOAD PUSH2 0x500 JUMP JUMPDEST PUSH2 0x707 DUP3 DUP3 DUP6 PUSH2 0x647 JUMP JUMPDEST PUSH0 PUSH1 0x20 SWAP1 POP PUSH1 0x1F DUP4 GT PUSH1 0x1 DUP2 EQ PUSH2 0x738 JUMPI PUSH0 DUP5 ISZERO PUSH2 0x726 JUMPI DUP3 DUP8 ADD MLOAD SWAP1 POP JUMPDEST PUSH2 0x730 DUP6 DUP3 PUSH2 0x6B5 JUMP JUMPDEST DUP7 SSTORE POP PUSH2 0x797 JUMP JUMPDEST PUSH1 0x1F NOT DUP5 AND PUSH2 0x746 DUP7 PUSH2 0x530 JUMP JUMPDEST PUSH0 JUMPDEST DUP3 DUP2 LT ISZERO PUSH2 0x76D JUMPI DUP5 DUP10 ADD MLOAD DUP3 SSTORE PUSH1 0x1 DUP3 ADD SWAP2 POP PUSH1 0x20 DUP6 ADD SWAP5 POP PUSH1 0x20 DUP2 ADD SWAP1 POP PUSH2 0x748 JUMP JUMPDEST DUP7 DUP4 LT ISZERO PUSH2 0x78A JUMPI DUP5 DUP10 ADD MLOAD PUSH2 0x786 PUSH1 0x1F DUP10 AND DUP3 PUSH2 0x699 JUMP JUMPDEST DUP4 SSTORE POP JUMPDEST PUSH1 0x1 PUSH1 0x2 DUP9 MUL ADD DUP9 SSTORE POP POP POP JUMPDEST POP POP POP POP POP POP JUMP JUMPDEST PUSH2 0xC80 DUP1 PUSH2 0x7AC PUSH0 CODECOPY PUSH0 RETURN INVALID PUSH1 0x80 PUSH1 0x40 MSTORE CALLVALUE DUP1 ISZERO PUSH2 0xF JUMPI PUSH0 PUSH0 REVERT JUMPDEST POP PUSH1 0x4 CALLDATASIZE LT PUSH2 0x7B JUMPI PUSH0 CALLDATALOAD PUSH1 0xE0 SHR DUP1 PUSH4 0x2E4176CF GT PUSH2 0x59 JUMPI DUP1 PUSH4 0x2E4176CF EQ PUSH2 0xEA JUMPI DUP1 PUSH4 0xA3EC138D EQ PUSH2 0x108 JUMPI DUP1 PUSH4 0xC7E284B8 EQ PUSH2 0x13A JUMPI DUP1 PUSH4 0xCE50AA7D EQ PUSH2 0x158 JUMPI PUSH2 0x7B JUMP JUMPDEST DUP1 PUSH4 0x121B93F EQ PUSH2 0x7F JUMPI DUP1 PUSH4 0x13CF08B EQ PUSH2 0x9B JUMPI DUP1 PUSH4 0x36EE850 EQ PUSH2 0xCC JUMPI JUMPDEST PUSH0 PUSH0 REVERT JUMPDEST PUSH2 0x99 PUSH1 0x4 DUP1 CALLDATASIZE SUB DUP2 ADD SWAP1 PUSH2 0x94 SWAP2 SWAP1 PUSH2 0x646 JUMP JUMPDEST PUSH2 0x174 JUMP JUMPDEST STOP JUMPDEST PUSH2 0xB5 PUSH1 0x4 DUP1 CALLDATASIZE SUB DUP2 ADD SWAP1 PUSH2 0xB0 SWAP2 SWAP1 PUSH2 0x646 JUMP JUMPDEST PUSH2 0x2F4 JUMP JUMPDEST PUSH1 0x40 MLOAD PUSH2 0xC3 SWAP3 SWAP2 SWAP1 PUSH2 0x6F0 JUMP JUMPDEST PUSH1 0x40 MLOAD DUP1 SWAP2 SUB SWAP1 RETURN JUMPDEST PUSH2 0xD4 PUSH2 0x3A9 JUMP JUMPDEST PUSH1 0x40 MLOAD PUSH2 0xE1 SWAP2 SWAP1 PUSH2 0x71E JUMP JUMPDEST PUSH1 0x40 MLOAD DUP1 SWAP2 SUB SWAP1 RETURN JUMPDEST PUSH2 0xF2 PUSH2 0x3AF JUMP JUMPDEST PUSH1 0x40 MLOAD PUSH2 0xFF SWAP2 SWAP1 PUSH2 0x776 JUMP JUMPDEST PUSH1 0x40 MLOAD DUP1 SWAP2 SUB SWAP1 RETURN JUMPDEST PUSH2 0x122 PUSH1 0x4 DUP1 CALLDATASIZE SUB DUP2 ADD SWAP1 PUSH2 0x11D SWAP2 SWAP1 PUSH2 0x7B9 JUMP JUMPDEST PUSH2 0x3D3 JUMP JUMPDEST PUSH1 0x40 MLOAD PUSH2 0x131 SWAP4 SWAP3 SWAP2 SWAP1 PUSH2 0x7FE JUMP JUMPDEST PUSH1 0x40 MLOAD DUP1 SWAP2 SUB SWAP1 RETURN JUMPDEST PUSH2 0x142 PUSH2 0x405 JUMP JUMPDEST PUSH1 0x40 MLOAD PUSH2 0x14F SWAP2 SWAP1 PUSH2 0x71E JUMP JUMPDEST PUSH1 0x40 MLOAD DUP1 SWAP2 SUB SWAP1 RETURN JUMPDEST PUSH2 0x172 PUSH1 0x4 DUP1 CALLDATASIZE SUB DUP2 ADD SWAP1 PUSH2 0x16D SWAP2 SWAP1 PUSH2 0x833 JUMP JUMPDEST PUSH2 0x42B JUMP JUMPDEST STOP JUMPDEST PUSH0 PUSH1 0x1 PUSH0 CALLER PUSH20 0xFFFFFFFFFFFFFFFFFFFFFFFFFFFFFFFFFFFFFFFF AND PUSH20 0xFFFFFFFFFFFFFFFFFFFFFFFFFFFFFFFFFFFFFFFF AND DUP2 MSTORE PUSH1 0x20 ADD SWAP1 DUP2 MSTORE PUSH1 0x20 ADD PUSH0 KECCAK256 SWAP1 POP PUSH0 DUP2 PUSH0 ADD SLOAD GT PUSH2 0x1F9 JUMPI PUSH1 0x40 MLOAD PUSH32 0x8C379A000000000000000000000000000000000000000000000000000000000 DUP2 MSTORE PUSH1 0x4 ADD PUSH2 0x1F0 SWAP1 PUSH2 0x8BB JUMP JUMPDEST PUSH1 0x40 MLOAD DUP1 SWAP2 SUB SWAP1 REVERT JUMPDEST DUP1 PUSH1 0x1 ADD PUSH0 SWAP1 SLOAD SWAP1 PUSH2 0x100 EXP SWAP1 DIV PUSH1 0xFF AND ISZERO PUSH2 0x24A JUMPI PUSH1 0x40 MLOAD PUSH32 0x8C379A000000000000000000000000000000000000000000000000000000000 DUP2 MSTORE PUSH1 0x4 ADD PUSH2 0x241 SWAP1 PUSH2 0x923 JUMP JUMPDEST PUSH1 0x40 MLOAD DUP1 SWAP2 SUB SWAP1 REVERT JUMPDEST PUSH1 0x3 SLOAD TIMESTAMP GT ISZERO PUSH2 0x28F JUMPI PUSH1 0x40 MLOAD PUSH32 0x8C379A000000000000000000000000000000000000000000000000000000000 DUP2 MSTORE PUSH1 0x4 ADD PUSH2 0x286 SWAP1 PUSH2 0x9B1 JUMP JUMPDEST PUSH1 0x40 MLOAD DUP1 SWAP2 SUB SWAP1 REVERT JUMPDEST PUSH1 0x1 DUP2 PUSH1 0x1 ADD PUSH0 PUSH2 0x100 EXP DUP2 SLOAD DUP2 PUSH1 0xFF MUL NOT AND SWAP1 DUP4 ISZERO ISZERO MUL OR SWAP1 SSTORE POP DUP2 DUP2 PUSH1 0x2 ADD DUP2 SWAP1 SSTORE POP DUP1 PUSH0 ADD SLOAD PUSH1 0x2 DUP4 DUP2 SLOAD DUP2 LT PUSH2 0x2CC JUMPI PUSH2 0x2CB PUSH2 0x9CF JUMP JUMPDEST JUMPDEST SWAP1 PUSH0 MSTORE PUSH1 0x20 PUSH0 KECCAK256 SWAP1 PUSH1 0x2 MUL ADD PUSH1 0x1 ADD PUSH0 DUP3 DUP3 SLOAD PUSH2 0x2E9 SWAP2 SWAP1 PUSH2 0xA29 JUMP JUMPDEST SWAP3 POP POP DUP2 SWAP1 SSTORE POP POP POP JUMP JUMPDEST PUSH1 0x2 DUP2 DUP2 SLOAD DUP2 LT PUSH2 0x303 JUMPI PUSH0 DUP1 REVERT JUMPDEST SWAP1 PUSH0 MSTORE PUSH1 0x20 PUSH0 KECCAK256 SWAP1 PUSH1 0x2 MUL ADD PUSH0 SWAP2 POP SWAP1 POP DUP1 PUSH0 ADD DUP1 SLOAD PUSH2 0x322 SWAP1 PUSH2 0xA89 JUMP JUMPDEST DUP1 PUSH1 0x1F ADD PUSH1 0x20 DUP1 SWAP2 DIV MUL PUSH1 0x20 ADD PUSH1 0x40 MLOAD SWAP1 DUP2 ADD PUSH1 0x40 MSTORE DUP1 SWAP3 SWAP2 SWAP1 DUP2 DUP2 MSTORE PUSH1 0x20 ADD DUP3 DUP1 SLOAD PUSH2 0x34E SWAP1 PUSH2 0xA89 JUMP JUMPDEST DUP1 ISZERO PUSH2 0x399 JUMPI DUP1 PUSH1 0x1F LT PUSH2 0x370 JUMPI PUSH2 0x100 DUP1 DUP4 SLOAD DIV MUL DUP4 MSTORE SWAP2 PUSH1 0x20 ADD SWAP2 PUSH2 0x399 JUMP JUMPDEST DUP3 ADD SWAP2 SWAP1 PUSH0 MSTORE PUSH1 0x20 PUSH0 KECCAK256 SWAP1 JUMPDEST DUP2 SLOAD DUP2 MSTORE SWAP1 PUSH1 0x1 ADD SWAP1 PUSH1 0x20 ADD DUP1 DUP4 GT PUSH2 0x37C JUMPI DUP3 SWAP1 SUB PUSH1 0x1F AND DUP3 ADD SWAP2 JUMPDEST POP POP POP POP POP SWAP1 DUP1 PUSH1 0x1 ADD SLOAD SWAP1 POP DUP3 JUMP JUMPDEST PUSH1 0x3 SLOAD DUP2 JUMP JUMPDEST PUSH0 PUSH0 SWAP1 SLOAD SWAP1 PUSH2 0x100 EXP SWAP1 DIV PUSH20 0xFFFFFFFFFFFFFFFFFFFFFFFFFFFFFFFFFFFFFFFF AND DUP2 JUMP JUMPDEST PUSH1 0x1 PUSH1 0x20 MSTORE DUP1 PUSH0 MSTORE PUSH1 0x40 PUSH0 KECCAK256 PUSH0 SWAP2 POP SWAP1 POP DUP1 PUSH0 ADD SLOAD SWAP1 DUP1 PUSH1 0x1 ADD PUSH0 SWAP1 SLOAD SWAP1 PUSH2 0x100 EXP SWAP1 DIV PUSH1 0xFF AND SWAP1 DUP1 PUSH1 0x2 ADD SLOAD SWAP1 POP DUP4 JUMP JUMPDEST PUSH0 PUSH1 0x3 SLOAD TIMESTAMP LT PUSH2 0x417 JUMPI PUSH0 SWAP1 POP PUSH2 0x428 JUMP JUMPDEST TIMESTAMP PUSH1 0x3 SLOAD PUSH2 0x425 SWAP2 SWAP1 PUSH2 0xAB9 JUMP JUMPDEST SWAP1 POP JUMPDEST SWAP1 JUMP JUMPDEST PUSH0 PUSH0 SWAP1 SLOAD SWAP1 PUSH2 0x100 EXP SWAP1 DIV PUSH20 0xFFFFFFFFFFFFFFFFFFFFFFFFFFFFFFFFFFFFFFFF AND PUSH20 0xFFFFFFFFFFFFFFFFFFFFFFFFFFFFFFFFFFFFFFFF AND CALLER PUSH20 0xFFFFFFFFFFFFFFFFFFFFFFFFFFFFFFFFFFFFFFFF AND EQ PUSH2 0x4B9 JUMPI PUSH1 0x40 MLOAD PUSH32 0x8C379A000000000000000000000000000000000000000000000000000000000 DUP2 MSTORE PUSH1 0x4 ADD PUSH2 0x4B0 SWAP1 PUSH2 0xB5C JUMP JUMPDEST PUSH1 0x40 MLOAD DUP1 SWAP2 SUB SWAP1 REVERT JUMPDEST PUSH1 0x1 PUSH0 DUP4 PUSH20 0xFFFFFFFFFFFFFFFFFFFFFFFFFFFFFFFFFFFFFFFF AND PUSH20 0xFFFFFFFFFFFFFFFFFFFFFFFFFFFFFFFFFFFFFFFF AND DUP2 MSTORE PUSH1 0x20 ADD SWAP1 DUP2 MSTORE PUSH1 0x20 ADD PUSH0 KECCAK256 PUSH1 0x1 ADD PUSH0 SWAP1 SLOAD SWAP1 PUSH2 0x100 EXP SWAP1 DIV PUSH1 0xFF AND ISZERO PUSH2 0x546 JUMPI PUSH1 0x40 MLOAD PUSH32 0x8C379A000000000000000000000000000000000000000000000000000000000 DUP2 MSTORE PUSH1 0x4 ADD PUSH2 0x53D SWAP1 PUSH2 0xBC4 JUMP JUMPDEST PUSH1 0x40 MLOAD DUP1 SWAP2 SUB SWAP1 REVERT JUMPDEST PUSH0 PUSH1 0x1 PUSH0 DUP5 PUSH20 0xFFFFFFFFFFFFFFFFFFFFFFFFFFFFFFFFFFFFFFFF AND PUSH20 0xFFFFFFFFFFFFFFFFFFFFFFFFFFFFFFFFFFFFFFFF AND DUP2 MSTORE PUSH1 0x20 ADD SWAP1 DUP2 MSTORE PUSH1 0x20 ADD PUSH0 KECCAK256 PUSH0 ADD SLOAD EQ PUSH2 0x5C7 JUMPI PUSH1 0x40 MLOAD PUSH32 0x8C379A000000000000000000000000000000000000000000000000000000000 DUP2 MSTORE PUSH1 0x4 ADD PUSH2 0x5BE SWAP1 PUSH2 0xC2C JUMP JUMPDEST PUSH1 0x40 MLOAD DUP1 SWAP2 SUB SWAP1 REVERT JUMPDEST DUP1 PUSH1 0x1 PUSH0 DUP5 PUSH20 0xFFFFFFFFFFFFFFFFFFFFFFFFFFFFFFFFFFFFFFFF AND PUSH20 0xFFFFFFFFFFFFFFFFFFFFFFFFFFFFFFFFFFFFFFFF AND DUP2 MSTORE PUSH1 0x20 ADD SWAP1 DUP2 MSTORE PUSH1 0x20 ADD PUSH0 KECCAK256 PUSH0 ADD DUP2 SWAP1 SSTORE POP POP POP JUMP JUMPDEST PUSH0 PUSH0 REVERT JUMPDEST PUSH0 DUP2 SWAP1 POP SWAP2 SWAP1 POP JUMP JUMPDEST PUSH2 0x625 DUP2 PUSH2 0x613 JUMP JUMPDEST DUP2 EQ PUSH2 0x62F JUMPI PUSH0 PUSH0 REVERT JUMPDEST POP JUMP JUMPDEST PUSH0 DUP2 CALLDATALOAD SWAP1 POP PUSH2 0x640 DUP2 PUSH2 0x61C JUMP JUMPDEST SWAP3 SWAP2 POP POP JUMP JUMPDEST PUSH0 PUSH1 0x20 DUP3 DUP5 SUB SLT ISZERO PUSH2 0x65B JUMPI PUSH2 0x65A PUSH2 0x60F JUMP JUMPDEST JUMPDEST PUSH0 PUSH2 0x668 DUP5 DUP3 DUP6 ADD PUSH2 0x632 JUMP JUMPDEST SWAP2 POP POP SWAP3 SWAP2 POP POP JUMP JUMPDEST PUSH0 DUP2 MLOAD SWAP1 POP SWAP2 SWAP1 POP JUMP JUMPDEST PUSH0 DUP3 DUP3 MSTORE PUSH1 0x20 DUP3 ADD SWAP1 POP SWAP3 SWAP2 POP POP JUMP JUMPDEST DUP3 DUP2 DUP4 MCOPY PUSH0 DUP4 DUP4 ADD MSTORE POP POP POP JUMP JUMPDEST PUSH0 PUSH1 0x1F NOT PUSH1 0x1F DUP4 ADD AND SWAP1 POP SWAP2 SWAP1 POP JUMP JUMPDEST PUSH0 PUSH2 0x6B3 DUP3 PUSH2 0x671 JUMP JUMPDEST PUSH2 0x6BD DUP2 DUP6 PUSH2 0x67B JUMP JUMPDEST SWAP4 POP PUSH2 0x6CD DUP2 DUP6 PUSH1 0x20 DUP7 ADD PUSH2 0x68B JUMP JUMPDEST PUSH2 0x6D6 DUP2 PUSH2 0x699 JUMP JUMPDEST DUP5 ADD SWAP2 POP POP SWAP3 SWAP2 POP POP JUMP JUMPDEST PUSH2 0x6EA DUP2 PUSH2 0x613 JUMP JUMPDEST DUP3 MSTORE POP POP JUMP JUMPDEST PUSH0 PUSH1 0x40 DUP3 ADD SWAP1 POP DUP2 DUP2 SUB PUSH0 DUP4 ADD MSTORE PUSH2 0x708 DUP2 DUP6 PUSH2 0x6A9 JUMP JUMPDEST SWAP1 POP PUSH2 0x717 PUSH1 0x20 DUP4 ADD DUP5 PUSH2 0x6E1 JUMP JUMPDEST SWAP4 SWAP3 POP POP POP JUMP JUMPDEST PUSH0 PUSH1 0x20 DUP3 ADD SWAP1 POP PUSH2 0x731 PUSH0 DUP4 ADD DUP5 PUSH2 0x6E1 JUMP JUMPDEST SWAP3 SWAP2 POP POP JUMP JUMPDEST PUSH0 PUSH20 0xFFFFFFFFFFFFFFFFFFFFFFFFFFFFFFFFFFFFFFFF DUP3 AND SWAP1 POP SWAP2 SWAP1 POP JUMP JUMPDEST PUSH0 PUSH2 0x760 DUP3 PUSH2 0x737 JUMP JUMPDEST SWAP1 POP SWAP2 SWAP1 POP JUMP JUMPDEST PUSH2 0x770 DUP2 PUSH2 0x756 JUMP JUMPDEST DUP3 MSTORE POP POP JUMP JUMPDEST PUSH0 PUSH1 0x20 DUP3 ADD SWAP1 POP PUSH2 0x789 PUSH0 DUP4 ADD DUP5 PUSH2 0x767 JUMP JUMPDEST SWAP3 SWAP2 POP POP JUMP JUMPDEST PUSH2 0x798 DUP2 PUSH2 0x756 JUMP JUMPDEST DUP2 EQ PUSH2 0x7A2 JUMPI PUSH0 PUSH0 REVERT JUMPDEST POP JUMP JUMPDEST PUSH0 DUP2 CALLDATALOAD SWAP1 POP PUSH2 0x7B3 DUP2 PUSH2 0x78F JUMP JUMPDEST SWAP3 SWAP2 POP POP JUMP JUMPDEST PUSH0 PUSH1 0x20 DUP3 DUP5 SUB SLT ISZERO PUSH2 0x7CE JUMPI PUSH2 0x7CD PUSH2 0x60F JUMP JUMPDEST JUMPDEST PUSH0 PUSH2 0x7DB DUP5 DUP3 DUP6 ADD PUSH2 0x7A5 JUMP JUMPDEST SWAP2 POP POP SWAP3 SWAP2 POP POP JUMP JUMPDEST PUSH0 DUP2 ISZERO ISZERO SWAP1 POP SWAP2 SWAP1 POP JUMP JUMPDEST PUSH2 0x7F8 DUP2 PUSH2 0x7E4 JUMP JUMPDEST DUP3 MSTORE POP POP JUMP JUMPDEST PUSH0 PUSH1 0x60 DUP3 ADD SWAP1 POP PUSH2 0x811 PUSH0 DUP4 ADD DUP7 PUSH2 0x6E1 JUMP JUMPDEST PUSH2 0x81E PUSH1 0x20 DUP4 ADD DUP6 PUSH2 0x7EF JUMP JUMPDEST PUSH2 0x82B PUSH1 0x40 DUP4 ADD DUP5 PUSH2 0x6E1 JUMP JUMPDEST SWAP5 SWAP4 POP POP POP POP JUMP JUMPDEST PUSH0 PUSH0 PUSH1 0x40 DUP4 DUP6 SUB SLT ISZERO PUSH2 0x849 JUMPI PUSH2 0x848 PUSH2 0x60F JUMP JUMPDEST JUMPDEST PUSH0 PUSH2 0x856 DUP6 DUP3 DUP7 ADD PUSH2 0x7A5 JUMP JUMPDEST SWAP3 POP POP PUSH1 0x20 PUSH2 0x867 DUP6 DUP3 DUP7 ADD PUSH2 0x632 JUMP JUMPDEST SWAP2 POP POP SWAP3 POP SWAP3 SWAP1 POP JUMP JUMPDEST PUSH32 0x4E6F20726967687420746F20766F746500000000000000000000000000000000 PUSH0 DUP3 ADD MSTORE POP JUMP JUMPDEST PUSH0 PUSH2 0x8A5 PUSH1 0x10 DUP4 PUSH2 0x67B JUMP JUMPDEST SWAP2 POP PUSH2 0x8B0 DUP3 PUSH2 0x871 JUMP JUMPDEST PUSH1 0x20 DUP3 ADD SWAP1 POP SWAP2 SWAP1 POP JUMP JUMPDEST PUSH0 PUSH1 0x20 DUP3 ADD SWAP1 POP DUP2 DUP2 SUB PUSH0 DUP4 ADD MSTORE PUSH2 0x8D2 DUP2 PUSH2 0x899 JUMP JUMPDEST SWAP1 POP SWAP2 SWAP1 POP JUMP JUMPDEST PUSH32 0x416C726561647920766F74656400000000000000000000000000000000000000 PUSH0 DUP3 ADD MSTORE POP JUMP JUMPDEST PUSH0 PUSH2 0x90D PUSH1 0xD DUP4 PUSH2 0x67B JUMP JUMPDEST SWAP2 POP PUSH2 0x918 DUP3 PUSH2 0x8D9 JUMP JUMPDEST PUSH1 0x20 DUP3 ADD SWAP1 POP SWAP2 SWAP1 POP JUMP JUMPDEST PUSH0 PUSH1 0x20 DUP3 ADD SWAP1 POP DUP2 DUP2 SUB PUSH0 DUP4 ADD MSTORE PUSH2 0x93A DUP2 PUSH2 0x901 JUMP JUMPDEST SWAP1 POP SWAP2 SWAP1 POP JUMP JUMPDEST PUSH32 0x566F74696E6720697320636C6F7365642028446561646C696E65207061737365 PUSH0 DUP3 ADD MSTORE PUSH32 0x6429000000000000000000000000000000000000000000000000000000000000 PUSH1 0x20 DUP3 ADD MSTORE POP JUMP JUMPDEST PUSH0 PUSH2 0x99B PUSH1 0x22 DUP4 PUSH2 0x67B JUMP JUMPDEST SWAP2 POP PUSH2 0x9A6 DUP3 PUSH2 0x941 JUMP JUMPDEST PUSH1 0x40 DUP3 ADD SWAP1 POP SWAP2 SWAP1 POP JUMP JUMPDEST PUSH0 PUSH1 0x20 DUP3 ADD SWAP1 POP DUP2 DUP2 SUB PUSH0 DUP4 ADD MSTORE PUSH2 0x9C8 DUP2 PUSH2 0x98F JUMP JUMPDEST SWAP1 POP SWAP2 SWAP1 POP JUMP JUMPDEST PUSH32 0x4E487B7100000000000000000000000000000000000000000000000000000000 PUSH0 MSTORE PUSH1 0x32 PUSH1 0x4 MSTORE PUSH1 0x24 PUSH0 REVERT JUMPDEST PUSH32 0x4E487B7100000000000000000000000000000000000000000000000000000000 PUSH0 MSTORE PUSH1 0x11 PUSH1 0x4 MSTORE PUSH1 0x24 PUSH0 REVERT JUMPDEST PUSH0 PUSH2 0xA33 DUP3 PUSH2 0x613 JUMP JUMPDEST SWAP2 POP PUSH2 0xA3E DUP4 PUSH2 0x613 JUMP JUMPDEST SWAP3 POP DUP3 DUP3 ADD SWAP1 POP DUP1 DUP3 GT ISZERO PUSH2 0xA56 JUMPI PUSH2 0xA55 PUSH2 0x9FC JUMP JUMPDEST JUMPDEST SWAP3 SWAP2 POP POP JUMP JUMPDEST PUSH32 0x4E487B7100000000000000000000000000000000000000000000000000000000 PUSH0 MSTORE PUSH1 0x22 PUSH1 0x4 MSTORE PUSH1 0x24 PUSH0 REVERT JUMPDEST PUSH0 PUSH1 0x2 DUP3 DIV SWAP1 POP PUSH1 0x1 DUP3 AND DUP1 PUSH2 0xAA0 JUMPI PUSH1 0x7F DUP3 AND SWAP2 POP JUMPDEST PUSH1 0x20 DUP3 LT DUP2 SUB PUSH2 0xAB3 JUMPI PUSH2 0xAB2 PUSH2 0xA5C JUMP JUMPDEST JUMPDEST POP SWAP2 SWAP1 POP JUMP JUMPDEST PUSH0 PUSH2 0xAC3 DUP3 PUSH2 0x613 JUMP JUMPDEST SWAP2 POP PUSH2 0xACE DUP4 PUSH2 0x613 JUMP JUMPDEST SWAP3 POP DUP3 DUP3 SUB SWAP1 POP DUP2 DUP2 GT ISZERO PUSH2 0xAE6 JUMPI PUSH2 0xAE5 PUSH2 0x9FC JUMP JUMPDEST JUMPDEST SWAP3 SWAP2 POP POP JUMP JUMPDEST PUSH32 0x4F6E6C79206368616972706572736F6E2063616E206769766520726967687420 PUSH0 DUP3 ADD MSTORE PUSH32 0x746F20766F74652E000000000000000000000000000000000000000000000000 PUSH1 0x20 DUP3 ADD MSTORE POP JUMP JUMPDEST PUSH0 PUSH2 0xB46 PUSH1 0x28 DUP4 PUSH2 0x67B JUMP JUMPDEST SWAP2 POP PUSH2 0xB51 DUP3 PUSH2 0xAEC JUMP JUMPDEST PUSH1 0x40 DUP3 ADD SWAP1 POP SWAP2 SWAP1 POP JUMP JUMPDEST PUSH0 PUSH1 0x20 DUP3 ADD SWAP1 POP DUP2 DUP2 SUB PUSH0 DUP4 ADD MSTORE PUSH2 0xB73 DUP2 PUSH2 0xB3A JUMP JUMPDEST SWAP1 POP SWAP2 SWAP1 POP JUMP JUMPDEST PUSH32 0x54686520766F74657220616C726561647920766F7465642E0000000000000000 PUSH0 DUP3 ADD MSTORE POP JUMP JUMPDEST PUSH0 PUSH2 0xBAE PUSH1 0x18 DUP4 PUSH2 0x67B JUMP JUMPDEST SWAP2 POP PUSH2 0xBB9 DUP3 PUSH2 0xB7A JUMP JUMPDEST PUSH1 0x20 DUP3 ADD SWAP1 POP SWAP2 SWAP1 POP JUMP JUMPDEST PUSH0 PUSH1 0x20 DUP3 ADD SWAP1 POP DUP2 DUP2 SUB PUSH0 DUP4 ADD MSTORE PUSH2 0xBDB DUP2 PUSH2 0xBA2 JUMP JUMPDEST SWAP1 POP SWAP2 SWAP1 POP JUMP JUMPDEST PUSH32 0x566F74657220616C72656164792068617320766F74696E67207269676874732E PUSH0 DUP3 ADD MSTORE POP JUMP JUMPDEST PUSH0 PUSH2 0xC16 PUSH1 0x20 DUP4 PUSH2 0x67B JUMP JUMPDEST SWAP2 POP PUSH2 0xC21 DUP3 PUSH2 0xBE2 JUMP JUMPDEST PUSH1 0x20 DUP3 ADD SWAP1 POP SWAP2 SWAP1 POP JUMP JUMPDEST PUSH0 PUSH1 0x20 DUP3 ADD SWAP1 POP DUP2 DUP2 SUB PUSH0 DUP4 ADD MSTORE PUSH2 0xC43 DUP2 PUSH2 0xC0A JUMP JUMPDEST SWAP1 POP SWAP2 SWAP1 POP JUMP INVALID LOG2 PUSH5 0x6970667358 0x22 SLT KECCAK256 DUP5 EXTCODECOPY SWAP13 0xC2 SHL PUSH13 0xEBA9637A4E12FBC7C011D0A652 0xF7 RETF 0x2F CALLCODE DELEGATECALL CALLER SHL GAS PREVRANDAO 0xBF EXTDELEGATECALL DUP8 DUP2 PUSH5 0x736F6C6343 STOP ADDMOD 0x1E STOP CALLER "
				},
				"gasEstimates": {
					"creation": {
						"codeDepositCost": "640000",
						"executionCost": "infinite",
						"totalCost": "infinite"
					},
					"external": {
						"chairperson()": "2507",
						"getTimeLeft()": "infinite",
						"giveRightToVote(address,uint256)": "29524",
						"proposals(uint256)": "infinite",
						"vote(uint256)": "infinite",
						"voters(address)": "infinite",
						"votingDeadline()": "2470"
					}
				},
				"methodIdentifiers": {
					"chairperson()": "2e4176cf",
					"getTimeLeft()": "c7e284b8",
					"giveRightToVote(address,uint256)": "ce50aa7d",
					"proposals(uint256)": "013cf08b",
					"vote(uint256)": "0121b93f",
					"voters(address)": "a3ec138d",
					"votingDeadline()": "036ee850"
				}
			},
			"storageLayout": {
				"storage": [
					{
						"astId": 15,
						"contract": "contracts/VotingSystem.sol:VotingSystem",
						"label": "chairperson",
						"offset": 0,
						"slot": "0",
						"type": "t_address"
					},
					{
						"astId": 20,
						"contract": "contracts/VotingSystem.sol:VotingSystem",
						"label": "voters",
						"offset": 0,
						"slot": "1",
						"type": "t_mapping(t_address,t_struct(Voter)8_storage)"
					},
					{
						"astId": 24,
						"contract": "contracts/VotingSystem.sol:VotingSystem",
						"label": "proposals",
						"offset": 0,
						"slot": "2",
						"type": "t_array(t_struct(Proposal)13_storage)dyn_storage"
					},
					{
						"astId": 26,
						"contract": "contracts/VotingSystem.sol:VotingSystem",
						"label": "votingDeadline",
						"offset": 0,
						"slot": "3",
						"type": "t_uint256"
					}
				],
				"types": {
					"t_address": {
						"encoding": "inplace",
						"label": "address",
						"numberOfBytes": "20"
					},
					"t_array(t_struct(Proposal)13_storage)dyn_storage": {
						"base": "t_struct(Proposal)13_storage",
						"encoding": "dynamic_array",
						"label": "struct VotingSystem.Proposal[]",
						"numberOfBytes": "32"
					},
					"t_bool": {
						"encoding": "inplace",
						"label": "bool",
						"numberOfBytes": "1"
					},
					"t_mapping(t_address,t_struct(Voter)8_storage)": {
						"encoding": "mapping",
						"key": "t_address",
						"label": "mapping(address => struct VotingSystem.Voter)",
						"numberOfBytes": "32",
						"value": "t_struct(Voter)8_storage"
					},
					"t_string_storage": {
						"encoding": "bytes",
						"label": "string",
						"numberOfBytes": "32"
					},
					"t_struct(Proposal)13_storage": {
						"encoding": "inplace",
						"label": "struct VotingSystem.Proposal",
						"members": [
							{
								"astId": 10,
								"contract": "contracts/VotingSystem.sol:VotingSystem",
								"label": "name",
								"offset": 0,
								"slot": "0",
								"type": "t_string_storage"
							},
							{
								"astId": 12,
								"contract": "contracts/VotingSystem.sol:VotingSystem",
								"label": "voteCount",
								"offset": 0,
								"slot": "1",
								"type": "t_uint256"
							}
						],
						"numberOfBytes": "64"
					},
					"t_struct(Voter)8_storage": {
						"encoding": "inplace",
						"label": "struct VotingSystem.Voter",
						"members": [
							{
								"astId": 3,
								"contract": "contracts/VotingSystem.sol:VotingSystem",
								"label": "weight",
								"offset": 0,
								"slot": "0",
								"type": "t_uint256"
							},
							{
								"astId": 5,
								"contract": "contracts/VotingSystem.sol:VotingSystem",
								"label": "voted",
								"offset": 0,
								"slot": "1",
								"type": "t_bool"
							},
							{
								"astId": 7,
								"contract": "contracts/VotingSystem.sol:VotingSystem",
								"label": "vote",
								"offset": 0,
								"slot": "2",
								"type": "t_uint256"
							}
						],
						"numberOfBytes": "96"
					},
					"t_uint256": {
						"encoding": "inplace",
						"label": "uint256",
						"numberOfBytes": "32"
					}
				}
			},
			"userdoc": {
				"kind": "user",
				"methods": {},
				"version": 1
			}
		}
	}
}