{
    "contractName": "FoodTraceability",
    "abi": [
        {
            "inputs": [],
            "stateMutability": "nonpayable",
            "type": "constructor"
        },
        {
            "anonymous": false,
            "inputs": [
                {
                    "indexed": true,
                    "internalType": "address",
                    "name": "account",
                    "type": "address"
                },
                {
                    "indexed": false,
                    "internalType": "string",
                    "name": "name",
                    "type": "string"
                },
                {
                    "indexed": false,
                    "internalType": "enum FoodTraceability.Role",
                    "name": "role",
                    "type": "uint8"
                }
            ],
            "name": "ParticipantAdded",
            "type": "event"
        },
        {
            "anonymous": false,
            "inputs": [
                {
                    "indexed": true,
                    "internalType": "address",
                    "name": "account",
                    "type": "address"
                }
            ],
            "name": "ParticipantRemoved",
            "type": "event"
        },
        {
            "anonymous": false,
            "inputs": [
                {
                    "indexed": true,
                    "internalType": "uint256",
                    "name": "productId",
                    "type": "uint256"
                },
                {
                    "indexed": false,
                    "internalType": "string",
                    "name": "name",
                    "type": "string"
                },
                {
                    "indexed": true,
                    "internalType": "address",
                    "name": "farmer",
                    "type": "address"
                },
                {
                    "indexed": false,
                    "internalType": "uint256",
                    "name": "timestamp",
                    "type": "uint256"
                }
            ],
            "name": "ProductCreated",
            "type": "event"
        },
        {
            "anonymous": false,
            "inputs": [
                {
                    "indexed": true,
                    "internalType": "uint256",
                    "name": "productId",
                    "type": "uint256"
                },
                {
                    "indexed": false,
                    "internalType": "uint256",
                    "name": "timestamp",
                    "type": "uint256"
                }
            ],
            "name": "ProductHarvested",
            "type": "event"
        },
        {
            "anonymous": false,
            "inputs": [
                {
                    "indexed": true,
                    "internalType": "uint256",
                    "name": "productId",
                    "type": "uint256"
                },
                {
                    "indexed": true,
                    "internalType": "address",
                    "name": "manufacturer",
                    "type": "address"
                },
                {
                    "indexed": false,
                    "internalType": "uint256",
                    "name": "timestamp",
                    "type": "uint256"
                }
            ],
            "name": "ProductProcessed",
            "type": "event"
        },
        {
            "anonymous": false,
            "inputs": [
                {
                    "indexed": true,
                    "internalType": "uint256",
                    "name": "productId",
                    "type": "uint256"
                },
                {
                    "indexed": true,
                    "internalType": "address",
                    "name": "retailer",
                    "type": "address"
                },
                {
                    "indexed": false,
                    "internalType": "uint256",
                    "name": "price",
                    "type": "uint256"
                },
                {
                    "indexed": false,
                    "internalType": "uint256",
                    "name": "timestamp",
                    "type": "uint256"
                }
            ],
            "name": "ProductReceived",
            "type": "event"
        },
        {
            "anonymous": false,
            "inputs": [
                {
                    "indexed": true,
                    "internalType": "uint256",
                    "name": "productId",
                    "type": "uint256"
                },
                {
                    "indexed": true,
                    "internalType": "address",
                    "name": "distributor",
                    "type": "address"
                },
                {
                    "indexed": false,
                    "internalType": "uint256",
                    "name": "timestamp",
                    "type": "uint256"
                }
            ],
            "name": "ProductShipped",
            "type": "event"
        },
        {
            "inputs": [
                {
                    "internalType": "address",
                    "name": "_account",
                    "type": "address"
                },
                {
                    "internalType": "string",
                    "name": "_name",
                    "type": "string"
                },
                {
                    "internalType": "enum FoodTraceability.Role",
                    "name": "_role",
                    "type": "uint8"
                }
            ],
            "name": "addParticipant",
            "outputs": [],
            "stateMutability": "nonpayable",
            "type": "function"
        },
        {
            "inputs": [],
            "name": "admin",
            "outputs": [
                {
                    "internalType": "address",
                    "name": "",
                    "type": "address"
                }
            ],
            "stateMutability": "view",
            "type": "function"
        },
        {
            "inputs": [
                {
                    "internalType": "string",
                    "name": "_name",
                    "type": "string"
                },
                {
                    "internalType": "string",
                    "name": "_farmLocation",
                    "type": "string"
                }
            ],
            "name": "createProduct",
            "outputs": [
                {
                    "internalType": "uint256",
                    "name": "",
                    "type": "uint256"
                }
            ],
            "stateMutability": "nonpayable",
            "type": "function"
        },
        {
            "inputs": [
                {
                    "internalType": "address",
                    "name": "_account",
                    "type": "address"
                }
            ],
            "name": "getParticipant",
            "outputs": [
                {
                    "internalType": "string",
                    "name": "name",
                    "type": "string"
                },
                {
                    "internalType": "enum FoodTraceability.Role",
                    "name": "role",
                    "type": "uint8"
                },
                {
                    "internalType": "bool",
                    "name": "isActive",
                    "type": "bool"
                }
            ],
            "stateMutability": "view",
            "type": "function"
        },
        {
            "inputs": [
                {
                    "internalType": "uint256",
                    "name": "_productId",
                    "type": "uint256"
                }
            ],
            "name": "getProductHistory",
            "outputs": [
                {
                    "internalType": "string",
                    "name": "name",
                    "type": "string"
                },
                {
                    "internalType": "enum FoodTraceability.State",
                    "name": "currentState",
                    "type": "uint8"
                },
                {
                    "internalType": "string",
                    "name": "farmerName",
                    "type": "string"
                },
                {
                    "internalType": "string",
                    "name": "farmLocation",
                    "type": "string"
                },
                {
                    "internalType": "uint256",
                    "name": "plantedDate",
                    "type": "uint256"
                },
                {
                    "internalType": "string",
                    "name": "manufacturerName",
                    "type": "string"
                },
                {
                    "internalType": "uint256",
                    "name": "processedDate",
                    "type": "uint256"
                },
                {
                    "internalType": "string",
                    "name": "distributorName",
                    "type": "string"
                },
                {
                    "internalType": "uint256",
                    "name": "shippedDate",
                    "type": "uint256"
                },
                {
                    "internalType": "string",
                    "name": "retailerName",
                    "type": "string"
                },
                {
                    "internalType": "uint256",
                    "name": "receivedDate",
                    "type": "uint256"
                },
                {
                    "internalType": "uint256",
                    "name": "price",
                    "type": "uint256"
                }
            ],
            "stateMutability": "view",
            "type": "function"
        },
        {
            "inputs": [
                {
                    "internalType": "uint256",
                    "name": "_productId",
                    "type": "uint256"
                }
            ],
            "name": "getProductState",
            "outputs": [
                {
                    "internalType": "enum FoodTraceability.State",
                    "name": "",
                    "type": "uint8"
                }
            ],
            "stateMutability": "view",
            "type": "function"
        },
        {
            "inputs": [],
            "name": "getTotalProducts",
            "outputs": [
                {
                    "internalType": "uint256",
                    "name": "",
                    "type": "uint256"
                }
            ],
            "stateMutability": "view",
            "type": "function"
        },
        {
            "inputs": [
                {
                    "internalType": "uint256",
                    "name": "_productId",
                    "type": "uint256"
                }
            ],
            "name": "harvestProduct",
            "outputs": [],
            "stateMutability": "nonpayable",
            "type": "function"
        },
        {
            "inputs": [
                {
                    "internalType": "address",
                    "name": "",
                    "type": "address"
                }
            ],
            "name": "participants",
            "outputs": [
                {
                    "internalType": "address",
                    "name": "account",
                    "type": "address"
                },
                {
                    "internalType": "string",
                    "name": "name",
                    "type": "string"
                },
                {
                    "internalType": "enum FoodTraceability.Role",
                    "name": "role",
                    "type": "uint8"
                },
                {
                    "internalType": "bool",
                    "name": "isActive",
                    "type": "bool"
                }
            ],
            "stateMutability": "view",
            "type": "function"
        },
        {
            "inputs": [
                {
                    "internalType": "uint256",
                    "name": "_productId",
                    "type": "uint256"
                }
            ],
            "name": "processProduct",
            "outputs": [],
            "stateMutability": "nonpayable",
            "type": "function"
        },
        {
            "inputs": [],
            "name": "productCounter",
            "outputs": [
                {
                    "internalType": "uint256",
                    "name": "",
                    "type": "uint256"
                }
            ],
            "stateMutability": "view",
            "type": "function"
        },
        {
            "inputs": [
                {
                    "internalType": "uint256",
                    "name": "",
                    "type": "uint256"
                }
            ],
            "name": "products",
            "outputs": [
                {
                    "internalType": "uint256",
                    "name": "id",
                    "type": "uint256"
                },
                {
                    "internalType": "string",
                    "name": "name",
                    "type": "string"
                },
                {
                    "internalType": "enum FoodTraceability.State",
                    "name": "currentState",
                    "type": "uint8"
                },
                {
                    "internalType": "address",
                    "name": "farmer",
                    "type": "address"
                },
                {
                    "internalType": "uint256",
                    "name": "plantedDate",
                    "type": "uint256"
                },
                {
                    "internalType": "string",
                    "name": "farmLocation",
                    "type": "string"
                },
                {
                    "internalType": "address",
                    "name": "manufacturer",
                    "type": "address"
                },
                {
                    "internalType": "uint256",
                    "name": "processedDate",
                    "type": "uint256"
                },
                {
                    "internalType": "address",
                    "name": "distributor",
                    "type": "address"
                },
                {
                    "internalType": "uint256",
                    "name": "shippedDate",
                    "type": "uint256"
                },
                {
                    "internalType": "address",
                    "name": "retailer",
                    "type": "address"
                },
                {
                    "internalType": "uint256",
                    "name": "receivedDate",
                    "type": "uint256"
                },
                {
                    "internalType": "uint256",
                    "name": "price",
                    "type": "uint256"
                }
            ],
            "stateMutability": "view",
            "type": "function"
        },
        {
            "inputs": [
                {
                    "internalType": "uint256",
                    "name": "_productId",
                    "type": "uint256"
                },
                {
                    "internalType": "uint256",
                    "name": "_price",
                    "type": "uint256"
                }
            ],
            "name": "receiveProduct",
            "outputs": [],
            "stateMutability": "nonpayable",
            "type": "function"
        },
        {
            "inputs": [
                {
                    "internalType": "address",
                    "name": "_account",
                    "type": "address"
                }
            ],
            "name": "removeParticipant",
            "outputs": [],
            "stateMutability": "nonpayable",
            "type": "function"
        },
        {
            "inputs": [
                {
                    "internalType": "enum FoodTraceability.Role",
                    "name": "_role",
                    "type": "uint8"
                }
            ],
            "name": "roleToString",
            "outputs": [
                {
                    "internalType": "string",
                    "name": "",
                    "type": "string"
                }
            ],
            "stateMutability": "pure",
            "type": "function"
        },
        {
            "inputs": [
                {
                    "internalType": "uint256",
                    "name": "_productId",
                    "type": "uint256"
                }
            ],
            "name": "shipProduct",
            "outputs": [],
            "stateMutability": "nonpayable",
            "type": "function"
        },
        {
            "inputs": [
                {
                    "internalType": "enum FoodTraceability.State",
                    "name": "_state",
                    "type": "uint8"
                }
            ],
            "name": "stateToString",
            "outputs": [
                {
                    "internalType": "string",
                    "name": "",
                    "type": "string"
                }
            ],
            "stateMutability": "pure",
            "type": "function"
        }
    ],
    "bytecode": "6080604052346102d2575f600181905580546001600160a01b03191633179055604051608081016001600160401b038111828210176102be57604090815233825280519081016001600160401b038111828210176102be57604052601481527f53797374656d2041646d696e6973747261746f7200000000000000000000000060208201526020820190815260408201915f8352606081019160018352335f52600260205260405f209160018060a01b0390511660018060a01b031983541617825560018201905180519060018060401b0382116102be578254600181811c911680156102b4575b60208210146102a057601f811161024f575b50602090601f83116001146101e8576002949392915f91836101dd575b50508160011b915f199060031b1c19161790555b0191519060058210156101c95760ff61ff0084549251151560081b1692169061ffff19161717905560018060a01b035f54167f187197fa74429a76e56e343f7668c033ce2eccb7981d2d3762180eb94dd72e7b608060405160408152601460408201527f53797374656d2041646d696e6973747261746f7200000000000000000000000060608201525f6020820152a2604051611aa490816102d78239f35b634e487b7160e01b5f52602160045260245ffd5b015190505f80610116565b90601f19831691845f52815f20925f5b81811061023757509160019391856002989796941061021f575b505050811b01905561012a565b01515f1960f88460031b161c191690555f8080610212565b929360206001819287860151815501950193016101f8565b828111156100f957835f5260205f20601f840160051c9060208510610298575b81601f9101920160051c03905f5b82811061028b5750506100f9565b5f8282015560010161027d565b5f915061026f565b634e487b7160e01b5f52602260045260245ffd5b90607f16906100e7565b634e487b7160e01b5f52604160045260245ffd5b5f80fdfe60806040526004361015610011575f80fd5b5f3560e01c806309e69ede1461144357806312bb716d146113ee578063157e14cd1461125e5780631f16653b14610f7c5780632927d1d9146111245780632e2af79114610f99578063570aea8a14610f7c57806357a096a114610d2f578063668a200114610c175780637143059f14610b5b5780637946bb0b14610b325780637acc0b2014610a1f57806387592bce146105b0578063d15e98ee1461056f578063e101f6641461042e578063eed382d8146100ff5763f851a440146100d4575f80fd5b346100fb575f3660031901126100fb575f546040516001600160a01b039091168152602090f35b5f80fd5b346100fb5760603660031901126100fb576101186114c8565b60243567ffffffffffffffff81116100fb5761013890369060040161164f565b906044359060058210156100fb5761015a60018060a01b035f54163314611795565b6001600160a01b03169182156103f257825f52600260205260ff600260405f20015460081c166103a1576040519061019182611533565b838252602082019281845260408301926101ab82856117f4565b6001606082018181525f888152600260205260409020925183546001600160a01b0319166001600160a01b039190911617835595518051918301919067ffffffffffffffff821161038d5761020083546114de565b601f811161033c575b50602090601f83116001146102d5576002949392915f91836102ca575b50508160011b915f199060031b1c19161790555b0192519260058410156102b6577f187197fa74429a76e56e343f7668c033ce2eccb7981d2d3762180eb94dd72e7b946102a69460ff8019845416911617825551151561ff0082549160081b169061ff0019161790556102b1604051938493604085526040850190611611565b916020840190611635565b0390a2005b634e487b7160e01b5f52602160045260245ffd5b015190508a80610226565b90601f19831691845f52815f20925f5b81811061032457509160019391856002989796941061030c575b505050811b01905561023a565b01515f1960f88460031b161c191690558a80806102ff565b929360206001819287860151815501950193016102e5565b8281111561020957835f5260205f20601f840160051c9060208510610385575b81601f9101920160051c03905f5b828110610378575050610209565b5f8282015560010161036a565b5f915061035c565b634e487b7160e01b5f52604160045260245ffd5b60405162461bcd60e51b815260206004820152602360248201527f4e67756f69206e617920646120746f6e207461692074726f6e672068652074686044820152626f6e6760e81b6064820152608490fd5b60405162461bcd60e51b815260206004820152601460248201527344696120636869206b686f6e6720686f70206c6560601b6044820152606490fd5b346100fb5760203660031901126100fb57600435335f52600260205261046060ff600260405f20015460081c166116ea565b335f52600260205260ff600260405f2001541660058110156102b65760026104889114611736565b80151580610563575b61049a906116a5565b805f52600360205260405f20600281019060ff82541660068110156102b65760010361051e576005810160018060a01b0333166001600160601b0360a01b825416179055600642910155600260ff19825416179055604051904282527ff75da643e566c82e3da42837dce371edb2375fec29911db1820a7c1e3a82f65060203393a3005b60405162461bcd60e51b815260206004820152601760248201527f53616e207068616d20636875612074687520686f6163680000000000000000006044820152606490fd5b50600154811115610491565b346100fb5760203660031901126100fb5760043560068110156100fb576105986105ac91611930565b604051918291602083526020830190611611565b0390f35b346100fb5760403660031901126100fb5760043567ffffffffffffffff81116100fb576105e190369060040161164f565b60243567ffffffffffffffff81116100fb5761060190369060040161164f565b335f52600260205261061f60ff600260405f20015460081c166116ea565b335f52600260205260ff600260405f2001541660058110156102b65760016106479114611736565b6001545f198114610a0b57600101918260015560405161066681611516565b838152602081019382855260408201945f865260608301338152608084019642885260a0850196875260c08501975f895260e086015f81526101008701915f83526101208801935f85526101408901955f87526101608a01975f89526101808b01995f8b525f52600360205260405f209a518b5560018b01905180519067ffffffffffffffff821161038d5781906106fe84546114de565b601f81116109b2575b50602090601f831160011461094f575f92610944575b50508160011b915f199060031b1c19161790555b60028a01915160068110156102b657825491516001600160a81b031990921660ff919091161760089190911b610100600160a81b03161790555160038801559751805190999098906004880167ffffffffffffffff8b1161038d5761079681546114de565b9b601f8d116108f5575b60209c508c90601f8d1160011461088e579b8091600b9b9c9d5f92610883575b50508160011b915f199060031b1c19161790555b516005890180546001600160a01b039283166001600160a01b031991821617909155915160068a0155915160078901805491841691831691909117905591516008880155915160098701805491909316911617905551600a8401555191015560015460408051818152919283917f90934fc9dc1095f968f4207cb62e27da1da3e31653ff34cbf837b6c349ded7609161086f91850190611611565b9242868201528033940390a3604051908152f35b015190508e806107c0565b90601f198d1691835f52815f20925f5b8181106108dd57509160019391600b9d9e9f8094106108c5575b505050811b0190556107d4565b01515f1960f88460031b161c191690558e80806108b8565b9293602060018192878601518155019501930161089e565b8b8d11156107a057815f528b60205f206020601f830160051c921061093c575b81019d601f0160051c035f5b81811061092f5750506107a0565b5f8f820155600101610921565b5f9150610915565b015190505f8061071d565b5f8581528281209350601f198516905b81811061099a5750908460019594939210610982575b505050811b019055610731565b01515f1960f88460031b161c191690555f8080610975565b9293602060018192878601518155019501930161095f565b8281111561070757909150835f5260205f20601f840160051c9060208510610a03575b849392601f0160051c82900391015f5b8281106109f3575050610707565b5f818301558594506001016109e5565b5f91506109d5565b634e487b7160e01b5f52601160045260245ffd5b346100fb5760203660031901126100fb576004355f52600360205260405f20805460018201610a4d90611571565b9160028101549060038101549060048101610a6790611571565b92600160a01b60019003600583015416936006830154600160a01b6001900360078501541690600885015492600160a01b6001900360098701541694600a87015496600b0154976040519b8c9b8c5260208c016101a090526101a08c01610acd91611611565b91610ade60408d0160ff8316611642565b60081c6001600160a01b031660608c015260808b015289810360a08b0152610b0591611611565b9660c089015260e08801526101008701526101208601526101408501526101608401526101808301520390f35b346100fb5760203660031901126100fb5760043560058110156100fb576105986105ac9161182c565b346100fb5760203660031901126100fb576001600160a01b03610b7c6114c8565b165f52600260205260405f20604051610b9481611533565b81546001600160a01b031681526002610baf60018401611571565b926020830193845201549160ff60606040840193610bcf838716866117f4565b019360081c161515835251905160058110156102b657610c0392511515610c0e604051948594606086526060860190611611565b926020850190611635565b60408301520390f35b346100fb5760203660031901126100fb57610c306114c8565b5f546001600160a01b031690610c47338314611795565b60018060a01b031690815f52600260205260ff600260405f20015460081c1615610cea578114610caf57805f526002602052600260405f200161ff001981541690557f1a5e355a9a34d7eac1e439a6c610ba1fa72aa45f7645724ce5187fa19c3bd3fc5f80a2005b60405162461bcd60e51b815260206004820152601360248201527225b437b733903a3432903c37b09030b236b4b760691b6044820152606490fd5b60405162461bcd60e51b815260206004820152601760248201527f4e67756f69206e6179206b686f6e6720746f6e207461690000000000000000006044820152606490fd5b346100fb5760203660031901126100fb5760043580151580610f70575b610d55906116a5565b5f52600360205260405f20604051610d6c81611516565b81548152610d7c60018301611571565b6020820190815260028301549260408301929160ff851660068110156102b657845260089490941c6001600160a01b0316606083019081526003820154608084019081529094610dce60048401611571565b60a0850190815260058401546001600160a01b0390811660c0870190815260068087015460e08901908152600788015484166101008a0190815260088901546101208b0190815260098a01549095166101408b01908152600a8a01546101608c01908152600b909a0154610180909b019a8b5296519a519b959891979195909493928c10156102b657516001600160a01b039081165f908152600260205260408082209a51935194518316825280822099519651831682528082209551985190921681522094519851976001978801979586019593840193610eb09101611571565b96610eba90611571565b92610ec490611571565b94610ece90611571565b966040519b8c9b6101808d526101808d01610ee891611611565b9060208d01610ef691611642565b8b810360408d0152610f0791611611565b8a810360608c0152610f1891611611565b9060808a015288810360a08a0152610f2f91611611565b9060c088015286810360e0880152610f4691611611565b90610100860152848103610120860152610f5f91611611565b916101408401526101608301520390f35b50600154811115610d4c565b346100fb575f3660031901126100fb576020600154604051908152f35b346100fb5760203660031901126100fb57600435335f526002602052610fcb60ff600260405f20015460081c166116ea565b335f52600260205260ff600260405f2001541660058110156102b6576001610ff39114611736565b80151580611118575b611005906116a5565b5f818152600360205260409020600201805433600882901c6001600160a01b0316036110c35760ff1660068110156102b65761107257600160ff198254161790557f5c5050ff0eef46e09811c8aad89c5b12eadbc7a250e3055075708e08289b037a6020604051428152a2005b60405162461bcd60e51b815260206004820152602360248201527f53616e207068616d206b686f6e67206f207472616e67207468616920506c616e6044820152621d195960ea1b6064820152608490fd5b60405162461bcd60e51b815260206004820152602760248201527f42616e206b686f6e672070686169206e67756f692074726f6e672073616e207060448201526668616d206e617960c81b6064820152608490fd5b50600154811115610ffc565b346100fb5760203660031901126100fb57600435335f52600260205261115660ff600260405f20015460081c166116ea565b335f52600260205260ff600260405f2001541660058110156102b657600361117e9114611736565b80151580611252575b611190906116a5565b805f52600360205260405f20600281019060ff82541660068110156102b657600203611214576007810160018060a01b0333166001600160601b0360a01b825416179055600842910155600360ff19825416179055604051904282527ff01e3683ff69ddad47f65b1c17f2517d8bd6f746d37ddae5624fa08dbb2d61a160203393a3005b60405162461bcd60e51b815260206004820152601660248201527529b0b710383430b69031b43ab09031b432903134b2b760511b6044820152606490fd5b50600154811115611187565b346100fb5760403660031901126100fb5760043560243590335f52600260205261129460ff600260405f20015460081c166116ea565b335f52600260205260ff600260405f2001541660058110156102b65760046112bc9114611736565b801515806113e2575b6112ce906116a5565b805f52600360205260405f20600281019060ff82541660068110156102b65760030361139d57831561136357600b81600986930160018060a01b0333166001600160601b0360a01b82541617905542600a8201550155600560ff198254161790556040519182524260208301527f88c5e11e3ea0647d74f59bc2f6b1cb12f48825fcb4cd7eccc640aa9fe5d7e20560403393a3005b60405162461bcd60e51b815260206004820152601260248201527104769612070686169206c6f6e20686f6e20360741b6044820152606490fd5b60405162461bcd60e51b815260206004820152601860248201527f53616e207068616d20636875612076616e2063687579656e00000000000000006044820152606490fd5b506001548111156112c5565b346100fb5760203660031901126100fb5760043580151580611437575b611414906116a5565b5f526003602052602060ff600260405f200154166114356040518092611642565bf35b5060015481111561140b565b346100fb5760203660031901126100fb576001600160a01b036114646114c8565b165f52600260205260405f2060018060a01b03815416600261148860018401611571565b92015460ff6114a96040519485948552608060208601526080850190611611565b916114b960408501838316611635565b60081c16151560608301520390f35b600435906001600160a01b03821682036100fb57565b90600182811c9216801561150c575b60208310146114f857565b634e487b7160e01b5f52602260045260245ffd5b91607f16916114ed565b6101a0810190811067ffffffffffffffff82111761038d57604052565b6080810190811067ffffffffffffffff82111761038d57604052565b90601f8019910116810190811067ffffffffffffffff82111761038d57604052565b9060405191825f825492611584846114de565b80845293600181169081156115ef57506001146115ab575b506115a99250038361154f565b565b90505f9291925260205f20905f915b8183106115d35750509060206115a9928201015f61159c565b60209193508060019154838589010152019101909184926115ba565b9050602092506115a994915060ff191682840152151560051b8201015f61159c565b805180835260209291819084018484015e5f828201840152601f01601f1916010190565b9060058210156102b65752565b9060068210156102b65752565b81601f820112156100fb5780359067ffffffffffffffff821161038d5760405192611684601f8401601f19166020018561154f565b828452602083830101116100fb57815f926020809301838601378301015290565b156116ac57565b60405162461bcd60e51b815260206004820152601660248201527553616e207068616d206b686f6e6720746f6e2074616960501b6044820152606490fd5b156116f157565b60405162461bcd60e51b815260206004820152601d60248201527f546169206b686f616e20636875612064756f63206b69636820686f61740000006044820152606490fd5b1561173d57565b60405162461bcd60e51b815260206004820152602a60248201527f42616e206b686f6e6720636f20717579656e2074687563206869656e2068616e6044820152696820646f6e67206e617960b01b6064820152608490fd5b1561179c57565b60405162461bcd60e51b815260206004820152602a60248201527f4368692061646d696e206d6f692064756f632074687563206869656e2068616e6044820152696820646f6e67206e617960b01b6064820152608490fd5b60058210156102b65752565b6040519061180f60408361154f565b600e82526d096d0dedcce40f0c2c640c8d2dcd60931b6020830152565b60058110156102b657801561190457600181146118dd57600281146118b7576003811461188b5760041461186557611862611800565b90565b60405161187360408261154f565b6008815267536965752074686960c01b602082015290565b5060405161189a60408261154f565b600d81526c4e6861207068616e2070686f6960981b602082015290565b506040516118c660408261154f565b60078152664e6861206d617960c81b602082015290565b506040516118ec60408261154f565b60088152672737b733903230b760c11b602082015290565b5060405161191360408261154f565b600d81526c28bab0b7103a3934903b34b2b760991b602082015290565b60068110156102b6578015611a425760018114611a1757600281146119ed57600381146119bf57600481146119945760051461196e57611862611800565b60405161197c60408261154f565b60088152672230b733903130b760c11b602082015290565b506040516119a360408261154f565b600c81526b4461206e68616e2068616e6760a01b602082015290565b506040516119ce60408261154f565b600f81526e2230b733903b30b71031b43abcb2b760891b602082015290565b506040516119fc60408261154f565b600b81526a22309031b432903134b2b760a91b602082015290565b50604051611a2660408261154f565b600c81526b088c240e8d0ea40d0dec2c6d60a31b602082015290565b50604051611a5160408261154f565b600d81526c4461206769656f2074726f6e6760981b60208201529056fea2646970667358221220dc8eebe14a4dedf80b2745a5c5b93fb21166feb90936274e2b50153acaba209064736f6c63430008220033",
    "sourcePath": "d:/Blockchain/food-traceability/contracts/FoodTraceability.sol",
    "compiler": {
        "name": "solc",
        "version": "0.8.34+commit.80d5c536"
    },
    "functionHashes": {
        "addParticipant(address,string,uint8)": "eed382d8",
        "admin()": "f851a440",
        "createProduct(string,string)": "87592bce",
        "getParticipant(address)": "7143059f",
        "getProductHistory(uint256)": "57a096a1",
        "getProductState(uint256)": "12bb716d",
        "getTotalProducts()": "570aea8a",
        "harvestProduct(uint256)": "2e2af791",
        "participants(address)": "09e69ede",
        "processProduct(uint256)": "e101f664",
        "productCounter()": "1f16653b",
        "products(uint256)": "7acc0b20",
        "receiveProduct(uint256,uint256)": "157e14cd",
        "removeParticipant(address)": "668a2001",
        "roleToString(uint8)": "7946bb0b",
        "shipProduct(uint256)": "2927d1d9",
        "stateToString(uint8)": "d15e98ee"
    },
    "gasEstimates": {
        "creation": {
            "codeDepositCost": "1364000",
            "executionCost": "infinite",
            "totalCost": "infinite"
        },
        "external": {
            "addParticipant(address,string,uint8)": "infinite",
            "admin()": "2620",
            "createProduct(string,string)": "infinite",
            "getParticipant(address)": "infinite",
            "getProductHistory(uint256)": "infinite",
            "getProductState(uint256)": "4605",
            "getTotalProducts()": "2380",
            "harvestProduct(uint256)": "34800",
            "participants(address)": "infinite",
            "processProduct(uint256)": "81714",
            "productCounter()": "2314",
            "products(uint256)": "infinite",
            "receiveProduct(uint256,uint256)": "103861",
            "removeParticipant(address)": "30198",
            "roleToString(uint8)": "874",
            "shipProduct(uint256)": "81494",
            "stateToString(uint8)": "962"
        }
    }
}